{
  "_format": "hh-sol-artifact-1",
  "contractName": "Factory",
  "sourceName": "contracts/Factory.sol",
  "abi": [
    {
      "inputs": [],
      "stateMutability": "payable",
      "type": "constructor"
    },
    {
      "inputs": [],
      "name": "addBudget",
      "outputs": [
        {
          "internalType": "uint256",
          "name": "",
          "type": "uint256"
        }
      ],
      "stateMutability": "payable",
      "type": "function"
    },
    {
      "inputs": [
        {
          "internalType": "address",
          "name": "newAddress",
          "type": "address"
        }
      ],
      "name": "addEvaluator",
      "outputs": [],
      "stateMutability": "nonpayable",
      "type": "function"
    },
    {
      "inputs": [
        {
          "internalType": "address",
          "name": "policyAddress",
          "type": "address"
        },
        {
          "internalType": "uint256",
          "name": "claimId",
          "type": "uint256"
        },
        {
          "internalType": "uint256",
          "name": "claimExpenses",
          "type": "uint256"
        }
      ],
      "name": "approveClaim",
      "outputs": [],
      "stateMutability": "nonpayable",
      "type": "function"
    },
    {
      "inputs": [
        {
          "internalType": "address",
          "name": "evaluator",
          "type": "address"
        },
        {
          "internalType": "bool",
          "name": "value",
          "type": "bool"
        }
      ],
      "name": "changeEvaluatorValue",
      "outputs": [],
      "stateMutability": "nonpayable",
      "type": "function"
    },
    {
      "inputs": [
        {
          "internalType": "string",
          "name": "riskObject",
          "type": "string"
        },
        {
          "internalType": "uint256",
          "name": "endDate",
          "type": "uint256"
        }
      ],
      "name": "createPolicy",
      "outputs": [
        {
          "internalType": "address",
          "name": "",
          "type": "address"
        }
      ],
      "stateMutability": "payable",
      "type": "function"
    },
    {
      "inputs": [
        {
          "internalType": "address",
          "name": "policyAddress",
          "type": "address"
        },
        {
          "internalType": "uint256",
          "name": "claimId",
          "type": "uint256"
        }
      ],
      "name": "declineClaim",
      "outputs": [],
      "stateMutability": "nonpayable",
      "type": "function"
    },
    {
      "inputs": [],
      "name": "getHolderPolicies",
      "outputs": [
        {
          "internalType": "address[]",
          "name": "",
          "type": "address[]"
        }
      ],
      "stateMutability": "view",
      "type": "function"
    },
    {
      "inputs": [],
      "name": "getUserPolicies",
      "outputs": [
        {
          "internalType": "address[]",
          "name": "",
          "type": "address[]"
        }
      ],
      "stateMutability": "view",
      "type": "function"
    },
    {
      "inputs": [
        {
          "internalType": "address",
          "name": "checkAddress",
          "type": "address"
        }
      ],
      "name": "isClaimEvaluatorKnown",
      "outputs": [
        {
          "internalType": "bool",
          "name": "",
          "type": "bool"
        }
      ],
      "stateMutability": "view",
      "type": "function"
    },
    {
      "inputs": [
        {
          "internalType": "address",
          "name": "policyAddress",
          "type": "address"
        },
        {
          "internalType": "uint256",
          "name": "newEndDate",
          "type": "uint256"
        },
        {
          "internalType": "uint256",
          "name": "renewalAmount",
          "type": "uint256"
        }
      ],
      "name": "renewPolicy",
      "outputs": [
        {
          "internalType": "uint256",
          "name": "",
          "type": "uint256"
        }
      ],
      "stateMutability": "payable",
      "type": "function"
    },
    {
      "inputs": [
        {
          "internalType": "uint256",
          "name": "amount",
          "type": "uint256"
        }
      ],
      "name": "withdrawBudget",
      "outputs": [
        {
          "internalType": "uint256",
          "name": "",
          "type": "uint256"
        }
      ],
      "stateMutability": "nonpayable",
      "type": "function"
    }
  ],
  "bytecode": "0x6080604052670ddd2935029d800060015560015434101562000058576040517f08c379a00000000000000000000000000000000000000000000000000000000081526004016200004f906200014b565b60405180910390fd5b336000806101000a81548173ffffffffffffffffffffffffffffffffffffffff021916908373ffffffffffffffffffffffffffffffffffffffff1602179055506200016d565b600082825260208201905092915050565b7f4d696e696d756d20627564676574206973206e6f74206163686965766564207460008201527f6f20737461727420616e20496e737572616e636520536d61727420436f6e747260208201527f6163740000000000000000000000000000000000000000000000000000000000604082015250565b6000620001336043836200009e565b91506200014082620000af565b606082019050919050565b60006020820190508181036000830152620001668162000124565b9050919050565b6143c5806200017d6000396000f3fe608060405260043610620000aa5760003560e01c80636e66d617116200006d5780636e66d61714620001a95780639278a65114620001d95780639c8bc7c814620002075780639f1d8c47146200023d578063b7fb322f146200026b578063eb26e5f014620002af57620000aa565b80631b3d1b9714620000af5780632425b2e914620000dd5780632cc81a61146200010d578063473d37981462000151578063687792db1462000187575b600080fd5b348015620000bc57600080fd5b50620000db6004803603810190620000d591906200101c565b620002dd565b005b348015620000ea57600080fd5b50620000f5620003fa565b60405162000104919062001131565b60405180910390f35b3480156200011a57600080fd5b5062000139600480360381019062000133919062001155565b620004cd565b60405162000148919062001198565b60405180910390f35b6200016f6004803603810190620001699190620011b5565b62000616565b6040516200017e919062001198565b60405180910390f35b62000191620007cf565b604051620001a0919062001198565b60405180910390f35b348015620001b657600080fd5b50620001c162000869565b604051620001d0919062001131565b60405180910390f35b348015620001e657600080fd5b50620002056004803603810190620001ff9190620011b5565b62000936565b005b6200022560048036038101906200021f919062001373565b62000b5a565b604051620002349190620013ea565b60405180910390f35b3480156200024a57600080fd5b5062000269600480360381019062000263919062001444565b62000c9a565b005b3480156200027857600080fd5b506200029760048036038101906200029191906200148b565b62000d86565b604051620002a69190620014ce565b60405180910390f35b348015620002bc57600080fd5b50620002db6004803603810190620002d591906200148b565b62000e6e565b005b60008054906101000a900473ffffffffffffffffffffffffffffffffffffffff1673ffffffffffffffffffffffffffffffffffffffff163373ffffffffffffffffffffffffffffffffffffffff1614806200033f57506200033e3362000d86565b5b62000381576040517f08c379a0000000000000000000000000000000000000000000000000000000008152600401620003789062001572565b60405180910390fd5b60008290508073ffffffffffffffffffffffffffffffffffffffff1663f119c463836040518263ffffffff1660e01b8152600401620003c1919062001198565b600060405180830381600087803b158015620003dc57600080fd5b505af1158015620003f1573d6000803e3d6000fd5b50505050505050565b60606000600260003373ffffffffffffffffffffffffffffffffffffffff1673ffffffffffffffffffffffffffffffffffffffff168152602001908152602001600020805480602002602001604051908101604052809291908181526020018280548015620004bf57602002820191906000526020600020905b8160009054906101000a900473ffffffffffffffffffffffffffffffffffffffff1673ffffffffffffffffffffffffffffffffffffffff168152602001906001019080831162000474575b505050505090508091505090565b60008060009054906101000a900473ffffffffffffffffffffffffffffffffffffffff1673ffffffffffffffffffffffffffffffffffffffff163373ffffffffffffffffffffffffffffffffffffffff161462000561576040517f08c379a000000000000000000000000000000000000000000000000000000000815260040162000558906200160a565b60405180910390fd5b478210620005a6576040517f08c379a00000000000000000000000000000000000000000000000000000000081526004016200059d90620016a2565b60405180910390fd5b60008054906101000a900473ffffffffffffffffffffffffffffffffffffffff1673ffffffffffffffffffffffffffffffffffffffff166108fc839081150290604051600060405180830381858888f193505050501580156200060d573d6000803e3d6000fd5b50479050919050565b60008134116200065d576040517f08c379a000000000000000000000000000000000000000000000000000000000815260040162000654906200173a565b60405180910390fd5b60008490508073ffffffffffffffffffffffffffffffffffffffff16630c4f65bd6040518163ffffffff1660e01b8152600401602060405180830381865afa158015620006ae573d6000803e3d6000fd5b505050506040513d601f19601f82011682018060405250810190620006d4919062001773565b73ffffffffffffffffffffffffffffffffffffffff163373ffffffffffffffffffffffffffffffffffffffff161462000744576040517f08c379a00000000000000000000000000000000000000000000000000000000081526004016200073b906200181b565b60405180910390fd5b8073ffffffffffffffffffffffffffffffffffffffff16635baa7509856040518263ffffffff1660e01b81526004016200077f919062001198565b6020604051808303816000875af11580156200079f573d6000803e3d6000fd5b505050506040513d601f19601f82011682018060405250810190620007c5919062001854565b9150509392505050565b60008060009054906101000a900473ffffffffffffffffffffffffffffffffffffffff1673ffffffffffffffffffffffffffffffffffffffff163373ffffffffffffffffffffffffffffffffffffffff161462000863576040517f08c379a00000000000000000000000000000000000000000000000000000000081526004016200085a906200160a565b60405180910390fd5b47905090565b6060600260003373ffffffffffffffffffffffffffffffffffffffff1673ffffffffffffffffffffffffffffffffffffffff1681526020019081526020016000208054806020026020016040519081016040528092919081815260200182805480156200092c57602002820191906000526020600020905b8160009054906101000a900473ffffffffffffffffffffffffffffffffffffffff1673ffffffffffffffffffffffffffffffffffffffff1681526020019060010190808311620008e1575b5050505050905090565b60008054906101000a900473ffffffffffffffffffffffffffffffffffffffff1673ffffffffffffffffffffffffffffffffffffffff163373ffffffffffffffffffffffffffffffffffffffff161480620009985750620009973362000d86565b5b620009da576040517f08c379a0000000000000000000000000000000000000000000000000000000008152600401620009d19062001572565b60405180910390fd5b47811062000a1f576040517f08c379a000000000000000000000000000000000000000000000000000000000815260040162000a1690620018fc565b60405180910390fd5b60008390508073ffffffffffffffffffffffffffffffffffffffff16637fbe658c84846040518363ffffffff1660e01b815260040162000a619291906200191e565b600060405180830381600087803b15801562000a7c57600080fd5b505af115801562000a91573d6000803e3d6000fd5b5050505060008173ffffffffffffffffffffffffffffffffffffffff16630c4f65bd6040518163ffffffff1660e01b8152600401602060405180830381865afa15801562000ae3573d6000803e3d6000fd5b505050506040513d601f19601f8201168201806040525081019062000b09919062001773565b90508073ffffffffffffffffffffffffffffffffffffffff166108fc849081150290604051600060405180830381858888f1935050505015801562000b52573d6000803e3d6000fd5b505050505050565b600080341162000ba1576040517f08c379a000000000000000000000000000000000000000000000000000000000815260040162000b9890620019c1565b60405180910390fd5b60008334338560405162000bb59062000f5a565b62000bc4949392919062001a5b565b604051809103906000f08015801562000be1573d6000803e3d6000fd5b50905060008190506000339050600260008273ffffffffffffffffffffffffffffffffffffffff1673ffffffffffffffffffffffffffffffffffffffff168152602001908152602001600020829080600181540180825580915050600190039060005260206000200160009091909190916101000a81548173ffffffffffffffffffffffffffffffffffffffff021916908373ffffffffffffffffffffffffffffffffffffffff16021790555081935050505092915050565b60008054906101000a900473ffffffffffffffffffffffffffffffffffffffff1673ffffffffffffffffffffffffffffffffffffffff163373ffffffffffffffffffffffffffffffffffffffff161462000d2b576040517f08c379a000000000000000000000000000000000000000000000000000000000815260040162000d22906200160a565b60405180910390fd5b80600360008473ffffffffffffffffffffffffffffffffffffffff1673ffffffffffffffffffffffffffffffffffffffff16815260200190815260200160002060006101000a81548160ff0219169083151502179055505050565b60008060009054906101000a900473ffffffffffffffffffffffffffffffffffffffff1673ffffffffffffffffffffffffffffffffffffffff163373ffffffffffffffffffffffffffffffffffffffff161462000e1a576040517f08c379a000000000000000000000000000000000000000000000000000000000815260040162000e11906200160a565b60405180910390fd5b600360008373ffffffffffffffffffffffffffffffffffffffff1673ffffffffffffffffffffffffffffffffffffffff16815260200190815260200160002060009054906101000a900460ff169050919050565b60008054906101000a900473ffffffffffffffffffffffffffffffffffffffff1673ffffffffffffffffffffffffffffffffffffffff163373ffffffffffffffffffffffffffffffffffffffff161462000eff576040517f08c379a000000000000000000000000000000000000000000000000000000000815260040162000ef6906200160a565b60405180910390fd5b6001600360008373ffffffffffffffffffffffffffffffffffffffff1673ffffffffffffffffffffffffffffffffffffffff16815260200190815260200160002060006101000a81548160ff02191690831515021790555050565b6128e08062001ab083390190565b6000604051905090565b600080fd5b600080fd5b600073ffffffffffffffffffffffffffffffffffffffff82169050919050565b600062000fa98262000f7c565b9050919050565b62000fbb8162000f9c565b811462000fc757600080fd5b50565b60008135905062000fdb8162000fb0565b92915050565b6000819050919050565b62000ff68162000fe1565b81146200100257600080fd5b50565b600081359050620010168162000feb565b92915050565b6000806040838503121562001036576200103562000f72565b5b6000620010468582860162000fca565b9250506020620010598582860162001005565b9150509250929050565b600081519050919050565b600082825260208201905092915050565b6000819050602082019050919050565b6200109a8162000f9c565b82525050565b6000620010ae83836200108f565b60208301905092915050565b6000602082019050919050565b6000620010d48262001063565b620010e081856200106e565b9350620010ed836200107f565b8060005b8381101562001124578151620011088882620010a0565b97506200111583620010ba565b925050600181019050620010f1565b5085935050505092915050565b600060208201905081810360008301526200114d8184620010c7565b905092915050565b6000602082840312156200116e576200116d62000f72565b5b60006200117e8482850162001005565b91505092915050565b620011928162000fe1565b82525050565b6000602082019050620011af600083018462001187565b92915050565b600080600060608486031215620011d157620011d062000f72565b5b6000620011e18682870162000fca565b9350506020620011f48682870162001005565b9250506040620012078682870162001005565b9150509250925092565b600080fd5b600080fd5b6000601f19601f8301169050919050565b7f4e487b7100000000000000000000000000000000000000000000000000000000600052604160045260246000fd5b62001266826200121b565b810181811067ffffffffffffffff821117156200128857620012876200122c565b5b80604052505050565b60006200129d62000f68565b9050620012ab82826200125b565b919050565b600067ffffffffffffffff821115620012ce57620012cd6200122c565b5b620012d9826200121b565b9050602081019050919050565b82818337600083830152505050565b60006200130c6200130684620012b0565b62001291565b9050828152602081018484840111156200132b576200132a62001216565b5b62001338848285620012e6565b509392505050565b600082601f83011262001358576200135762001211565b5b81356200136a848260208601620012f5565b91505092915050565b600080604083850312156200138d576200138c62000f72565b5b600083013567ffffffffffffffff811115620013ae57620013ad62000f77565b5b620013bc8582860162001340565b9250506020620013cf8582860162001005565b9150509250929050565b620013e48162000f9c565b82525050565b6000602082019050620014016000830184620013d9565b92915050565b60008115159050919050565b6200141e8162001407565b81146200142a57600080fd5b50565b6000813590506200143e8162001413565b92915050565b600080604083850312156200145e576200145d62000f72565b5b60006200146e8582860162000fca565b925050602062001481858286016200142d565b9150509250929050565b600060208284031215620014a457620014a362000f72565b5b6000620014b48482850162000fca565b91505092915050565b620014c88162001407565b82525050565b6000602082019050620014e56000830184620014bd565b92915050565b600082825260208201905092915050565b7f526571756972656420612076616c6964206576616c7561746f7220617070726f60008201527f7665642062792074686520636f6d70616e790000000000000000000000000000602082015250565b60006200155a603283620014eb565b91506200156782620014fc565b604082019050919050565b600060208201905081810360008301526200158d816200154b565b9050919050565b7f4a7573742074686520696e737572616e636520636f6d70616e792063616e207060008201527f6572666f726d207468697320616374696f6e0000000000000000000000000000602082015250565b6000620015f2603283620014eb565b9150620015ff8262001594565b604082019050919050565b600060208201905081810360008301526200162581620015e3565b9050919050565b7f5468657265206973206e6f7420656e6f75676820616d6f756e7420746f20776960008201527f7468647261770000000000000000000000000000000000000000000000000000602082015250565b60006200168a602683620014eb565b915062001697826200162c565b604082019050919050565b60006020820190508181036000830152620016bd816200167b565b9050919050565b7f546f2072656e6577206120706f6c69637920796f75206d75737420706179206160008201527f207072656d69756d2e0000000000000000000000000000000000000000000000602082015250565b600062001722602983620014eb565b91506200172f82620016c4565b604082019050919050565b60006020820190508181036000830152620017558162001713565b9050919050565b6000815190506200176d8162000fb0565b92915050565b6000602082840312156200178c576200178b62000f72565b5b60006200179c848285016200175c565b91505092915050565b7f4a7573742074686520706f6c696379686f6c646572206f662074686520706f6c60008201527f6963792069732061626c6520746f2072656e65772069742e0000000000000000602082015250565b600062001803603883620014eb565b91506200181082620017a5565b604082019050919050565b600060208201905081810360008301526200183681620017f4565b9050919050565b6000815190506200184e8162000feb565b92915050565b6000602082840312156200186d576200186c62000f72565b5b60006200187d848285016200183d565b91505092915050565b7f496e73756666696369656e742062616c616e636520746f20706179207468652060008201527f636c61696d2e0000000000000000000000000000000000000000000000000000602082015250565b6000620018e4602683620014eb565b9150620018f18262001886565b604082019050919050565b600060208201905081810360008301526200191781620018d5565b9050919050565b600060408201905062001935600083018562001187565b62001944602083018462001187565b9392505050565b7f546f20637265617465206120706f6c69637920796f75206d757374207061792060008201527f61207072656d69756d2e00000000000000000000000000000000000000000000602082015250565b6000620019a9602a83620014eb565b9150620019b6826200194b565b604082019050919050565b60006020820190508181036000830152620019dc816200199a565b9050919050565b600081519050919050565b60005b8381101562001a0e578082015181840152602081019050620019f1565b60008484015250505050565b600062001a2782620019e3565b62001a338185620014eb565b935062001a45818560208601620019ee565b62001a50816200121b565b840191505092915050565b6000608082019050818103600083015262001a77818762001a1a565b905062001a88602083018662001187565b62001a976040830185620013d9565b62001aa6606083018462001187565b9594505050505056fe60806040523480156200001157600080fd5b50604051620028e0380380620028e0833981810160405281019062000037919062000403565b4281116200007c576040517f08c379a00000000000000000000000000000000000000000000000000000000081526004016200007390620004f5565b60405180910390fd5b60008311620000c2576040517f08c379a0000000000000000000000000000000000000000000000000000000008152600401620000b9906200058d565b60405180910390fd5b8360009081620000d39190620007f0565b508260018190555081600260006101000a81548173ffffffffffffffffffffffffffffffffffffffff021916908373ffffffffffffffffffffffffffffffffffffffff16021790555033600360006101000a81548173ffffffffffffffffffffffffffffffffffffffff021916908373ffffffffffffffffffffffffffffffffffffffff16021790555042600581905550806004819055507f2ae68230dd9c1c06842490953a33785a09292650f8c76b1a20b2fbbb214a896c600260009054906101000a900473ffffffffffffffffffffffffffffffffffffffff16604051620001be9190620008e8565b60405180910390a15050505062000905565b6000604051905090565b600080fd5b600080fd5b600080fd5b600080fd5b6000601f19601f8301169050919050565b7f4e487b7100000000000000000000000000000000000000000000000000000000600052604160045260246000fd5b6200023982620001ee565b810181811067ffffffffffffffff821117156200025b576200025a620001ff565b5b80604052505050565b600062000270620001d0565b90506200027e82826200022e565b919050565b600067ffffffffffffffff821115620002a157620002a0620001ff565b5b620002ac82620001ee565b9050602081019050919050565b60005b83811015620002d9578082015181840152602081019050620002bc565b60008484015250505050565b6000620002fc620002f68462000283565b62000264565b9050828152602081018484840111156200031b576200031a620001e9565b5b62000328848285620002b9565b509392505050565b600082601f830112620003485762000347620001e4565b5b81516200035a848260208601620002e5565b91505092915050565b6000819050919050565b620003788162000363565b81146200038457600080fd5b50565b60008151905062000398816200036d565b92915050565b600073ffffffffffffffffffffffffffffffffffffffff82169050919050565b6000620003cb826200039e565b9050919050565b620003dd81620003be565b8114620003e957600080fd5b50565b600081519050620003fd81620003d2565b92915050565b6000806000806080858703121562000420576200041f620001da565b5b600085015167ffffffffffffffff811115620004415762000440620001df565b5b6200044f8782880162000330565b9450506020620004628782880162000387565b93505060406200047587828801620003ec565b9250506060620004888782880162000387565b91505092959194509250565b600082825260208201905092915050565b7f52656e6577616c20646174652068617320746f206265207570636f6d696e6700600082015250565b6000620004dd601f8362000494565b9150620004ea82620004a5565b602082019050919050565b600060208201905081810360008301526200051081620004ce565b9050919050565b7f52657175697265642061207072656d69756d20746f206163746976617465207460008201527f686520706f6c6963790000000000000000000000000000000000000000000000602082015250565b60006200057560298362000494565b9150620005828262000517565b604082019050919050565b60006020820190508181036000830152620005a88162000566565b9050919050565b600081519050919050565b7f4e487b7100000000000000000000000000000000000000000000000000000000600052602260045260246000fd5b600060028204905060018216806200060257607f821691505b602082108103620006185762000617620005ba565b5b50919050565b60008190508160005260206000209050919050565b60006020601f8301049050919050565b600082821b905092915050565b600060088302620006827fffffffffffffffffffffffffffffffffffffffffffffffffffffffffffffffff8262000643565b6200068e868362000643565b95508019841693508086168417925050509392505050565b6000819050919050565b6000620006d1620006cb620006c58462000363565b620006a6565b62000363565b9050919050565b6000819050919050565b620006ed83620006b0565b62000705620006fc82620006d8565b84845462000650565b825550505050565b600090565b6200071c6200070d565b62000729818484620006e2565b505050565b5b8181101562000751576200074560008262000712565b6001810190506200072f565b5050565b601f821115620007a0576200076a816200061e565b620007758462000633565b8101602085101562000785578190505b6200079d620007948562000633565b8301826200072e565b50505b505050565b600082821c905092915050565b6000620007c560001984600802620007a5565b1980831691505092915050565b6000620007e08383620007b2565b9150826002028217905092915050565b620007fb82620005af565b67ffffffffffffffff811115620008175762000816620001ff565b5b620008238254620005e9565b6200083082828562000755565b600060209050601f83116001811462000868576000841562000853578287015190505b6200085f8582620007d2565b865550620008cf565b601f19841662000878866200061e565b60005b82811015620008a2578489015182556001820191506020850194506020810190506200087b565b86831015620008c25784890151620008be601f891682620007b2565b8355505b6001600288020188555050505b505050505050565b620008e281620003be565b82525050565b6000602082019050620008ff6000830184620008d7565b92915050565b611fcb80620009156000396000f3fe608060405234801561001057600080fd5b50600436106100b45760003560e01c806378f305c61161007157806378f305c61461017b5780637fbe658c14610199578063b1356488146101b5578063c9744029146101d3578063f119c463146101f1578063f3563e711461020d576100b4565b80630c4f65bd146100b95780630fa5fd6c146100d75780634ef2cc00146100f35780635aef2447146100fd5780635baa75091461012d57806360847c241461015d575b600080fd5b6100c161022b565b6040516100ce91906112ee565b60405180910390f35b6100f160048036038101906100ec91906115d7565b61033d565b005b6100fb610553565b005b61011760048036038101906101129190611633565b6106c1565b60405161012491906117a8565b60405180910390f35b61014760048036038101906101429190611633565b610912565b60405161015491906117d9565b60405180910390f35b610165610a32565b604051610172919061183e565b60405180910390f35b610183610bac565b60405161019091906117d9565b60405180910390f35b6101b360048036038101906101ae9190611860565b610c9e565b005b6101bd610d95565b6040516101ca91906117d9565b60405180910390f35b6101db610e87565b6040516101e891906117d9565b60405180910390f35b61020b60048036038101906102069190611633565b610f79565b005b61021561104e565b604051610222919061194f565b60405180910390f35b6000600360009054906101000a900473ffffffffffffffffffffffffffffffffffffffff1673ffffffffffffffffffffffffffffffffffffffff163373ffffffffffffffffffffffffffffffffffffffff1614806102d65750600260009054906101000a900473ffffffffffffffffffffffffffffffffffffffff1673ffffffffffffffffffffffffffffffffffffffff163373ffffffffffffffffffffffffffffffffffffffff16145b610315576040517f08c379a000000000000000000000000000000000000000000000000000000000815260040161030c90611a09565b60405180910390fd5b600260009054906101000a900473ffffffffffffffffffffffffffffffffffffffff16905090565b600260009054906101000a900473ffffffffffffffffffffffffffffffffffffffff1673ffffffffffffffffffffffffffffffffffffffff163373ffffffffffffffffffffffffffffffffffffffff16146103cd576040517f08c379a00000000000000000000000000000000000000000000000000000000081526004016103c490611a9b565b60405180910390fd5b4260045411610411576040517f08c379a000000000000000000000000000000000000000000000000000000000815260040161040890611b07565b60405180910390fd5b60008190508060066000858152602001908152602001600020600082015181600001908161043f9190611d33565b5060208201518160010160006101000a81548173ffffffffffffffffffffffffffffffffffffffff021916908373ffffffffffffffffffffffffffffffffffffffff160217905550604082015181600201556060820151816003015560808201518160040160006101000a81548160ff02191690831515021790555060a0820151816005015560c08201518160060160006101000a81548160ff02191690831515021790555090505060006006600085815260200190815260200160002060060160006101000a81548160ff0219169083151502179055507f638e2a6aeee887a0d14ed55e72f023c4cc608d74f3fc9d7dd46fa6355fd0ea498360405161054691906117d9565b60405180910390a1505050565b600360009054906101000a900473ffffffffffffffffffffffffffffffffffffffff1673ffffffffffffffffffffffffffffffffffffffff163373ffffffffffffffffffffffffffffffffffffffff1614806105fc5750600260009054906101000a900473ffffffffffffffffffffffffffffffffffffffff1673ffffffffffffffffffffffffffffffffffffffff163373ffffffffffffffffffffffffffffffffffffffff16145b61063b576040517f08c379a000000000000000000000000000000000000000000000000000000000815260040161063290611a09565b60405180910390fd5b426004541161067f576040517f08c379a000000000000000000000000000000000000000000000000000000000815260040161067690611b07565b60405180910390fd5b426004819055507f5af4c37852e46c039a8fb4eedfcc916d59262430de08a63b8976b07efb8141ef6004546040516106b791906117d9565b60405180910390a1565b6106c9611256565b600360009054906101000a900473ffffffffffffffffffffffffffffffffffffffff1673ffffffffffffffffffffffffffffffffffffffff163373ffffffffffffffffffffffffffffffffffffffff1614806107725750600260009054906101000a900473ffffffffffffffffffffffffffffffffffffffff1673ffffffffffffffffffffffffffffffffffffffff163373ffffffffffffffffffffffffffffffffffffffff16145b6107b1576040517f08c379a00000000000000000000000000000000000000000000000000000000081526004016107a890611a09565b60405180910390fd5b600660008381526020019081526020016000206040518060e00160405290816000820180546107df90611b56565b80601f016020809104026020016040519081016040528092919081815260200182805461080b90611b56565b80156108585780601f1061082d57610100808354040283529160200191610858565b820191906000526020600020905b81548152906001019060200180831161083b57829003601f168201915b505050505081526020016001820160009054906101000a900473ffffffffffffffffffffffffffffffffffffffff1673ffffffffffffffffffffffffffffffffffffffff1673ffffffffffffffffffffffffffffffffffffffff16815260200160028201548152602001600382015481526020016004820160009054906101000a900460ff16151515158152602001600582015481526020016006820160009054906101000a900460ff1615151515815250509050919050565b6000600360009054906101000a900473ffffffffffffffffffffffffffffffffffffffff1673ffffffffffffffffffffffffffffffffffffffff163373ffffffffffffffffffffffffffffffffffffffff16146109a4576040517f08c379a000000000000000000000000000000000000000000000000000000000815260040161099b90611e77565b60405180910390fd5b60045482116109e8576040517f08c379a00000000000000000000000000000000000000000000000000000000081526004016109df90611f09565b60405180910390fd5b816004819055507f5d7ac495f70da95795bf1e013229e085d2330c3d85625768e8d8147cde21584c600454604051610a2091906117d9565b60405180910390a16004549050919050565b6060600360009054906101000a900473ffffffffffffffffffffffffffffffffffffffff1673ffffffffffffffffffffffffffffffffffffffff163373ffffffffffffffffffffffffffffffffffffffff161480610add5750600260009054906101000a900473ffffffffffffffffffffffffffffffffffffffff1673ffffffffffffffffffffffffffffffffffffffff163373ffffffffffffffffffffffffffffffffffffffff16145b610b1c576040517f08c379a0000000000000000000000000000000000000000000000000000000008152600401610b1390611a09565b60405180910390fd5b60008054610b2990611b56565b80601f0160208091040260200160405190810160405280929190818152602001828054610b5590611b56565b8015610ba25780601f10610b7757610100808354040283529160200191610ba2565b820191906000526020600020905b815481529060010190602001808311610b8557829003601f168201915b5050505050905090565b6000600360009054906101000a900473ffffffffffffffffffffffffffffffffffffffff1673ffffffffffffffffffffffffffffffffffffffff163373ffffffffffffffffffffffffffffffffffffffff161480610c575750600260009054906101000a900473ffffffffffffffffffffffffffffffffffffffff1673ffffffffffffffffffffffffffffffffffffffff163373ffffffffffffffffffffffffffffffffffffffff16145b610c96576040517f08c379a0000000000000000000000000000000000000000000000000000000008152600401610c8d90611a09565b60405180910390fd5b600554905090565b600360009054906101000a900473ffffffffffffffffffffffffffffffffffffffff1673ffffffffffffffffffffffffffffffffffffffff163373ffffffffffffffffffffffffffffffffffffffff1614610d2e576040517f08c379a0000000000000000000000000000000000000000000000000000000008152600401610d2590611e77565b60405180910390fd5b6000600660008481526020019081526020016000209050610d5083600161118e565b8181600301819055507fd2d0ed0cccc8615643ade1eff3929a29ed8df75ebca85a3996e311c9b69e228983604051610d8891906117d9565b60405180910390a1505050565b6000600360009054906101000a900473ffffffffffffffffffffffffffffffffffffffff1673ffffffffffffffffffffffffffffffffffffffff163373ffffffffffffffffffffffffffffffffffffffff161480610e405750600260009054906101000a900473ffffffffffffffffffffffffffffffffffffffff1673ffffffffffffffffffffffffffffffffffffffff163373ffffffffffffffffffffffffffffffffffffffff16145b610e7f576040517f08c379a0000000000000000000000000000000000000000000000000000000008152600401610e7690611a09565b60405180910390fd5b600454905090565b6000600360009054906101000a900473ffffffffffffffffffffffffffffffffffffffff1673ffffffffffffffffffffffffffffffffffffffff163373ffffffffffffffffffffffffffffffffffffffff161480610f325750600260009054906101000a900473ffffffffffffffffffffffffffffffffffffffff1673ffffffffffffffffffffffffffffffffffffffff163373ffffffffffffffffffffffffffffffffffffffff16145b610f71576040517f08c379a0000000000000000000000000000000000000000000000000000000008152600401610f6890611a09565b60405180910390fd5b600154905090565b600360009054906101000a900473ffffffffffffffffffffffffffffffffffffffff1673ffffffffffffffffffffffffffffffffffffffff163373ffffffffffffffffffffffffffffffffffffffff1614611009576040517f08c379a000000000000000000000000000000000000000000000000000000000815260040161100090611e77565b60405180910390fd5b61101481600061118e565b7f02d319d3445ae98d88bc3ebef5c58a74cdf7fc53e3191dadfbf75745ae49cd7d8160405161104391906117d9565b60405180910390a150565b6060600360009054906101000a900473ffffffffffffffffffffffffffffffffffffffff1673ffffffffffffffffffffffffffffffffffffffff163373ffffffffffffffffffffffffffffffffffffffff1614806110f95750600260009054906101000a900473ffffffffffffffffffffffffffffffffffffffff1673ffffffffffffffffffffffffffffffffffffffff163373ffffffffffffffffffffffffffffffffffffffff16145b611138576040517f08c379a000000000000000000000000000000000000000000000000000000000815260040161112f90611a09565b60405180910390fd5b600780548060200260200160405190810160405280929190818152602001828054801561118457602002820191906000526020600020905b815481526020019060010190808311611170575b5050505050905090565b6000600660008481526020019081526020016000209050600015158160060160009054906101000a900460ff161515146111fd576040517f08c379a00000000000000000000000000000000000000000000000000000000081526004016111f490611f75565b60405180910390fd5b42816005018190555060016006600085815260200190815260200160002060060160006101000a81548160ff021916908315150217905550818160040160006101000a81548160ff021916908315150217905550505050565b6040518060e0016040528060608152602001600073ffffffffffffffffffffffffffffffffffffffff1681526020016000815260200160008152602001600015158152602001600081526020016000151581525090565b600073ffffffffffffffffffffffffffffffffffffffff82169050919050565b60006112d8826112ad565b9050919050565b6112e8816112cd565b82525050565b600060208201905061130360008301846112df565b92915050565b6000604051905090565b600080fd5b600080fd5b6000819050919050565b6113308161131d565b811461133b57600080fd5b50565b60008135905061134d81611327565b92915050565b600080fd5b6000601f19601f8301169050919050565b7f4e487b7100000000000000000000000000000000000000000000000000000000600052604160045260246000fd5b6113a182611358565b810181811067ffffffffffffffff821117156113c0576113bf611369565b5b80604052505050565b60006113d3611309565b90506113df8282611398565b919050565b600080fd5b600080fd5b600080fd5b600067ffffffffffffffff82111561140e5761140d611369565b5b61141782611358565b9050602081019050919050565b82818337600083830152505050565b6000611446611441846113f3565b6113c9565b905082815260208101848484011115611462576114616113ee565b5b61146d848285611424565b509392505050565b600082601f83011261148a576114896113e9565b5b813561149a848260208601611433565b91505092915050565b6114ac816112cd565b81146114b757600080fd5b50565b6000813590506114c9816114a3565b92915050565b60008115159050919050565b6114e4816114cf565b81146114ef57600080fd5b50565b600081359050611501816114db565b92915050565b600060e0828403121561151d5761151c611353565b5b61152760e06113c9565b9050600082013567ffffffffffffffff811115611547576115466113e4565b5b61155384828501611475565b6000830152506020611567848285016114ba565b602083015250604061157b8482850161133e565b604083015250606061158f8482850161133e565b60608301525060806115a3848285016114f2565b60808301525060a06115b78482850161133e565b60a08301525060c06115cb848285016114f2565b60c08301525092915050565b600080604083850312156115ee576115ed611313565b5b60006115fc8582860161133e565b925050602083013567ffffffffffffffff81111561161d5761161c611318565b5b61162985828601611507565b9150509250929050565b60006020828403121561164957611648611313565b5b60006116578482850161133e565b91505092915050565b600081519050919050565b600082825260208201905092915050565b60005b8381101561169a57808201518184015260208101905061167f565b60008484015250505050565b60006116b182611660565b6116bb818561166b565b93506116cb81856020860161167c565b6116d481611358565b840191505092915050565b6116e8816112cd565b82525050565b6116f78161131d565b82525050565b611706816114cf565b82525050565b600060e083016000830151848203600086015261172982826116a6565b915050602083015161173e60208601826116df565b50604083015161175160408601826116ee565b50606083015161176460608601826116ee565b50608083015161177760808601826116fd565b5060a083015161178a60a08601826116ee565b5060c083015161179d60c08601826116fd565b508091505092915050565b600060208201905081810360008301526117c2818461170c565b905092915050565b6117d38161131d565b82525050565b60006020820190506117ee60008301846117ca565b92915050565b600082825260208201905092915050565b600061181082611660565b61181a81856117f4565b935061182a81856020860161167c565b61183381611358565b840191505092915050565b600060208201905081810360008301526118588184611805565b905092915050565b6000806040838503121561187757611876611313565b5b60006118858582860161133e565b92505060206118968582860161133e565b9150509250929050565b600081519050919050565b600082825260208201905092915050565b6000819050602082019050919050565b60006118d883836116ee565b60208301905092915050565b6000602082019050919050565b60006118fc826118a0565b61190681856118ab565b9350611911836118bc565b8060005b8381101561194257815161192988826118cc565b9750611934836118e4565b925050600181019050611915565b5085935050505092915050565b6000602082019050818103600083015261196981846118f1565b905092915050565b7f4a7573742074686520706f6c696379686f6c646572206f722074686520696e7360008201527f7572616e636520636f6d70616e792063616e20706572666f726d20746869732060208201527f616374696f6e0000000000000000000000000000000000000000000000000000604082015250565b60006119f36046836117f4565b91506119fe82611971565b606082019050919050565b60006020820190508181036000830152611a22816119e6565b9050919050565b7f4a7573742074686520706f6c696379686f6c6465722063616e20706572666f7260008201527f6d207468697320616374696f6e00000000000000000000000000000000000000602082015250565b6000611a85602d836117f4565b9150611a9082611a29565b604082019050919050565b60006020820190508181036000830152611ab481611a78565b9050919050565b7f506f6c696379206973206e6f7420616374697665000000000000000000000000600082015250565b6000611af16014836117f4565b9150611afc82611abb565b602082019050919050565b60006020820190508181036000830152611b2081611ae4565b9050919050565b7f4e487b7100000000000000000000000000000000000000000000000000000000600052602260045260246000fd5b60006002820490506001821680611b6e57607f821691505b602082108103611b8157611b80611b27565b5b50919050565b60008190508160005260206000209050919050565b60006020601f8301049050919050565b600082821b905092915050565b600060088302611be97fffffffffffffffffffffffffffffffffffffffffffffffffffffffffffffffff82611bac565b611bf38683611bac565b95508019841693508086168417925050509392505050565b6000819050919050565b6000611c30611c2b611c268461131d565b611c0b565b61131d565b9050919050565b6000819050919050565b611c4a83611c15565b611c5e611c5682611c37565b848454611bb9565b825550505050565b600090565b611c73611c66565b611c7e818484611c41565b505050565b5b81811015611ca257611c97600082611c6b565b600181019050611c84565b5050565b601f821115611ce757611cb881611b87565b611cc184611b9c565b81016020851015611cd0578190505b611ce4611cdc85611b9c565b830182611c83565b50505b505050565b600082821c905092915050565b6000611d0a60001984600802611cec565b1980831691505092915050565b6000611d238383611cf9565b9150826002028217905092915050565b611d3c82611660565b67ffffffffffffffff811115611d5557611d54611369565b5b611d5f8254611b56565b611d6a828285611ca6565b600060209050601f831160018114611d9d5760008415611d8b578287015190505b611d958582611d17565b865550611dfd565b601f198416611dab86611b87565b60005b82811015611dd357848901518255600182019150602085019450602081019050611dae565b86831015611df05784890151611dec601f891682611cf9565b8355505b6001600288020188555050505b505050505050565b7f4a7573742074686520696e737572616e636520636f6d70616e792063616e207060008201527f6572666f726d207468697320616374696f6e0000000000000000000000000000602082015250565b6000611e616032836117f4565b9150611e6c82611e05565b604082019050919050565b60006020820190508181036000830152611e9081611e54565b9050919050565b7f4e657720656e6420646174652068617320746f2062652061667465722074686560008201527f2063757272656e74206f6e650000000000000000000000000000000000000000602082015250565b6000611ef3602c836117f4565b9150611efe82611e97565b604082019050919050565b60006020820190508181036000830152611f2281611ee6565b9050919050565b7f436c61696d20697320616c7265616479207265736f6c76656400000000000000600082015250565b6000611f5f6019836117f4565b9150611f6a82611f29565b602082019050919050565b60006020820190508181036000830152611f8e81611f52565b905091905056fea2646970667358221220e0b545b662b19bd76d43f1cea9248134e0a68de52ec2004eeff337f913e643ed64736f6c63430008130033a264697066735822122059fb50ec8b1e785dd77887cecda33b2e120f461785e8ab934a624d8e7fdc5ea064736f6c63430008130033",
  "linkReferences": {},
  "deployedLinkReferences": {}
}