{
  "_format": "hh-sol-artifact-1",
  "contractName": "Factory",
  "sourceName": "contracts/Factory.sol",
  "abi": [
    {
      "inputs": [],
      "stateMutability": "payable",
      "type": "constructor"
    },
    {
      "anonymous": false,
      "inputs": [
        {
          "indexed": false,
          "internalType": "uint256",
          "name": "amount",
          "type": "uint256"
        }
      ],
      "name": "BudgetAdded",
      "type": "event"
    },
    {
      "anonymous": false,
      "inputs": [
        {
          "indexed": false,
          "internalType": "uint256",
          "name": "amount",
          "type": "uint256"
        }
      ],
      "name": "BudgetWithdrawal",
      "type": "event"
    },
    {
      "anonymous": false,
      "inputs": [
        {
          "indexed": false,
          "internalType": "address",
          "name": "policyAddress",
          "type": "address"
        },
        {
          "indexed": false,
          "internalType": "uint256",
          "name": "claimId",
          "type": "uint256"
        },
        {
          "indexed": false,
          "internalType": "uint256",
          "name": "claimExpenses",
          "type": "uint256"
        }
      ],
      "name": "ClaimApproved",
      "type": "event"
    },
    {
      "anonymous": false,
      "inputs": [
        {
          "indexed": false,
          "internalType": "address",
          "name": "policyAddress",
          "type": "address"
        },
        {
          "indexed": false,
          "internalType": "uint256",
          "name": "claimId",
          "type": "uint256"
        }
      ],
      "name": "ClaimDeclined",
      "type": "event"
    },
    {
      "anonymous": false,
      "inputs": [
        {
          "indexed": false,
          "internalType": "address",
          "name": "policy",
          "type": "address"
        },
        {
          "indexed": false,
          "internalType": "uint256",
          "name": "when",
          "type": "uint256"
        },
        {
          "indexed": false,
          "internalType": "uint256",
          "name": "amount",
          "type": "uint256"
        }
      ],
      "name": "PolicyCanceled",
      "type": "event"
    },
    {
      "anonymous": false,
      "inputs": [
        {
          "indexed": false,
          "internalType": "address",
          "name": "owner",
          "type": "address"
        },
        {
          "indexed": false,
          "internalType": "uint256",
          "name": "when",
          "type": "uint256"
        }
      ],
      "name": "PolicyCreated",
      "type": "event"
    },
    {
      "anonymous": false,
      "inputs": [
        {
          "indexed": false,
          "internalType": "address",
          "name": "policy",
          "type": "address"
        },
        {
          "indexed": false,
          "internalType": "uint256",
          "name": "newDate",
          "type": "uint256"
        },
        {
          "indexed": false,
          "internalType": "uint256",
          "name": "renewalAmount",
          "type": "uint256"
        }
      ],
      "name": "PolicyRenewal",
      "type": "event"
    },
    {
      "inputs": [],
      "name": "addBudget",
      "outputs": [
        {
          "internalType": "uint256",
          "name": "",
          "type": "uint256"
        }
      ],
      "stateMutability": "payable",
      "type": "function"
    },
    {
      "inputs": [
        {
          "internalType": "address",
          "name": "newAddress",
          "type": "address"
        }
      ],
      "name": "addEvaluator",
      "outputs": [],
      "stateMutability": "nonpayable",
      "type": "function"
    },
    {
      "inputs": [
        {
          "internalType": "address",
          "name": "policyAddress",
          "type": "address"
        },
        {
          "internalType": "uint256",
          "name": "claimId",
          "type": "uint256"
        },
        {
          "internalType": "uint256",
          "name": "claimExpenses",
          "type": "uint256"
        }
      ],
      "name": "approveClaim",
      "outputs": [],
      "stateMutability": "nonpayable",
      "type": "function"
    },
    {
      "inputs": [
        {
          "internalType": "address",
          "name": "addressPolicy",
          "type": "address"
        }
      ],
      "name": "cancelPolicy",
      "outputs": [],
      "stateMutability": "nonpayable",
      "type": "function"
    },
    {
      "inputs": [
        {
          "internalType": "address",
          "name": "evaluator",
          "type": "address"
        },
        {
          "internalType": "bool",
          "name": "value",
          "type": "bool"
        }
      ],
      "name": "changeEvaluatorValue",
      "outputs": [],
      "stateMutability": "nonpayable",
      "type": "function"
    },
    {
      "inputs": [
        {
          "internalType": "string",
          "name": "proposalData",
          "type": "string"
        },
        {
          "internalType": "uint256",
          "name": "endDate",
          "type": "uint256"
        }
      ],
      "name": "createPolicy",
      "outputs": [
        {
          "internalType": "address",
          "name": "",
          "type": "address"
        }
      ],
      "stateMutability": "payable",
      "type": "function"
    },
    {
      "inputs": [
        {
          "internalType": "address",
          "name": "policyAddress",
          "type": "address"
        },
        {
          "internalType": "uint256",
          "name": "claimId",
          "type": "uint256"
        }
      ],
      "name": "declineClaim",
      "outputs": [],
      "stateMutability": "nonpayable",
      "type": "function"
    },
    {
      "inputs": [],
      "name": "getPolicies",
      "outputs": [
        {
          "internalType": "address[]",
          "name": "",
          "type": "address[]"
        }
      ],
      "stateMutability": "view",
      "type": "function"
    },
    {
      "inputs": [],
      "name": "insuranceAddress",
      "outputs": [
        {
          "internalType": "address payable",
          "name": "",
          "type": "address"
        }
      ],
      "stateMutability": "view",
      "type": "function"
    },
    {
      "inputs": [
        {
          "internalType": "address",
          "name": "checkAddress",
          "type": "address"
        }
      ],
      "name": "isClaimEvaluatorKnown",
      "outputs": [
        {
          "internalType": "bool",
          "name": "",
          "type": "bool"
        }
      ],
      "stateMutability": "view",
      "type": "function"
    },
    {
      "inputs": [
        {
          "internalType": "address",
          "name": "policyAddress",
          "type": "address"
        },
        {
          "internalType": "uint256",
          "name": "newEndDate",
          "type": "uint256"
        },
        {
          "internalType": "uint256",
          "name": "renewalAmount",
          "type": "uint256"
        }
      ],
      "name": "renewPolicy",
      "outputs": [
        {
          "internalType": "uint256",
          "name": "",
          "type": "uint256"
        }
      ],
      "stateMutability": "payable",
      "type": "function"
    },
    {
      "inputs": [
        {
          "internalType": "uint256",
          "name": "amount",
          "type": "uint256"
        }
      ],
      "name": "withdrawBudget",
      "outputs": [
        {
          "internalType": "uint256",
          "name": "",
          "type": "uint256"
        }
      ],
      "stateMutability": "nonpayable",
      "type": "function"
    }
  ],
  "bytecode": "0x6080604052670ddd2935029d800060015560015434101562000058576040517f08c379a00000000000000000000000000000000000000000000000000000000081526004016200004f906200014b565b60405180910390fd5b336000806101000a81548173ffffffffffffffffffffffffffffffffffffffff021916908373ffffffffffffffffffffffffffffffffffffffff1602179055506200016d565b600082825260208201905092915050565b7f4d696e696d756d20627564676574206973206e6f74206163686965766564207460008201527f6f20737461727420616e20496e737572616e636520536d61727420436f6e747260208201527f6163740000000000000000000000000000000000000000000000000000000000604082015250565b6000620001336043836200009e565b91506200014082620000af565b606082019050919050565b60006020820190508181036000830152620001668162000124565b9050919050565b614f13806200017d6000396000f3fe608060405260043610620000b65760003560e01c80639278a651116200006d5780639278a65114620001e55780639c8bc7c814620002135780639f1d8c471462000249578063b7fb322f1462000277578063ba3c69b614620002bb578063eb26e5f014620002e957620000b6565b80631b3d1b9714620000bb5780632401273c14620000e95780632cc81a6114620001195780633b04f6f1146200015d578063473d3798146200018d578063687792db14620001c3575b600080fd5b348015620000c857600080fd5b50620000e76004803603810190620000e19190620015c9565b62000317565b005b348015620000f657600080fd5b50620001016200046f565b60405162000110919062001635565b60405180910390f35b3480156200012657600080fd5b506200014560048036038101906200013f919062001652565b62000493565b60405162000154919062001695565b60405180910390f35b3480156200016a57600080fd5b506200017562000615565b60405162000184919062001780565b60405180910390f35b620001ab6004803603810190620001a59190620017a4565b620006e2565b604051620001ba919062001695565b60405180910390f35b620001cd620008da565b604051620001dc919062001695565b60405180910390f35b348015620001f257600080fd5b506200021160048036038101906200020b9190620017a4565b620009ad565b005b6200023160048036038101906200022b919062001962565b62000c0e565b604051620002409190620019d9565b60405180910390f35b3480156200025657600080fd5b506200027560048036038101906200026f919062001a33565b62000d89565b005b3480156200028457600080fd5b50620002a360048036038101906200029d919062001a7a565b62000e75565b604051620002b2919062001abd565b60405180910390f35b348015620002c857600080fd5b50620002e76004803603810190620002e1919062001a7a565b62000f5d565b005b348015620002f657600080fd5b506200031560048036038101906200030f919062001a7a565b6200141b565b005b60008054906101000a900473ffffffffffffffffffffffffffffffffffffffff1673ffffffffffffffffffffffffffffffffffffffff163373ffffffffffffffffffffffffffffffffffffffff161480620003795750620003783362000e75565b5b620003bb576040517f08c379a0000000000000000000000000000000000000000000000000000000008152600401620003b29062001b61565b60405180910390fd5b60008290507fa5bad0e7bd988d47d3737dc3ced48e7c3f3f393b544aba2f57d464ac34e458478383604051620003f392919062001b83565b60405180910390a18073ffffffffffffffffffffffffffffffffffffffff1663f119c463836040518263ffffffff1660e01b815260040162000436919062001695565b600060405180830381600087803b1580156200045157600080fd5b505af115801562000466573d6000803e3d6000fd5b50505050505050565b60008054906101000a900473ffffffffffffffffffffffffffffffffffffffff1681565b60008060009054906101000a900473ffffffffffffffffffffffffffffffffffffffff1673ffffffffffffffffffffffffffffffffffffffff163373ffffffffffffffffffffffffffffffffffffffff161462000527576040517f08c379a00000000000000000000000000000000000000000000000000000000081526004016200051e9062001c26565b60405180910390fd5b4782106200056c576040517f08c379a0000000000000000000000000000000000000000000000000000000008152600401620005639062001cbe565b60405180910390fd5b60008054906101000a900473ffffffffffffffffffffffffffffffffffffffff1673ffffffffffffffffffffffffffffffffffffffff166108fc839081150290604051600060405180830381858888f19350505050158015620005d3573d6000803e3d6000fd5b507f5ba63eb27f6eef09ab65d8b470327a28d309e92d8bc48c7e0bd3e49a1efbfeff8260405162000605919062001695565b60405180910390a1479050919050565b6060600260003373ffffffffffffffffffffffffffffffffffffffff1673ffffffffffffffffffffffffffffffffffffffff168152602001908152602001600020805480602002602001604051908101604052809291908181526020018280548015620006d857602002820191906000526020600020905b8160009054906101000a900473ffffffffffffffffffffffffffffffffffffffff1673ffffffffffffffffffffffffffffffffffffffff16815260200190600101908083116200068d575b5050505050905090565b600081341162000729576040517f08c379a0000000000000000000000000000000000000000000000000000000008152600401620007209062001d56565b60405180910390fd5b60008490508073ffffffffffffffffffffffffffffffffffffffff16630c4f65bd6040518163ffffffff1660e01b8152600401602060405180830381865afa1580156200077a573d6000803e3d6000fd5b505050506040513d601f19601f82011682018060405250810190620007a0919062001d8f565b73ffffffffffffffffffffffffffffffffffffffff163373ffffffffffffffffffffffffffffffffffffffff161462000810576040517f08c379a0000000000000000000000000000000000000000000000000000000008152600401620008079062001e37565b60405180910390fd5b7fd628100750f9af96eca0a7752438e248e30fef11d9cd4d24194601a733a8aa26858585604051620008459392919062001e59565b60405180910390a18073ffffffffffffffffffffffffffffffffffffffff1663c475abff85346040518363ffffffff1660e01b81526004016200088a92919062001e96565b6020604051808303816000875af1158015620008aa573d6000803e3d6000fd5b505050506040513d601f19601f82011682018060405250810190620008d0919062001eda565b9150509392505050565b60008060009054906101000a900473ffffffffffffffffffffffffffffffffffffffff1673ffffffffffffffffffffffffffffffffffffffff163373ffffffffffffffffffffffffffffffffffffffff16146200096e576040517f08c379a0000000000000000000000000000000000000000000000000000000008152600401620009659062001c26565b60405180910390fd5b7fbd860b22ad534f6b3479d5d8ab3079ecca22a704b6853f0c273e0be55f4456af346040516200099f919062001695565b60405180910390a147905090565b60008054906101000a900473ffffffffffffffffffffffffffffffffffffffff1673ffffffffffffffffffffffffffffffffffffffff163373ffffffffffffffffffffffffffffffffffffffff16148062000a0f575062000a0e3362000e75565b5b62000a51576040517f08c379a000000000000000000000000000000000000000000000000000000000815260040162000a489062001b61565b60405180910390fd5b47811062000a96576040517f08c379a000000000000000000000000000000000000000000000000000000000815260040162000a8d9062001f82565b60405180910390fd5b60008390508073ffffffffffffffffffffffffffffffffffffffff16637fbe658c84846040518363ffffffff1660e01b815260040162000ad892919062001e96565b600060405180830381600087803b15801562000af357600080fd5b505af115801562000b08573d6000803e3d6000fd5b5050505060008173ffffffffffffffffffffffffffffffffffffffff16630c4f65bd6040518163ffffffff1660e01b8152600401602060405180830381865afa15801562000b5a573d6000803e3d6000fd5b505050506040513d601f19601f8201168201806040525081019062000b80919062001d8f565b90507f05ca75b0d90f1dd046ad3b8c1ec4a461042c3d33518b9b67d9feafc7d8d3c6cf85858560405162000bb79392919062001e59565b60405180910390a18073ffffffffffffffffffffffffffffffffffffffff166108fc849081150290604051600060405180830381858888f1935050505015801562000c06573d6000803e3d6000fd5b505050505050565b600080341162000c55576040517f08c379a000000000000000000000000000000000000000000000000000000000815260040162000c4c906200201a565b60405180910390fd5b60008334338560405162000c699062001507565b62000c789493929190620020b4565b604051809103906000f08015801562000c95573d6000803e3d6000fd5b50905060008190506000339050600260008273ffffffffffffffffffffffffffffffffffffffff1673ffffffffffffffffffffffffffffffffffffffff168152602001908152602001600020829080600181540180825580915050600190039060005260206000200160009091909190916101000a81548173ffffffffffffffffffffffffffffffffffffffff021916908373ffffffffffffffffffffffffffffffffffffffff1602179055507f0c82a59457f321d45ec38f6aaf95786bb68907c4273ed492d000832b5951c486334260405162000d7592919062001b83565b60405180910390a181935050505092915050565b60008054906101000a900473ffffffffffffffffffffffffffffffffffffffff1673ffffffffffffffffffffffffffffffffffffffff163373ffffffffffffffffffffffffffffffffffffffff161462000e1a576040517f08c379a000000000000000000000000000000000000000000000000000000000815260040162000e119062001c26565b60405180910390fd5b80600360008473ffffffffffffffffffffffffffffffffffffffff1673ffffffffffffffffffffffffffffffffffffffff16815260200190815260200160002060006101000a81548160ff0219169083151502179055505050565b60008060009054906101000a900473ffffffffffffffffffffffffffffffffffffffff1673ffffffffffffffffffffffffffffffffffffffff163373ffffffffffffffffffffffffffffffffffffffff161462000f09576040517f08c379a000000000000000000000000000000000000000000000000000000000815260040162000f009062001c26565b60405180910390fd5b600360008373ffffffffffffffffffffffffffffffffffffffff1673ffffffffffffffffffffffffffffffffffffffff16815260200190815260200160002060009054906101000a900460ff169050919050565b600081905060008173ffffffffffffffffffffffffffffffffffffffff16630c4f65bd6040518163ffffffff1660e01b8152600401602060405180830381865afa15801562000fb0573d6000803e3d6000fd5b505050506040513d601f19601f8201168201806040525081019062000fd6919062001d8f565b90508073ffffffffffffffffffffffffffffffffffffffff163373ffffffffffffffffffffffffffffffffffffffff1614806200105e575060008054906101000a900473ffffffffffffffffffffffffffffffffffffffff1673ffffffffffffffffffffffffffffffffffffffff163373ffffffffffffffffffffffffffffffffffffffff16145b620010a0576040517f08c379a000000000000000000000000000000000000000000000000000000000815260040162001097906200217e565b60405180910390fd5b8173ffffffffffffffffffffffffffffffffffffffff16634ef2cc006040518163ffffffff1660e01b8152600401600060405180830381600087803b158015620010e957600080fd5b505af1158015620010fe573d6000803e3d6000fd5b5050505060008273ffffffffffffffffffffffffffffffffffffffff1663c97440296040518163ffffffff1660e01b8152600401602060405180830381865afa15801562001150573d6000803e3d6000fd5b505050506040513d601f19601f8201168201806040525081019062001176919062001eda565b905060008373ffffffffffffffffffffffffffffffffffffffff166378f305c66040518163ffffffff1660e01b8152600401602060405180830381865afa158015620011c6573d6000803e3d6000fd5b505050506040513d601f19601f82011682018060405250810190620011ec919062001eda565b905060008473ffffffffffffffffffffffffffffffffffffffff1663f11b5e256040518163ffffffff1660e01b8152600401602060405180830381865afa1580156200123c573d6000803e3d6000fd5b505050506040513d601f19601f8201168201806040525081019062001262919062001eda565b905060008573ffffffffffffffffffffffffffffffffffffffff1663b13564886040518163ffffffff1660e01b8152600401602060405180830381865afa158015620012b2573d6000803e3d6000fd5b505050506040513d601f19601f82011682018060405250810190620012d8919062001eda565b905060008183620012ea9190620021cf565b905060008484620012fc9190620021cf565b90506000816064846200131091906200220a565b6200131c919062002284565b9050600088905060006064838a6200133591906200220a565b62001341919062002284565b905047811062001388576040517f08c379a00000000000000000000000000000000000000000000000000000000081526004016200137f9062002332565b60405180910390fd5b8173ffffffffffffffffffffffffffffffffffffffff166108fc829081150290604051600060405180830381858888f19350505050158015620013cf573d6000803e3d6000fd5b507fd0a1c7204c966010f119040885b9108d38913c160777b296ee260184cf51b75e8c8783604051620014059392919062001e59565b60405180910390a1505050505050505050505050565b60008054906101000a900473ffffffffffffffffffffffffffffffffffffffff1673ffffffffffffffffffffffffffffffffffffffff163373ffffffffffffffffffffffffffffffffffffffff1614620014ac576040517f08c379a0000000000000000000000000000000000000000000000000000000008152600401620014a39062001c26565b60405180910390fd5b6001600360008373ffffffffffffffffffffffffffffffffffffffff1673ffffffffffffffffffffffffffffffffffffffff16815260200190815260200160002060006101000a81548160ff02191690831515021790555050565b612b89806200235583390190565b6000604051905090565b600080fd5b600080fd5b600073ffffffffffffffffffffffffffffffffffffffff82169050919050565b6000620015568262001529565b9050919050565b620015688162001549565b81146200157457600080fd5b50565b60008135905062001588816200155d565b92915050565b6000819050919050565b620015a3816200158e565b8114620015af57600080fd5b50565b600081359050620015c38162001598565b92915050565b60008060408385031215620015e357620015e26200151f565b5b6000620015f38582860162001577565b92505060206200160685828601620015b2565b9150509250929050565b60006200161d8262001529565b9050919050565b6200162f8162001610565b82525050565b60006020820190506200164c600083018462001624565b92915050565b6000602082840312156200166b576200166a6200151f565b5b60006200167b84828501620015b2565b91505092915050565b6200168f816200158e565b82525050565b6000602082019050620016ac600083018462001684565b92915050565b600081519050919050565b600082825260208201905092915050565b6000819050602082019050919050565b620016e98162001549565b82525050565b6000620016fd8383620016de565b60208301905092915050565b6000602082019050919050565b60006200172382620016b2565b6200172f8185620016bd565b93506200173c83620016ce565b8060005b8381101562001773578151620017578882620016ef565b9750620017648362001709565b92505060018101905062001740565b5085935050505092915050565b600060208201905081810360008301526200179c818462001716565b905092915050565b600080600060608486031215620017c057620017bf6200151f565b5b6000620017d08682870162001577565b9350506020620017e386828701620015b2565b9250506040620017f686828701620015b2565b9150509250925092565b600080fd5b600080fd5b6000601f19601f8301169050919050565b7f4e487b7100000000000000000000000000000000000000000000000000000000600052604160045260246000fd5b62001855826200180a565b810181811067ffffffffffffffff821117156200187757620018766200181b565b5b80604052505050565b60006200188c62001515565b90506200189a82826200184a565b919050565b600067ffffffffffffffff821115620018bd57620018bc6200181b565b5b620018c8826200180a565b9050602081019050919050565b82818337600083830152505050565b6000620018fb620018f5846200189f565b62001880565b9050828152602081018484840111156200191a576200191962001805565b5b62001927848285620018d5565b509392505050565b600082601f83011262001947576200194662001800565b5b813562001959848260208601620018e4565b91505092915050565b600080604083850312156200197c576200197b6200151f565b5b600083013567ffffffffffffffff8111156200199d576200199c62001524565b5b620019ab858286016200192f565b9250506020620019be85828601620015b2565b9150509250929050565b620019d38162001549565b82525050565b6000602082019050620019f06000830184620019c8565b92915050565b60008115159050919050565b62001a0d81620019f6565b811462001a1957600080fd5b50565b60008135905062001a2d8162001a02565b92915050565b6000806040838503121562001a4d5762001a4c6200151f565b5b600062001a5d8582860162001577565b925050602062001a708582860162001a1c565b9150509250929050565b60006020828403121562001a935762001a926200151f565b5b600062001aa38482850162001577565b91505092915050565b62001ab781620019f6565b82525050565b600060208201905062001ad4600083018462001aac565b92915050565b600082825260208201905092915050565b7f526571756972656420612076616c6964206576616c7561746f7220617070726f60008201527f7665642062792074686520636f6d70616e790000000000000000000000000000602082015250565b600062001b4960328362001ada565b915062001b568262001aeb565b604082019050919050565b6000602082019050818103600083015262001b7c8162001b3a565b9050919050565b600060408201905062001b9a6000830185620019c8565b62001ba9602083018462001684565b9392505050565b7f4a7573742074686520696e737572616e636520636f6d70616e792063616e207060008201527f6572666f726d207468697320616374696f6e0000000000000000000000000000602082015250565b600062001c0e60328362001ada565b915062001c1b8262001bb0565b604082019050919050565b6000602082019050818103600083015262001c418162001bff565b9050919050565b7f5468657265206973206e6f7420656e6f75676820616d6f756e7420746f20776960008201527f7468647261770000000000000000000000000000000000000000000000000000602082015250565b600062001ca660268362001ada565b915062001cb38262001c48565b604082019050919050565b6000602082019050818103600083015262001cd98162001c97565b9050919050565b7f546f2072656e6577206120706f6c69637920796f75206d75737420706179206160008201527f207072656d69756d2e0000000000000000000000000000000000000000000000602082015250565b600062001d3e60298362001ada565b915062001d4b8262001ce0565b604082019050919050565b6000602082019050818103600083015262001d718162001d2f565b9050919050565b60008151905062001d89816200155d565b92915050565b60006020828403121562001da85762001da76200151f565b5b600062001db88482850162001d78565b91505092915050565b7f4a7573742074686520706f6c696379686f6c646572206f662074686520706f6c60008201527f6963792069732061626c6520746f2072656e65772069742e0000000000000000602082015250565b600062001e1f60388362001ada565b915062001e2c8262001dc1565b604082019050919050565b6000602082019050818103600083015262001e528162001e10565b9050919050565b600060608201905062001e706000830186620019c8565b62001e7f602083018562001684565b62001e8e604083018462001684565b949350505050565b600060408201905062001ead600083018562001684565b62001ebc602083018462001684565b9392505050565b60008151905062001ed48162001598565b92915050565b60006020828403121562001ef35762001ef26200151f565b5b600062001f038482850162001ec3565b91505092915050565b7f496e73756666696369656e742062616c616e636520746f20706179207468652060008201527f636c61696d2e0000000000000000000000000000000000000000000000000000602082015250565b600062001f6a60268362001ada565b915062001f778262001f0c565b604082019050919050565b6000602082019050818103600083015262001f9d8162001f5b565b9050919050565b7f546f20637265617465206120706f6c69637920796f75206d757374207061792060008201527f61207072656d69756d2e00000000000000000000000000000000000000000000602082015250565b600062002002602a8362001ada565b91506200200f8262001fa4565b604082019050919050565b60006020820190508181036000830152620020358162001ff3565b9050919050565b600081519050919050565b60005b83811015620020675780820151818401526020810190506200204a565b60008484015250505050565b600062002080826200203c565b6200208c818562001ada565b93506200209e81856020860162002047565b620020a9816200180a565b840191505092915050565b60006080820190508181036000830152620020d0818762002073565b9050620020e1602083018662001684565b620020f06040830185620019c8565b620020ff606083018462001684565b95945050505050565b7f4a7573742074686520706f6c696379686f6c646572206f662074686520706f6c60008201527f6963792069732061626c6520746f2063616e63656c2069742e00000000000000602082015250565b60006200216660398362001ada565b9150620021738262002108565b604082019050919050565b60006020820190508181036000830152620021998162002157565b9050919050565b7f4e487b7100000000000000000000000000000000000000000000000000000000600052601160045260246000fd5b6000620021dc826200158e565b9150620021e9836200158e565b9250828203905081811115620022045762002203620021a0565b5b92915050565b600062002217826200158e565b915062002224836200158e565b925082820262002234816200158e565b915082820484148315176200224e576200224d620021a0565b5b5092915050565b7f4e487b7100000000000000000000000000000000000000000000000000000000600052601260045260246000fd5b600062002291826200158e565b91506200229e836200158e565b925082620022b157620022b062002255565b5b828204905092915050565b7f496e73756666696369656e742062616c616e636520746f20706179207468652060008201527f63616e63656c6c6174696f6e2e00000000000000000000000000000000000000602082015250565b60006200231a602d8362001ada565b91506200232782620022bc565b604082019050919050565b600060208201905081810360008301526200234d816200230b565b905091905056fe60806040523480156200001157600080fd5b5060405162002b8938038062002b8983398181016040528101906200003791906200040a565b4281116200007c576040517f08c379a00000000000000000000000000000000000000000000000000000000081526004016200007390620004fc565b60405180910390fd5b60008311620000c2576040517f08c379a0000000000000000000000000000000000000000000000000000000008152600401620000b99062000594565b60405180910390fd5b8360009081620000d39190620007f7565b508260018190555081600260006101000a81548173ffffffffffffffffffffffffffffffffffffffff021916908373ffffffffffffffffffffffffffffffffffffffff16021790555033600360006101000a81548173ffffffffffffffffffffffffffffffffffffffff021916908373ffffffffffffffffffffffffffffffffffffffff1602179055504260068190555080600481905550806005819055507f2ae68230dd9c1c06842490953a33785a09292650f8c76b1a20b2fbbb214a896c600260009054906101000a900473ffffffffffffffffffffffffffffffffffffffff16604051620001c59190620008ef565b60405180910390a1505050506200090c565b6000604051905090565b600080fd5b600080fd5b600080fd5b600080fd5b6000601f19601f8301169050919050565b7f4e487b7100000000000000000000000000000000000000000000000000000000600052604160045260246000fd5b6200024082620001f5565b810181811067ffffffffffffffff8211171562000262576200026162000206565b5b80604052505050565b600062000277620001d7565b905062000285828262000235565b919050565b600067ffffffffffffffff821115620002a857620002a762000206565b5b620002b382620001f5565b9050602081019050919050565b60005b83811015620002e0578082015181840152602081019050620002c3565b60008484015250505050565b600062000303620002fd846200028a565b6200026b565b905082815260208101848484011115620003225762000321620001f0565b5b6200032f848285620002c0565b509392505050565b600082601f8301126200034f576200034e620001eb565b5b815162000361848260208601620002ec565b91505092915050565b6000819050919050565b6200037f816200036a565b81146200038b57600080fd5b50565b6000815190506200039f8162000374565b92915050565b600073ffffffffffffffffffffffffffffffffffffffff82169050919050565b6000620003d282620003a5565b9050919050565b620003e481620003c5565b8114620003f057600080fd5b50565b6000815190506200040481620003d9565b92915050565b60008060008060808587031215620004275762000426620001e1565b5b600085015167ffffffffffffffff811115620004485762000447620001e6565b5b620004568782880162000337565b945050602062000469878288016200038e565b93505060406200047c87828801620003f3565b92505060606200048f878288016200038e565b91505092959194509250565b600082825260208201905092915050565b7f52656e6577616c20646174652068617320746f206265207570636f6d696e6700600082015250565b6000620004e4601f836200049b565b9150620004f182620004ac565b602082019050919050565b600060208201905081810360008301526200051781620004d5565b9050919050565b7f52657175697265642061207072656d69756d20746f206163746976617465207460008201527f686520706f6c6963790000000000000000000000000000000000000000000000602082015250565b60006200057c6029836200049b565b915062000589826200051e565b604082019050919050565b60006020820190508181036000830152620005af816200056d565b9050919050565b600081519050919050565b7f4e487b7100000000000000000000000000000000000000000000000000000000600052602260045260246000fd5b600060028204905060018216806200060957607f821691505b6020821081036200061f576200061e620005c1565b5b50919050565b60008190508160005260206000209050919050565b60006020601f8301049050919050565b600082821b905092915050565b600060088302620006897fffffffffffffffffffffffffffffffffffffffffffffffffffffffffffffffff826200064a565b6200069586836200064a565b95508019841693508086168417925050509392505050565b6000819050919050565b6000620006d8620006d2620006cc846200036a565b620006ad565b6200036a565b9050919050565b6000819050919050565b620006f483620006b7565b6200070c6200070382620006df565b84845462000657565b825550505050565b600090565b6200072362000714565b62000730818484620006e9565b505050565b5b8181101562000758576200074c60008262000719565b60018101905062000736565b5050565b601f821115620007a757620007718162000625565b6200077c846200063a565b810160208510156200078c578190505b620007a46200079b856200063a565b83018262000735565b50505b505050565b600082821c905092915050565b6000620007cc60001984600802620007ac565b1980831691505092915050565b6000620007e78383620007b9565b9150826002028217905092915050565b6200080282620005b6565b67ffffffffffffffff8111156200081e576200081d62000206565b5b6200082a8254620005f0565b620008378282856200075c565b600060209050601f8311600181146200086f57600084156200085a578287015190505b620008668582620007d9565b865550620008d6565b601f1984166200087f8662000625565b60005b82811015620008a95784890151825560018201915060208501945060208101905062000882565b86831015620008c95784890151620008c5601f891682620007b9565b8355505b6001600288020188555050505b505050505050565b620008e981620003c5565b82525050565b6000602082019050620009066000830184620008de565b92915050565b61226d806200091c6000396000f3fe608060405234801561001057600080fd5b50600436106100f55760003560e01c8063966dae0e11610097578063f119c46311610066578063f119c46314610250578063f11b5e251461026c578063f3563e711461028a578063fba7cc79146102a8576100f5565b8063966dae0e146101c6578063b1356488146101e4578063c475abff14610202578063c974402914610232576100f5565b80634ef2cc00116100d35780634ef2cc00146101525780635aef24471461015c57806378f305c61461018c5780637fbe658c146101aa576100f5565b80630b68b2da146100fa5780630c4f65bd146101185780630fa5fd6c14610136575b600080fd5b6101026102c6565b60405161010f91906115b5565b60405180910390f35b610120610440565b60405161012d9190611618565b60405180910390f35b610150600480360381019061014b91906118f0565b610552565b005b61015a610775565b005b6101766004803603810190610171919061194c565b610898565b6040516101839190611a8c565b60405180910390f35b610194610ae9565b6040516101a19190611abd565b60405180910390f35b6101c460048036038101906101bf9190611ad8565b610bdb565b005b6101ce610cd2565b6040516101db9190611618565b60405180910390f35b6101ec610cf8565b6040516101f99190611abd565b60405180910390f35b61021c60048036038101906102179190611ad8565b610dea565b6040516102299190611abd565b60405180910390f35b61023a610f19565b6040516102479190611abd565b60405180910390f35b61026a6004803603810190610265919061194c565b61100b565b005b6102746110e0565b6040516102819190611abd565b60405180910390f35b6102926111d2565b60405161029f9190611bc7565b60405180910390f35b6102b0611312565b6040516102bd9190611bf8565b60405180910390f35b6060600360009054906101000a900473ffffffffffffffffffffffffffffffffffffffff1673ffffffffffffffffffffffffffffffffffffffff163373ffffffffffffffffffffffffffffffffffffffff1614806103715750600260009054906101000a900473ffffffffffffffffffffffffffffffffffffffff1673ffffffffffffffffffffffffffffffffffffffff163373ffffffffffffffffffffffffffffffffffffffff16145b6103b0576040517f08c379a00000000000000000000000000000000000000000000000000000000081526004016103a790611cab565b60405180910390fd5b600080546103bd90611cfa565b80601f01602080910402602001604051908101604052809291908181526020018280546103e990611cfa565b80156104365780601f1061040b57610100808354040283529160200191610436565b820191906000526020600020905b81548152906001019060200180831161041957829003601f168201915b5050505050905090565b6000600360009054906101000a900473ffffffffffffffffffffffffffffffffffffffff1673ffffffffffffffffffffffffffffffffffffffff163373ffffffffffffffffffffffffffffffffffffffff1614806104eb5750600260009054906101000a900473ffffffffffffffffffffffffffffffffffffffff1673ffffffffffffffffffffffffffffffffffffffff163373ffffffffffffffffffffffffffffffffffffffff16145b61052a576040517f08c379a000000000000000000000000000000000000000000000000000000000815260040161052190611cab565b60405180910390fd5b600260009054906101000a900473ffffffffffffffffffffffffffffffffffffffff16905090565b600260009054906101000a900473ffffffffffffffffffffffffffffffffffffffff1673ffffffffffffffffffffffffffffffffffffffff163373ffffffffffffffffffffffffffffffffffffffff16146105e2576040517f08c379a00000000000000000000000000000000000000000000000000000000081526004016105d990611d9d565b60405180910390fd5b426004541180156105f4575042600554115b610633576040517f08c379a000000000000000000000000000000000000000000000000000000000815260040161062a90611e09565b60405180910390fd5b6000819050806007600085815260200190815260200160002060008201518160000190816106619190611fd5565b5060208201518160010160006101000a81548173ffffffffffffffffffffffffffffffffffffffff021916908373ffffffffffffffffffffffffffffffffffffffff160217905550604082015181600201556060820151816003015560808201518160040160006101000a81548160ff02191690831515021790555060a0820151816005015560c08201518160060160006101000a81548160ff02191690831515021790555090505060006007600085815260200190815260200160002060060160006101000a81548160ff0219169083151502179055507f638e2a6aeee887a0d14ed55e72f023c4cc608d74f3fc9d7dd46fa6355fd0ea49836040516107689190611abd565b60405180910390a1505050565b600360009054906101000a900473ffffffffffffffffffffffffffffffffffffffff1673ffffffffffffffffffffffffffffffffffffffff163373ffffffffffffffffffffffffffffffffffffffff1614610805576040517f08c379a00000000000000000000000000000000000000000000000000000000081526004016107fc90612119565b60405180910390fd5b42600454118015610817575042600554115b610856576040517f08c379a000000000000000000000000000000000000000000000000000000000815260040161084d90611e09565b60405180910390fd5b426004819055507f5af4c37852e46c039a8fb4eedfcc916d59262430de08a63b8976b07efb8141ef60045460405161088e9190611abd565b60405180910390a1565b6108a06114ce565b600360009054906101000a900473ffffffffffffffffffffffffffffffffffffffff1673ffffffffffffffffffffffffffffffffffffffff163373ffffffffffffffffffffffffffffffffffffffff1614806109495750600260009054906101000a900473ffffffffffffffffffffffffffffffffffffffff1673ffffffffffffffffffffffffffffffffffffffff163373ffffffffffffffffffffffffffffffffffffffff16145b610988576040517f08c379a000000000000000000000000000000000000000000000000000000000815260040161097f90611cab565b60405180910390fd5b600760008381526020019081526020016000206040518060e00160405290816000820180546109b690611cfa565b80601f01602080910402602001604051908101604052809291908181526020018280546109e290611cfa565b8015610a2f5780601f10610a0457610100808354040283529160200191610a2f565b820191906000526020600020905b815481529060010190602001808311610a1257829003601f168201915b505050505081526020016001820160009054906101000a900473ffffffffffffffffffffffffffffffffffffffff1673ffffffffffffffffffffffffffffffffffffffff1673ffffffffffffffffffffffffffffffffffffffff16815260200160028201548152602001600382015481526020016004820160009054906101000a900460ff16151515158152602001600582015481526020016006820160009054906101000a900460ff1615151515815250509050919050565b6000600360009054906101000a900473ffffffffffffffffffffffffffffffffffffffff1673ffffffffffffffffffffffffffffffffffffffff163373ffffffffffffffffffffffffffffffffffffffff161480610b945750600260009054906101000a900473ffffffffffffffffffffffffffffffffffffffff1673ffffffffffffffffffffffffffffffffffffffff163373ffffffffffffffffffffffffffffffffffffffff16145b610bd3576040517f08c379a0000000000000000000000000000000000000000000000000000000008152600401610bca90611cab565b60405180910390fd5b600654905090565b600360009054906101000a900473ffffffffffffffffffffffffffffffffffffffff1673ffffffffffffffffffffffffffffffffffffffff163373ffffffffffffffffffffffffffffffffffffffff1614610c6b576040517f08c379a0000000000000000000000000000000000000000000000000000000008152600401610c6290612119565b60405180910390fd5b6000600760008481526020019081526020016000209050610c8d836001611406565b8181600301819055507fd2d0ed0cccc8615643ade1eff3929a29ed8df75ebca85a3996e311c9b69e228983604051610cc59190611abd565b60405180910390a1505050565b600360009054906101000a900473ffffffffffffffffffffffffffffffffffffffff1681565b6000600360009054906101000a900473ffffffffffffffffffffffffffffffffffffffff1673ffffffffffffffffffffffffffffffffffffffff163373ffffffffffffffffffffffffffffffffffffffff161480610da35750600260009054906101000a900473ffffffffffffffffffffffffffffffffffffffff1673ffffffffffffffffffffffffffffffffffffffff163373ffffffffffffffffffffffffffffffffffffffff16145b610de2576040517f08c379a0000000000000000000000000000000000000000000000000000000008152600401610dd990611cab565b60405180910390fd5b600454905090565b6000600360009054906101000a900473ffffffffffffffffffffffffffffffffffffffff1673ffffffffffffffffffffffffffffffffffffffff163373ffffffffffffffffffffffffffffffffffffffff1614610e7c576040517f08c379a0000000000000000000000000000000000000000000000000000000008152600401610e7390612119565b60405180910390fd5b6004548311610ec0576040517f08c379a0000000000000000000000000000000000000000000000000000000008152600401610eb7906121ab565b60405180910390fd5b8260048190555082600581905550816001819055507f5d7ac495f70da95795bf1e013229e085d2330c3d85625768e8d8147cde21584c600454604051610f069190611abd565b60405180910390a1600554905092915050565b6000600360009054906101000a900473ffffffffffffffffffffffffffffffffffffffff1673ffffffffffffffffffffffffffffffffffffffff163373ffffffffffffffffffffffffffffffffffffffff161480610fc45750600260009054906101000a900473ffffffffffffffffffffffffffffffffffffffff1673ffffffffffffffffffffffffffffffffffffffff163373ffffffffffffffffffffffffffffffffffffffff16145b611003576040517f08c379a0000000000000000000000000000000000000000000000000000000008152600401610ffa90611cab565b60405180910390fd5b600154905090565b600360009054906101000a900473ffffffffffffffffffffffffffffffffffffffff1673ffffffffffffffffffffffffffffffffffffffff163373ffffffffffffffffffffffffffffffffffffffff161461109b576040517f08c379a000000000000000000000000000000000000000000000000000000000815260040161109290612119565b60405180910390fd5b6110a6816000611406565b7f02d319d3445ae98d88bc3ebef5c58a74cdf7fc53e3191dadfbf75745ae49cd7d816040516110d59190611abd565b60405180910390a150565b6000600360009054906101000a900473ffffffffffffffffffffffffffffffffffffffff1673ffffffffffffffffffffffffffffffffffffffff163373ffffffffffffffffffffffffffffffffffffffff16148061118b5750600260009054906101000a900473ffffffffffffffffffffffffffffffffffffffff1673ffffffffffffffffffffffffffffffffffffffff163373ffffffffffffffffffffffffffffffffffffffff16145b6111ca576040517f08c379a00000000000000000000000000000000000000000000000000000000081526004016111c190611cab565b60405180910390fd5b600554905090565b6060600360009054906101000a900473ffffffffffffffffffffffffffffffffffffffff1673ffffffffffffffffffffffffffffffffffffffff163373ffffffffffffffffffffffffffffffffffffffff16148061127d5750600260009054906101000a900473ffffffffffffffffffffffffffffffffffffffff1673ffffffffffffffffffffffffffffffffffffffff163373ffffffffffffffffffffffffffffffffffffffff16145b6112bc576040517f08c379a00000000000000000000000000000000000000000000000000000000081526004016112b390611cab565b60405180910390fd5b600880548060200260200160405190810160405280929190818152602001828054801561130857602002820191906000526020600020905b8154815260200190600101908083116112f4575b5050505050905090565b6000600360009054906101000a900473ffffffffffffffffffffffffffffffffffffffff1673ffffffffffffffffffffffffffffffffffffffff163373ffffffffffffffffffffffffffffffffffffffff1614806113bd5750600260009054906101000a900473ffffffffffffffffffffffffffffffffffffffff1673ffffffffffffffffffffffffffffffffffffffff163373ffffffffffffffffffffffffffffffffffffffff16145b6113fc576040517f08c379a00000000000000000000000000000000000000000000000000000000081526004016113f390611cab565b60405180910390fd5b4260045411905090565b6000600760008481526020019081526020016000209050600015158160060160009054906101000a900460ff16151514611475576040517f08c379a000000000000000000000000000000000000000000000000000000000815260040161146c90612217565b60405180910390fd5b42816005018190555060016007600085815260200190815260200160002060060160006101000a81548160ff021916908315150217905550818160040160006101000a81548160ff021916908315150217905550505050565b6040518060e0016040528060608152602001600073ffffffffffffffffffffffffffffffffffffffff1681526020016000815260200160008152602001600015158152602001600081526020016000151581525090565b600081519050919050565b600082825260208201905092915050565b60005b8381101561155f578082015181840152602081019050611544565b60008484015250505050565b6000601f19601f8301169050919050565b600061158782611525565b6115918185611530565b93506115a1818560208601611541565b6115aa8161156b565b840191505092915050565b600060208201905081810360008301526115cf818461157c565b905092915050565b600073ffffffffffffffffffffffffffffffffffffffff82169050919050565b6000611602826115d7565b9050919050565b611612816115f7565b82525050565b600060208201905061162d6000830184611609565b92915050565b6000604051905090565b600080fd5b600080fd5b6000819050919050565b61165a81611647565b811461166557600080fd5b50565b60008135905061167781611651565b92915050565b600080fd5b7f4e487b7100000000000000000000000000000000000000000000000000000000600052604160045260246000fd5b6116ba8261156b565b810181811067ffffffffffffffff821117156116d9576116d8611682565b5b80604052505050565b60006116ec611633565b90506116f882826116b1565b919050565b600080fd5b600080fd5b600080fd5b600067ffffffffffffffff82111561172757611726611682565b5b6117308261156b565b9050602081019050919050565b82818337600083830152505050565b600061175f61175a8461170c565b6116e2565b90508281526020810184848401111561177b5761177a611707565b5b61178684828561173d565b509392505050565b600082601f8301126117a3576117a2611702565b5b81356117b384826020860161174c565b91505092915050565b6117c5816115f7565b81146117d057600080fd5b50565b6000813590506117e2816117bc565b92915050565b60008115159050919050565b6117fd816117e8565b811461180857600080fd5b50565b60008135905061181a816117f4565b92915050565b600060e082840312156118365761183561167d565b5b61184060e06116e2565b9050600082013567ffffffffffffffff8111156118605761185f6116fd565b5b61186c8482850161178e565b6000830152506020611880848285016117d3565b602083015250604061189484828501611668565b60408301525060606118a884828501611668565b60608301525060806118bc8482850161180b565b60808301525060a06118d084828501611668565b60a08301525060c06118e48482850161180b565b60c08301525092915050565b600080604083850312156119075761190661163d565b5b600061191585828601611668565b925050602083013567ffffffffffffffff81111561193657611935611642565b5b61194285828601611820565b9150509250929050565b6000602082840312156119625761196161163d565b5b600061197084828501611668565b91505092915050565b600082825260208201905092915050565b600061199582611525565b61199f8185611979565b93506119af818560208601611541565b6119b88161156b565b840191505092915050565b6119cc816115f7565b82525050565b6119db81611647565b82525050565b6119ea816117e8565b82525050565b600060e0830160008301518482036000860152611a0d828261198a565b9150506020830151611a2260208601826119c3565b506040830151611a3560408601826119d2565b506060830151611a4860608601826119d2565b506080830151611a5b60808601826119e1565b5060a0830151611a6e60a08601826119d2565b5060c0830151611a8160c08601826119e1565b508091505092915050565b60006020820190508181036000830152611aa681846119f0565b905092915050565b611ab781611647565b82525050565b6000602082019050611ad26000830184611aae565b92915050565b60008060408385031215611aef57611aee61163d565b5b6000611afd85828601611668565b9250506020611b0e85828601611668565b9150509250929050565b600081519050919050565b600082825260208201905092915050565b6000819050602082019050919050565b6000611b5083836119d2565b60208301905092915050565b6000602082019050919050565b6000611b7482611b18565b611b7e8185611b23565b9350611b8983611b34565b8060005b83811015611bba578151611ba18882611b44565b9750611bac83611b5c565b925050600181019050611b8d565b5085935050505092915050565b60006020820190508181036000830152611be18184611b69565b905092915050565b611bf2816117e8565b82525050565b6000602082019050611c0d6000830184611be9565b92915050565b7f4a7573742074686520706f6c696379686f6c646572206f722074686520696e7360008201527f7572616e636520636f6d70616e792063616e20706572666f726d20746869732060208201527f616374696f6e0000000000000000000000000000000000000000000000000000604082015250565b6000611c95604683611530565b9150611ca082611c13565b606082019050919050565b60006020820190508181036000830152611cc481611c88565b9050919050565b7f4e487b7100000000000000000000000000000000000000000000000000000000600052602260045260246000fd5b60006002820490506001821680611d1257607f821691505b602082108103611d2557611d24611ccb565b5b50919050565b7f4a7573742074686520706f6c696379686f6c6465722063616e20706572666f7260008201527f6d207468697320616374696f6e00000000000000000000000000000000000000602082015250565b6000611d87602d83611530565b9150611d9282611d2b565b604082019050919050565b60006020820190508181036000830152611db681611d7a565b9050919050565b7f506f6c696379206973206e6f7420616374697665000000000000000000000000600082015250565b6000611df3601483611530565b9150611dfe82611dbd565b602082019050919050565b60006020820190508181036000830152611e2281611de6565b9050919050565b60008190508160005260206000209050919050565b60006020601f8301049050919050565b600082821b905092915050565b600060088302611e8b7fffffffffffffffffffffffffffffffffffffffffffffffffffffffffffffffff82611e4e565b611e958683611e4e565b95508019841693508086168417925050509392505050565b6000819050919050565b6000611ed2611ecd611ec884611647565b611ead565b611647565b9050919050565b6000819050919050565b611eec83611eb7565b611f00611ef882611ed9565b848454611e5b565b825550505050565b600090565b611f15611f08565b611f20818484611ee3565b505050565b5b81811015611f4457611f39600082611f0d565b600181019050611f26565b5050565b601f821115611f8957611f5a81611e29565b611f6384611e3e565b81016020851015611f72578190505b611f86611f7e85611e3e565b830182611f25565b50505b505050565b600082821c905092915050565b6000611fac60001984600802611f8e565b1980831691505092915050565b6000611fc58383611f9b565b9150826002028217905092915050565b611fde82611525565b67ffffffffffffffff811115611ff757611ff6611682565b5b6120018254611cfa565b61200c828285611f48565b600060209050601f83116001811461203f576000841561202d578287015190505b6120378582611fb9565b86555061209f565b601f19841661204d86611e29565b60005b8281101561207557848901518255600182019150602085019450602081019050612050565b86831015612092578489015161208e601f891682611f9b565b8355505b6001600288020188555050505b505050505050565b7f4a7573742074686520696e737572616e636520636f6d70616e792063616e207060008201527f6572666f726d207468697320616374696f6e0000000000000000000000000000602082015250565b6000612103603283611530565b915061210e826120a7565b604082019050919050565b60006020820190508181036000830152612132816120f6565b9050919050565b7f4e657720656e6420646174652068617320746f2062652061667465722074686560008201527f2063757272656e74206f6e650000000000000000000000000000000000000000602082015250565b6000612195602c83611530565b91506121a082612139565b604082019050919050565b600060208201905081810360008301526121c481612188565b9050919050565b7f436c61696d20697320616c7265616479207265736f6c76656400000000000000600082015250565b6000612201601983611530565b915061220c826121cb565b602082019050919050565b60006020820190508181036000830152612230816121f4565b905091905056fea2646970667358221220fc2c95684b8da7b02a32f797c345fdaf485a473145cbfb8f1a6a11f0bf1ab59064736f6c63430008130033a264697066735822122007c13e3bb7c0bc1305ca5824a3860704b35c2103e95a1a94da09ddc8213ad03564736f6c63430008130033",
  "linkReferences": {},
  "deployedLinkReferences": {}
}