{
  "_format": "hh-sol-artifact-1",
  "contractName": "Factory",
  "sourceName": "contracts/Factory.sol",
  "abi": [
    {
      "inputs": [],
      "stateMutability": "payable",
      "type": "constructor"
    },
    {
      "inputs": [],
      "name": "addBudget",
      "outputs": [
        {
          "internalType": "uint256",
          "name": "",
          "type": "uint256"
        }
      ],
      "stateMutability": "payable",
      "type": "function"
    },
    {
      "inputs": [
        {
          "internalType": "address",
          "name": "newAddress",
          "type": "address"
        }
      ],
      "name": "addEvaluator",
      "outputs": [],
      "stateMutability": "nonpayable",
      "type": "function"
    },
    {
      "inputs": [
        {
          "internalType": "address",
          "name": "policyAddress",
          "type": "address"
        },
        {
          "internalType": "uint256",
          "name": "claimId",
          "type": "uint256"
        },
        {
          "internalType": "uint256",
          "name": "claimExpenses",
          "type": "uint256"
        }
      ],
      "name": "approveClaim",
      "outputs": [],
      "stateMutability": "nonpayable",
      "type": "function"
    },
    {
      "inputs": [
        {
          "internalType": "address",
          "name": "evaluator",
          "type": "address"
        },
        {
          "internalType": "bool",
          "name": "value",
          "type": "bool"
        }
      ],
      "name": "changeEvaluatorValue",
      "outputs": [],
      "stateMutability": "nonpayable",
      "type": "function"
    },
    {
      "inputs": [
        {
          "internalType": "string",
          "name": "riskObject",
          "type": "string"
        },
        {
          "internalType": "uint256",
          "name": "endDate",
          "type": "uint256"
        }
      ],
      "name": "createPolicy",
      "outputs": [
        {
          "internalType": "address",
          "name": "",
          "type": "address"
        }
      ],
      "stateMutability": "payable",
      "type": "function"
    },
    {
      "inputs": [
        {
          "internalType": "address",
          "name": "policyAddress",
          "type": "address"
        },
        {
          "internalType": "uint256",
          "name": "claimId",
          "type": "uint256"
        }
      ],
      "name": "declineClaim",
      "outputs": [],
      "stateMutability": "nonpayable",
      "type": "function"
    },
    {
      "inputs": [],
      "name": "getHolderPolicies",
      "outputs": [
        {
          "internalType": "address[]",
          "name": "",
          "type": "address[]"
        }
      ],
      "stateMutability": "view",
      "type": "function"
    },
    {
      "inputs": [],
      "name": "getUserPolicies",
      "outputs": [
        {
          "internalType": "address[]",
          "name": "",
          "type": "address[]"
        }
      ],
      "stateMutability": "view",
      "type": "function"
    },
    {
      "inputs": [
        {
          "internalType": "address",
          "name": "checkAddress",
          "type": "address"
        }
      ],
      "name": "isClaimEvaluatorKnown",
      "outputs": [
        {
          "internalType": "bool",
          "name": "",
          "type": "bool"
        }
      ],
      "stateMutability": "view",
      "type": "function"
    },
    {
      "inputs": [
        {
          "internalType": "address",
          "name": "policyAddress",
          "type": "address"
        },
        {
          "internalType": "uint256",
          "name": "newEndDate",
          "type": "uint256"
        },
        {
          "internalType": "uint256",
          "name": "renewalAmount",
          "type": "uint256"
        }
      ],
      "name": "renewPolicy",
      "outputs": [
        {
          "internalType": "uint256",
          "name": "",
          "type": "uint256"
        }
      ],
      "stateMutability": "payable",
      "type": "function"
    },
    {
      "inputs": [
        {
          "internalType": "uint256",
          "name": "amount",
          "type": "uint256"
        }
      ],
      "name": "withdrawBudget",
      "outputs": [
        {
          "internalType": "uint256",
          "name": "",
          "type": "uint256"
        }
      ],
      "stateMutability": "nonpayable",
      "type": "function"
    }
  ],
  "bytecode": "0x6080604052670ddd2935029d800060015560015434101562000058576040517f08c379a00000000000000000000000000000000000000000000000000000000081526004016200004f906200014b565b60405180910390fd5b336000806101000a81548173ffffffffffffffffffffffffffffffffffffffff021916908373ffffffffffffffffffffffffffffffffffffffff1602179055506200016d565b600082825260208201905092915050565b7f4d696e696d756d20627564676574206973206e6f74206163686965766564207460008201527f6f20737461727420616e20496e737572616e636520536d61727420436f6e747260208201527f6163740000000000000000000000000000000000000000000000000000000000604082015250565b6000620001336043836200009e565b91506200014082620000af565b606082019050919050565b60006020820190508181036000830152620001668162000124565b9050919050565b61418f806200017d6000396000f3fe608060405260043610620000aa5760003560e01c80636e66d617116200006d5780636e66d61714620001a95780639278a65114620001d95780639c8bc7c814620002075780639f1d8c47146200023d578063b7fb322f146200026b578063eb26e5f014620002af57620000aa565b80631b3d1b9714620000af5780632425b2e914620000dd5780632cc81a61146200010d578063473d37981462000151578063687792db1462000187575b600080fd5b348015620000bc57600080fd5b50620000db6004803603810190620000d591906200101c565b620002dd565b005b348015620000ea57600080fd5b50620000f5620003fa565b60405162000104919062001131565b60405180910390f35b3480156200011a57600080fd5b5062000139600480360381019062000133919062001155565b620004cd565b60405162000148919062001198565b60405180910390f35b6200016f6004803603810190620001699190620011b5565b62000616565b6040516200017e919062001198565b60405180910390f35b62000191620007cf565b604051620001a0919062001198565b60405180910390f35b348015620001b657600080fd5b50620001c162000869565b604051620001d0919062001131565b60405180910390f35b348015620001e657600080fd5b50620002056004803603810190620001ff9190620011b5565b62000936565b005b6200022560048036038101906200021f919062001373565b62000b5a565b604051620002349190620013ea565b60405180910390f35b3480156200024a57600080fd5b5062000269600480360381019062000263919062001444565b62000c9a565b005b3480156200027857600080fd5b506200029760048036038101906200029191906200148b565b62000d86565b604051620002a69190620014ce565b60405180910390f35b348015620002bc57600080fd5b50620002db6004803603810190620002d591906200148b565b62000e6e565b005b60008054906101000a900473ffffffffffffffffffffffffffffffffffffffff1673ffffffffffffffffffffffffffffffffffffffff163373ffffffffffffffffffffffffffffffffffffffff1614806200033f57506200033e3362000d86565b5b62000381576040517f08c379a0000000000000000000000000000000000000000000000000000000008152600401620003789062001572565b60405180910390fd5b60008290508073ffffffffffffffffffffffffffffffffffffffff1663f119c463836040518263ffffffff1660e01b8152600401620003c1919062001198565b600060405180830381600087803b158015620003dc57600080fd5b505af1158015620003f1573d6000803e3d6000fd5b50505050505050565b60606000600260003373ffffffffffffffffffffffffffffffffffffffff1673ffffffffffffffffffffffffffffffffffffffff168152602001908152602001600020805480602002602001604051908101604052809291908181526020018280548015620004bf57602002820191906000526020600020905b8160009054906101000a900473ffffffffffffffffffffffffffffffffffffffff1673ffffffffffffffffffffffffffffffffffffffff168152602001906001019080831162000474575b505050505090508091505090565b60008060009054906101000a900473ffffffffffffffffffffffffffffffffffffffff1673ffffffffffffffffffffffffffffffffffffffff163373ffffffffffffffffffffffffffffffffffffffff161462000561576040517f08c379a000000000000000000000000000000000000000000000000000000000815260040162000558906200160a565b60405180910390fd5b478210620005a6576040517f08c379a00000000000000000000000000000000000000000000000000000000081526004016200059d90620016a2565b60405180910390fd5b60008054906101000a900473ffffffffffffffffffffffffffffffffffffffff1673ffffffffffffffffffffffffffffffffffffffff166108fc839081150290604051600060405180830381858888f193505050501580156200060d573d6000803e3d6000fd5b50479050919050565b60008134116200065d576040517f08c379a000000000000000000000000000000000000000000000000000000000815260040162000654906200173a565b60405180910390fd5b60008490508073ffffffffffffffffffffffffffffffffffffffff16630c4f65bd6040518163ffffffff1660e01b8152600401602060405180830381865afa158015620006ae573d6000803e3d6000fd5b505050506040513d601f19601f82011682018060405250810190620006d4919062001773565b73ffffffffffffffffffffffffffffffffffffffff163373ffffffffffffffffffffffffffffffffffffffff161462000744576040517f08c379a00000000000000000000000000000000000000000000000000000000081526004016200073b906200181b565b60405180910390fd5b8073ffffffffffffffffffffffffffffffffffffffff16635baa7509856040518263ffffffff1660e01b81526004016200077f919062001198565b6020604051808303816000875af11580156200079f573d6000803e3d6000fd5b505050506040513d601f19601f82011682018060405250810190620007c5919062001854565b9150509392505050565b60008060009054906101000a900473ffffffffffffffffffffffffffffffffffffffff1673ffffffffffffffffffffffffffffffffffffffff163373ffffffffffffffffffffffffffffffffffffffff161462000863576040517f08c379a00000000000000000000000000000000000000000000000000000000081526004016200085a906200160a565b60405180910390fd5b47905090565b6060600260003373ffffffffffffffffffffffffffffffffffffffff1673ffffffffffffffffffffffffffffffffffffffff1681526020019081526020016000208054806020026020016040519081016040528092919081815260200182805480156200092c57602002820191906000526020600020905b8160009054906101000a900473ffffffffffffffffffffffffffffffffffffffff1673ffffffffffffffffffffffffffffffffffffffff1681526020019060010190808311620008e1575b5050505050905090565b60008054906101000a900473ffffffffffffffffffffffffffffffffffffffff1673ffffffffffffffffffffffffffffffffffffffff163373ffffffffffffffffffffffffffffffffffffffff161480620009985750620009973362000d86565b5b620009da576040517f08c379a0000000000000000000000000000000000000000000000000000000008152600401620009d19062001572565b60405180910390fd5b47811062000a1f576040517f08c379a000000000000000000000000000000000000000000000000000000000815260040162000a1690620018fc565b60405180910390fd5b60008390508073ffffffffffffffffffffffffffffffffffffffff16637fbe658c84846040518363ffffffff1660e01b815260040162000a619291906200191e565b600060405180830381600087803b15801562000a7c57600080fd5b505af115801562000a91573d6000803e3d6000fd5b5050505060008173ffffffffffffffffffffffffffffffffffffffff16630c4f65bd6040518163ffffffff1660e01b8152600401602060405180830381865afa15801562000ae3573d6000803e3d6000fd5b505050506040513d601f19601f8201168201806040525081019062000b09919062001773565b90508073ffffffffffffffffffffffffffffffffffffffff166108fc849081150290604051600060405180830381858888f1935050505015801562000b52573d6000803e3d6000fd5b505050505050565b600080341162000ba1576040517f08c379a000000000000000000000000000000000000000000000000000000000815260040162000b9890620019c1565b60405180910390fd5b60008334338560405162000bb59062000f5a565b62000bc4949392919062001a5b565b604051809103906000f08015801562000be1573d6000803e3d6000fd5b50905060008190506000339050600260008273ffffffffffffffffffffffffffffffffffffffff1673ffffffffffffffffffffffffffffffffffffffff168152602001908152602001600020829080600181540180825580915050600190039060005260206000200160009091909190916101000a81548173ffffffffffffffffffffffffffffffffffffffff021916908373ffffffffffffffffffffffffffffffffffffffff16021790555081935050505092915050565b60008054906101000a900473ffffffffffffffffffffffffffffffffffffffff1673ffffffffffffffffffffffffffffffffffffffff163373ffffffffffffffffffffffffffffffffffffffff161462000d2b576040517f08c379a000000000000000000000000000000000000000000000000000000000815260040162000d22906200160a565b60405180910390fd5b80600360008473ffffffffffffffffffffffffffffffffffffffff1673ffffffffffffffffffffffffffffffffffffffff16815260200190815260200160002060006101000a81548160ff0219169083151502179055505050565b60008060009054906101000a900473ffffffffffffffffffffffffffffffffffffffff1673ffffffffffffffffffffffffffffffffffffffff163373ffffffffffffffffffffffffffffffffffffffff161462000e1a576040517f08c379a000000000000000000000000000000000000000000000000000000000815260040162000e11906200160a565b60405180910390fd5b600360008373ffffffffffffffffffffffffffffffffffffffff1673ffffffffffffffffffffffffffffffffffffffff16815260200190815260200160002060009054906101000a900460ff169050919050565b60008054906101000a900473ffffffffffffffffffffffffffffffffffffffff1673ffffffffffffffffffffffffffffffffffffffff163373ffffffffffffffffffffffffffffffffffffffff161462000eff576040517f08c379a000000000000000000000000000000000000000000000000000000000815260040162000ef6906200160a565b60405180910390fd5b6001600360008373ffffffffffffffffffffffffffffffffffffffff1673ffffffffffffffffffffffffffffffffffffffff16815260200190815260200160002060006101000a81548160ff02191690831515021790555050565b6126aa8062001ab083390190565b6000604051905090565b600080fd5b600080fd5b600073ffffffffffffffffffffffffffffffffffffffff82169050919050565b600062000fa98262000f7c565b9050919050565b62000fbb8162000f9c565b811462000fc757600080fd5b50565b60008135905062000fdb8162000fb0565b92915050565b6000819050919050565b62000ff68162000fe1565b81146200100257600080fd5b50565b600081359050620010168162000feb565b92915050565b6000806040838503121562001036576200103562000f72565b5b6000620010468582860162000fca565b9250506020620010598582860162001005565b9150509250929050565b600081519050919050565b600082825260208201905092915050565b6000819050602082019050919050565b6200109a8162000f9c565b82525050565b6000620010ae83836200108f565b60208301905092915050565b6000602082019050919050565b6000620010d48262001063565b620010e081856200106e565b9350620010ed836200107f565b8060005b8381101562001124578151620011088882620010a0565b97506200111583620010ba565b925050600181019050620010f1565b5085935050505092915050565b600060208201905081810360008301526200114d8184620010c7565b905092915050565b6000602082840312156200116e576200116d62000f72565b5b60006200117e8482850162001005565b91505092915050565b620011928162000fe1565b82525050565b6000602082019050620011af600083018462001187565b92915050565b600080600060608486031215620011d157620011d062000f72565b5b6000620011e18682870162000fca565b9350506020620011f48682870162001005565b9250506040620012078682870162001005565b9150509250925092565b600080fd5b600080fd5b6000601f19601f8301169050919050565b7f4e487b7100000000000000000000000000000000000000000000000000000000600052604160045260246000fd5b62001266826200121b565b810181811067ffffffffffffffff821117156200128857620012876200122c565b5b80604052505050565b60006200129d62000f68565b9050620012ab82826200125b565b919050565b600067ffffffffffffffff821115620012ce57620012cd6200122c565b5b620012d9826200121b565b9050602081019050919050565b82818337600083830152505050565b60006200130c6200130684620012b0565b62001291565b9050828152602081018484840111156200132b576200132a62001216565b5b62001338848285620012e6565b509392505050565b600082601f83011262001358576200135762001211565b5b81356200136a848260208601620012f5565b91505092915050565b600080604083850312156200138d576200138c62000f72565b5b600083013567ffffffffffffffff811115620013ae57620013ad62000f77565b5b620013bc8582860162001340565b9250506020620013cf8582860162001005565b9150509250929050565b620013e48162000f9c565b82525050565b6000602082019050620014016000830184620013d9565b92915050565b60008115159050919050565b6200141e8162001407565b81146200142a57600080fd5b50565b6000813590506200143e8162001413565b92915050565b600080604083850312156200145e576200145d62000f72565b5b60006200146e8582860162000fca565b925050602062001481858286016200142d565b9150509250929050565b600060208284031215620014a457620014a362000f72565b5b6000620014b48482850162000fca565b91505092915050565b620014c88162001407565b82525050565b6000602082019050620014e56000830184620014bd565b92915050565b600082825260208201905092915050565b7f526571756972656420612076616c6964206576616c7561746f7220617070726f60008201527f7665642062792074686520636f6d70616e790000000000000000000000000000602082015250565b60006200155a603283620014eb565b91506200156782620014fc565b604082019050919050565b600060208201905081810360008301526200158d816200154b565b9050919050565b7f4a7573742074686520696e737572616e636520636f6d70616e792063616e207060008201527f6572666f726d207468697320616374696f6e0000000000000000000000000000602082015250565b6000620015f2603283620014eb565b9150620015ff8262001594565b604082019050919050565b600060208201905081810360008301526200162581620015e3565b9050919050565b7f5468657265206973206e6f7420656e6f75676820616d6f756e7420746f20776960008201527f7468647261770000000000000000000000000000000000000000000000000000602082015250565b60006200168a602683620014eb565b915062001697826200162c565b604082019050919050565b60006020820190508181036000830152620016bd816200167b565b9050919050565b7f546f2072656e6577206120706f6c69637920796f75206d75737420706179206160008201527f207072656d69756d2e0000000000000000000000000000000000000000000000602082015250565b600062001722602983620014eb565b91506200172f82620016c4565b604082019050919050565b60006020820190508181036000830152620017558162001713565b9050919050565b6000815190506200176d8162000fb0565b92915050565b6000602082840312156200178c576200178b62000f72565b5b60006200179c848285016200175c565b91505092915050565b7f4a7573742074686520706f6c696379686f6c646572206f662074686520706f6c60008201527f6963792069732061626c6520746f2072656e65772069742e0000000000000000602082015250565b600062001803603883620014eb565b91506200181082620017a5565b604082019050919050565b600060208201905081810360008301526200183681620017f4565b9050919050565b6000815190506200184e8162000feb565b92915050565b6000602082840312156200186d576200186c62000f72565b5b60006200187d848285016200183d565b91505092915050565b7f496e73756666696369656e742062616c616e636520746f20706179207468652060008201527f636c61696d2e0000000000000000000000000000000000000000000000000000602082015250565b6000620018e4602683620014eb565b9150620018f18262001886565b604082019050919050565b600060208201905081810360008301526200191781620018d5565b9050919050565b600060408201905062001935600083018562001187565b62001944602083018462001187565b9392505050565b7f546f20637265617465206120706f6c69637920796f75206d757374207061792060008201527f61207072656d69756d2e00000000000000000000000000000000000000000000602082015250565b6000620019a9602a83620014eb565b9150620019b6826200194b565b604082019050919050565b60006020820190508181036000830152620019dc816200199a565b9050919050565b600081519050919050565b60005b8381101562001a0e578082015181840152602081019050620019f1565b60008484015250505050565b600062001a2782620019e3565b62001a338185620014eb565b935062001a45818560208601620019ee565b62001a50816200121b565b840191505092915050565b6000608082019050818103600083015262001a77818762001a1a565b905062001a88602083018662001187565b62001a976040830185620013d9565b62001aa6606083018462001187565b9594505050505056fe60806040523480156200001157600080fd5b50604051620026aa380380620026aa833981810160405281019062000037919062000403565b4281116200007c576040517f08c379a00000000000000000000000000000000000000000000000000000000081526004016200007390620004f5565b60405180910390fd5b60008311620000c2576040517f08c379a0000000000000000000000000000000000000000000000000000000008152600401620000b9906200058d565b60405180910390fd5b8360009081620000d39190620007f0565b508260018190555081600260006101000a81548173ffffffffffffffffffffffffffffffffffffffff021916908373ffffffffffffffffffffffffffffffffffffffff16021790555033600360006101000a81548173ffffffffffffffffffffffffffffffffffffffff021916908373ffffffffffffffffffffffffffffffffffffffff16021790555042600581905550806004819055507f2ae68230dd9c1c06842490953a33785a09292650f8c76b1a20b2fbbb214a896c600260009054906101000a900473ffffffffffffffffffffffffffffffffffffffff16604051620001be9190620008e8565b60405180910390a15050505062000905565b6000604051905090565b600080fd5b600080fd5b600080fd5b600080fd5b6000601f19601f8301169050919050565b7f4e487b7100000000000000000000000000000000000000000000000000000000600052604160045260246000fd5b6200023982620001ee565b810181811067ffffffffffffffff821117156200025b576200025a620001ff565b5b80604052505050565b600062000270620001d0565b90506200027e82826200022e565b919050565b600067ffffffffffffffff821115620002a157620002a0620001ff565b5b620002ac82620001ee565b9050602081019050919050565b60005b83811015620002d9578082015181840152602081019050620002bc565b60008484015250505050565b6000620002fc620002f68462000283565b62000264565b9050828152602081018484840111156200031b576200031a620001e9565b5b62000328848285620002b9565b509392505050565b600082601f830112620003485762000347620001e4565b5b81516200035a848260208601620002e5565b91505092915050565b6000819050919050565b620003788162000363565b81146200038457600080fd5b50565b60008151905062000398816200036d565b92915050565b600073ffffffffffffffffffffffffffffffffffffffff82169050919050565b6000620003cb826200039e565b9050919050565b620003dd81620003be565b8114620003e957600080fd5b50565b600081519050620003fd81620003d2565b92915050565b6000806000806080858703121562000420576200041f620001da565b5b600085015167ffffffffffffffff811115620004415762000440620001df565b5b6200044f8782880162000330565b9450506020620004628782880162000387565b93505060406200047587828801620003ec565b9250506060620004888782880162000387565b91505092959194509250565b600082825260208201905092915050565b7f52656e6577616c20646174652068617320746f206265207570636f6d696e6700600082015250565b6000620004dd601f8362000494565b9150620004ea82620004a5565b602082019050919050565b600060208201905081810360008301526200051081620004ce565b9050919050565b7f52657175697265642061207072656d69756d20746f206163746976617465207460008201527f686520706f6c6963790000000000000000000000000000000000000000000000602082015250565b60006200057560298362000494565b9150620005828262000517565b604082019050919050565b60006020820190508181036000830152620005a88162000566565b9050919050565b600081519050919050565b7f4e487b7100000000000000000000000000000000000000000000000000000000600052602260045260246000fd5b600060028204905060018216806200060257607f821691505b602082108103620006185762000617620005ba565b5b50919050565b60008190508160005260206000209050919050565b60006020601f8301049050919050565b600082821b905092915050565b600060088302620006827fffffffffffffffffffffffffffffffffffffffffffffffffffffffffffffffff8262000643565b6200068e868362000643565b95508019841693508086168417925050509392505050565b6000819050919050565b6000620006d1620006cb620006c58462000363565b620006a6565b62000363565b9050919050565b6000819050919050565b620006ed83620006b0565b62000705620006fc82620006d8565b84845462000650565b825550505050565b600090565b6200071c6200070d565b62000729818484620006e2565b505050565b5b8181101562000751576200074560008262000712565b6001810190506200072f565b5050565b601f821115620007a0576200076a816200061e565b620007758462000633565b8101602085101562000785578190505b6200079d620007948562000633565b8301826200072e565b50505b505050565b600082821c905092915050565b6000620007c560001984600802620007a5565b1980831691505092915050565b6000620007e08383620007b2565b9150826002028217905092915050565b620007fb82620005af565b67ffffffffffffffff811115620008175762000816620001ff565b5b620008238254620005e9565b6200083082828562000755565b600060209050601f83116001811462000868576000841562000853578287015190505b6200085f8582620007d2565b865550620008cf565b601f19841662000878866200061e565b60005b82811015620008a2578489015182556001820191506020850194506020810190506200087b565b86831015620008c25784890151620008be601f891682620007b2565b8355505b6001600288020188555050505b505050505050565b620008e281620003be565b82525050565b6000602082019050620008ff6000830184620008d7565b92915050565b611d9580620009156000396000f3fe608060405234801561001057600080fd5b506004361061009e5760003560e01c806360847c241161006657806360847c24146101475780637fbe658c14610165578063b135648814610181578063f119c4631461019f578063f3563e71146101bb5761009e565b80630c4f65bd146100a35780630fa5fd6c146100c15780634ef2cc00146100dd5780635aef2447146100e75780635baa750914610117575b600080fd5b6100ab6101d9565b6040516100b891906110b8565b60405180910390f35b6100db60048036038101906100d691906113a1565b6102eb565b005b6100e5610501565b005b61010160048036038101906100fc91906113fd565b61066f565b60405161010e9190611572565b60405180910390f35b610131600480360381019061012c91906113fd565b6108c0565b60405161013e91906115a3565b60405180910390f35b61014f6109e0565b60405161015c9190611608565b60405180910390f35b61017f600480360381019061017a919061162a565b610b5a565b005b610189610c51565b60405161019691906115a3565b60405180910390f35b6101b960048036038101906101b491906113fd565b610d43565b005b6101c3610e18565b6040516101d09190611719565b60405180910390f35b6000600360009054906101000a900473ffffffffffffffffffffffffffffffffffffffff1673ffffffffffffffffffffffffffffffffffffffff163373ffffffffffffffffffffffffffffffffffffffff1614806102845750600260009054906101000a900473ffffffffffffffffffffffffffffffffffffffff1673ffffffffffffffffffffffffffffffffffffffff163373ffffffffffffffffffffffffffffffffffffffff16145b6102c3576040517f08c379a00000000000000000000000000000000000000000000000000000000081526004016102ba906117d3565b60405180910390fd5b600260009054906101000a900473ffffffffffffffffffffffffffffffffffffffff16905090565b600260009054906101000a900473ffffffffffffffffffffffffffffffffffffffff1673ffffffffffffffffffffffffffffffffffffffff163373ffffffffffffffffffffffffffffffffffffffff161461037b576040517f08c379a000000000000000000000000000000000000000000000000000000000815260040161037290611865565b60405180910390fd5b42600454116103bf576040517f08c379a00000000000000000000000000000000000000000000000000000000081526004016103b6906118d1565b60405180910390fd5b6000819050806006600085815260200190815260200160002060008201518160000190816103ed9190611afd565b5060208201518160010160006101000a81548173ffffffffffffffffffffffffffffffffffffffff021916908373ffffffffffffffffffffffffffffffffffffffff160217905550604082015181600201556060820151816003015560808201518160040160006101000a81548160ff02191690831515021790555060a0820151816005015560c08201518160060160006101000a81548160ff02191690831515021790555090505060006006600085815260200190815260200160002060060160006101000a81548160ff0219169083151502179055507f638e2a6aeee887a0d14ed55e72f023c4cc608d74f3fc9d7dd46fa6355fd0ea49836040516104f491906115a3565b60405180910390a1505050565b600360009054906101000a900473ffffffffffffffffffffffffffffffffffffffff1673ffffffffffffffffffffffffffffffffffffffff163373ffffffffffffffffffffffffffffffffffffffff1614806105aa5750600260009054906101000a900473ffffffffffffffffffffffffffffffffffffffff1673ffffffffffffffffffffffffffffffffffffffff163373ffffffffffffffffffffffffffffffffffffffff16145b6105e9576040517f08c379a00000000000000000000000000000000000000000000000000000000081526004016105e0906117d3565b60405180910390fd5b426004541161062d576040517f08c379a0000000000000000000000000000000000000000000000000000000008152600401610624906118d1565b60405180910390fd5b426004819055507f5af4c37852e46c039a8fb4eedfcc916d59262430de08a63b8976b07efb8141ef60045460405161066591906115a3565b60405180910390a1565b610677611020565b600360009054906101000a900473ffffffffffffffffffffffffffffffffffffffff1673ffffffffffffffffffffffffffffffffffffffff163373ffffffffffffffffffffffffffffffffffffffff1614806107205750600260009054906101000a900473ffffffffffffffffffffffffffffffffffffffff1673ffffffffffffffffffffffffffffffffffffffff163373ffffffffffffffffffffffffffffffffffffffff16145b61075f576040517f08c379a0000000000000000000000000000000000000000000000000000000008152600401610756906117d3565b60405180910390fd5b600660008381526020019081526020016000206040518060e001604052908160008201805461078d90611920565b80601f01602080910402602001604051908101604052809291908181526020018280546107b990611920565b80156108065780601f106107db57610100808354040283529160200191610806565b820191906000526020600020905b8154815290600101906020018083116107e957829003601f168201915b505050505081526020016001820160009054906101000a900473ffffffffffffffffffffffffffffffffffffffff1673ffffffffffffffffffffffffffffffffffffffff1673ffffffffffffffffffffffffffffffffffffffff16815260200160028201548152602001600382015481526020016004820160009054906101000a900460ff16151515158152602001600582015481526020016006820160009054906101000a900460ff1615151515815250509050919050565b6000600360009054906101000a900473ffffffffffffffffffffffffffffffffffffffff1673ffffffffffffffffffffffffffffffffffffffff163373ffffffffffffffffffffffffffffffffffffffff1614610952576040517f08c379a000000000000000000000000000000000000000000000000000000000815260040161094990611c41565b60405180910390fd5b6004548211610996576040517f08c379a000000000000000000000000000000000000000000000000000000000815260040161098d90611cd3565b60405180910390fd5b816004819055507f5d7ac495f70da95795bf1e013229e085d2330c3d85625768e8d8147cde21584c6004546040516109ce91906115a3565b60405180910390a16004549050919050565b6060600360009054906101000a900473ffffffffffffffffffffffffffffffffffffffff1673ffffffffffffffffffffffffffffffffffffffff163373ffffffffffffffffffffffffffffffffffffffff161480610a8b5750600260009054906101000a900473ffffffffffffffffffffffffffffffffffffffff1673ffffffffffffffffffffffffffffffffffffffff163373ffffffffffffffffffffffffffffffffffffffff16145b610aca576040517f08c379a0000000000000000000000000000000000000000000000000000000008152600401610ac1906117d3565b60405180910390fd5b60008054610ad790611920565b80601f0160208091040260200160405190810160405280929190818152602001828054610b0390611920565b8015610b505780601f10610b2557610100808354040283529160200191610b50565b820191906000526020600020905b815481529060010190602001808311610b3357829003601f168201915b5050505050905090565b600360009054906101000a900473ffffffffffffffffffffffffffffffffffffffff1673ffffffffffffffffffffffffffffffffffffffff163373ffffffffffffffffffffffffffffffffffffffff1614610bea576040517f08c379a0000000000000000000000000000000000000000000000000000000008152600401610be190611c41565b60405180910390fd5b6000600660008481526020019081526020016000209050610c0c836001610f58565b8181600301819055507fd2d0ed0cccc8615643ade1eff3929a29ed8df75ebca85a3996e311c9b69e228983604051610c4491906115a3565b60405180910390a1505050565b6000600360009054906101000a900473ffffffffffffffffffffffffffffffffffffffff1673ffffffffffffffffffffffffffffffffffffffff163373ffffffffffffffffffffffffffffffffffffffff161480610cfc5750600260009054906101000a900473ffffffffffffffffffffffffffffffffffffffff1673ffffffffffffffffffffffffffffffffffffffff163373ffffffffffffffffffffffffffffffffffffffff16145b610d3b576040517f08c379a0000000000000000000000000000000000000000000000000000000008152600401610d32906117d3565b60405180910390fd5b600454905090565b600360009054906101000a900473ffffffffffffffffffffffffffffffffffffffff1673ffffffffffffffffffffffffffffffffffffffff163373ffffffffffffffffffffffffffffffffffffffff1614610dd3576040517f08c379a0000000000000000000000000000000000000000000000000000000008152600401610dca90611c41565b60405180910390fd5b610dde816000610f58565b7f02d319d3445ae98d88bc3ebef5c58a74cdf7fc53e3191dadfbf75745ae49cd7d81604051610e0d91906115a3565b60405180910390a150565b6060600360009054906101000a900473ffffffffffffffffffffffffffffffffffffffff1673ffffffffffffffffffffffffffffffffffffffff163373ffffffffffffffffffffffffffffffffffffffff161480610ec35750600260009054906101000a900473ffffffffffffffffffffffffffffffffffffffff1673ffffffffffffffffffffffffffffffffffffffff163373ffffffffffffffffffffffffffffffffffffffff16145b610f02576040517f08c379a0000000000000000000000000000000000000000000000000000000008152600401610ef9906117d3565b60405180910390fd5b6007805480602002602001604051908101604052809291908181526020018280548015610f4e57602002820191906000526020600020905b815481526020019060010190808311610f3a575b5050505050905090565b6000600660008481526020019081526020016000209050600015158160060160009054906101000a900460ff16151514610fc7576040517f08c379a0000000000000000000000000000000000000000000000000000000008152600401610fbe90611d3f565b60405180910390fd5b42816005018190555060016006600085815260200190815260200160002060060160006101000a81548160ff021916908315150217905550818160040160006101000a81548160ff021916908315150217905550505050565b6040518060e0016040528060608152602001600073ffffffffffffffffffffffffffffffffffffffff1681526020016000815260200160008152602001600015158152602001600081526020016000151581525090565b600073ffffffffffffffffffffffffffffffffffffffff82169050919050565b60006110a282611077565b9050919050565b6110b281611097565b82525050565b60006020820190506110cd60008301846110a9565b92915050565b6000604051905090565b600080fd5b600080fd5b6000819050919050565b6110fa816110e7565b811461110557600080fd5b50565b600081359050611117816110f1565b92915050565b600080fd5b6000601f19601f8301169050919050565b7f4e487b7100000000000000000000000000000000000000000000000000000000600052604160045260246000fd5b61116b82611122565b810181811067ffffffffffffffff8211171561118a57611189611133565b5b80604052505050565b600061119d6110d3565b90506111a98282611162565b919050565b600080fd5b600080fd5b600080fd5b600067ffffffffffffffff8211156111d8576111d7611133565b5b6111e182611122565b9050602081019050919050565b82818337600083830152505050565b600061121061120b846111bd565b611193565b90508281526020810184848401111561122c5761122b6111b8565b5b6112378482856111ee565b509392505050565b600082601f830112611254576112536111b3565b5b81356112648482602086016111fd565b91505092915050565b61127681611097565b811461128157600080fd5b50565b6000813590506112938161126d565b92915050565b60008115159050919050565b6112ae81611299565b81146112b957600080fd5b50565b6000813590506112cb816112a5565b92915050565b600060e082840312156112e7576112e661111d565b5b6112f160e0611193565b9050600082013567ffffffffffffffff811115611311576113106111ae565b5b61131d8482850161123f565b600083015250602061133184828501611284565b602083015250604061134584828501611108565b604083015250606061135984828501611108565b606083015250608061136d848285016112bc565b60808301525060a061138184828501611108565b60a08301525060c0611395848285016112bc565b60c08301525092915050565b600080604083850312156113b8576113b76110dd565b5b60006113c685828601611108565b925050602083013567ffffffffffffffff8111156113e7576113e66110e2565b5b6113f3858286016112d1565b9150509250929050565b600060208284031215611413576114126110dd565b5b600061142184828501611108565b91505092915050565b600081519050919050565b600082825260208201905092915050565b60005b83811015611464578082015181840152602081019050611449565b60008484015250505050565b600061147b8261142a565b6114858185611435565b9350611495818560208601611446565b61149e81611122565b840191505092915050565b6114b281611097565b82525050565b6114c1816110e7565b82525050565b6114d081611299565b82525050565b600060e08301600083015184820360008601526114f38282611470565b915050602083015161150860208601826114a9565b50604083015161151b60408601826114b8565b50606083015161152e60608601826114b8565b50608083015161154160808601826114c7565b5060a083015161155460a08601826114b8565b5060c083015161156760c08601826114c7565b508091505092915050565b6000602082019050818103600083015261158c81846114d6565b905092915050565b61159d816110e7565b82525050565b60006020820190506115b86000830184611594565b92915050565b600082825260208201905092915050565b60006115da8261142a565b6115e481856115be565b93506115f4818560208601611446565b6115fd81611122565b840191505092915050565b6000602082019050818103600083015261162281846115cf565b905092915050565b60008060408385031215611641576116406110dd565b5b600061164f85828601611108565b925050602061166085828601611108565b9150509250929050565b600081519050919050565b600082825260208201905092915050565b6000819050602082019050919050565b60006116a283836114b8565b60208301905092915050565b6000602082019050919050565b60006116c68261166a565b6116d08185611675565b93506116db83611686565b8060005b8381101561170c5781516116f38882611696565b97506116fe836116ae565b9250506001810190506116df565b5085935050505092915050565b6000602082019050818103600083015261173381846116bb565b905092915050565b7f4a7573742074686520706f6c696379686f6c646572206f722074686520696e7360008201527f7572616e636520636f6d70616e792063616e20706572666f726d20746869732060208201527f616374696f6e0000000000000000000000000000000000000000000000000000604082015250565b60006117bd6046836115be565b91506117c88261173b565b606082019050919050565b600060208201905081810360008301526117ec816117b0565b9050919050565b7f4a7573742074686520706f6c696379686f6c6465722063616e20706572666f7260008201527f6d207468697320616374696f6e00000000000000000000000000000000000000602082015250565b600061184f602d836115be565b915061185a826117f3565b604082019050919050565b6000602082019050818103600083015261187e81611842565b9050919050565b7f506f6c696379206973206e6f7420616374697665000000000000000000000000600082015250565b60006118bb6014836115be565b91506118c682611885565b602082019050919050565b600060208201905081810360008301526118ea816118ae565b9050919050565b7f4e487b7100000000000000000000000000000000000000000000000000000000600052602260045260246000fd5b6000600282049050600182168061193857607f821691505b60208210810361194b5761194a6118f1565b5b50919050565b60008190508160005260206000209050919050565b60006020601f8301049050919050565b600082821b905092915050565b6000600883026119b37fffffffffffffffffffffffffffffffffffffffffffffffffffffffffffffffff82611976565b6119bd8683611976565b95508019841693508086168417925050509392505050565b6000819050919050565b60006119fa6119f56119f0846110e7565b6119d5565b6110e7565b9050919050565b6000819050919050565b611a14836119df565b611a28611a2082611a01565b848454611983565b825550505050565b600090565b611a3d611a30565b611a48818484611a0b565b505050565b5b81811015611a6c57611a61600082611a35565b600181019050611a4e565b5050565b601f821115611ab157611a8281611951565b611a8b84611966565b81016020851015611a9a578190505b611aae611aa685611966565b830182611a4d565b50505b505050565b600082821c905092915050565b6000611ad460001984600802611ab6565b1980831691505092915050565b6000611aed8383611ac3565b9150826002028217905092915050565b611b068261142a565b67ffffffffffffffff811115611b1f57611b1e611133565b5b611b298254611920565b611b34828285611a70565b600060209050601f831160018114611b675760008415611b55578287015190505b611b5f8582611ae1565b865550611bc7565b601f198416611b7586611951565b60005b82811015611b9d57848901518255600182019150602085019450602081019050611b78565b86831015611bba5784890151611bb6601f891682611ac3565b8355505b6001600288020188555050505b505050505050565b7f4a7573742074686520696e737572616e636520636f6d70616e792063616e207060008201527f6572666f726d207468697320616374696f6e0000000000000000000000000000602082015250565b6000611c2b6032836115be565b9150611c3682611bcf565b604082019050919050565b60006020820190508181036000830152611c5a81611c1e565b9050919050565b7f4e657720656e6420646174652068617320746f2062652061667465722074686560008201527f2063757272656e74206f6e650000000000000000000000000000000000000000602082015250565b6000611cbd602c836115be565b9150611cc882611c61565b604082019050919050565b60006020820190508181036000830152611cec81611cb0565b9050919050565b7f436c61696d20697320616c7265616479207265736f6c76656400000000000000600082015250565b6000611d296019836115be565b9150611d3482611cf3565b602082019050919050565b60006020820190508181036000830152611d5881611d1c565b905091905056fea2646970667358221220c475c08c77c41f699b808a8a14e73bd821050b13c00f5922580cc1e22706023a64736f6c63430008130033a264697066735822122089e46045679221c92f2a56b6ef1112e5ffce2714e530314e905557466aad576c64736f6c63430008130033",
  "linkReferences": {},
  "deployedLinkReferences": {}
}