{
  "_format": "hh-sol-artifact-1",
  "contractName": "Policy",
  "sourceName": "contracts/Policy.sol",
  "abi": [
    {
      "inputs": [
        {
          "internalType": "string",
          "name": "_proposalData",
          "type": "string"
        },
        {
          "internalType": "uint256",
          "name": "_premium",
          "type": "uint256"
        },
        {
          "internalType": "address",
          "name": "_owner",
          "type": "address"
        },
        {
          "internalType": "uint256",
          "name": "_endDate",
          "type": "uint256"
        }
      ],
      "stateMutability": "nonpayable",
      "type": "constructor"
    },
    {
      "anonymous": false,
      "inputs": [
        {
          "indexed": false,
          "internalType": "uint256",
          "name": "endDate",
          "type": "uint256"
        }
      ],
      "name": "Cancelation",
      "type": "event"
    },
    {
      "anonymous": false,
      "inputs": [
        {
          "indexed": false,
          "internalType": "uint256",
          "name": "claimId",
          "type": "uint256"
        }
      ],
      "name": "ClaimApproved",
      "type": "event"
    },
    {
      "anonymous": false,
      "inputs": [
        {
          "indexed": false,
          "internalType": "uint256",
          "name": "claimId",
          "type": "uint256"
        }
      ],
      "name": "ClaimDeclaration",
      "type": "event"
    },
    {
      "anonymous": false,
      "inputs": [
        {
          "indexed": false,
          "internalType": "uint256",
          "name": "claimId",
          "type": "uint256"
        }
      ],
      "name": "ClaimDeclined",
      "type": "event"
    },
    {
      "anonymous": false,
      "inputs": [
        {
          "indexed": false,
          "internalType": "address",
          "name": "policyholderAddress",
          "type": "address"
        }
      ],
      "name": "Creation",
      "type": "event"
    },
    {
      "anonymous": false,
      "inputs": [
        {
          "indexed": false,
          "internalType": "uint256",
          "name": "endDate",
          "type": "uint256"
        }
      ],
      "name": "Renewal",
      "type": "event"
    },
    {
      "inputs": [
        {
          "internalType": "uint256",
          "name": "claimId",
          "type": "uint256"
        },
        {
          "internalType": "uint256",
          "name": "claimExpenses",
          "type": "uint256"
        }
      ],
      "name": "approveClaim",
      "outputs": [],
      "stateMutability": "nonpayable",
      "type": "function"
    },
    {
      "inputs": [],
      "name": "cancelPolicy",
      "outputs": [],
      "stateMutability": "nonpayable",
      "type": "function"
    },
    {
      "inputs": [
        {
          "internalType": "uint256",
          "name": "claimId",
          "type": "uint256"
        }
      ],
      "name": "declineClaim",
      "outputs": [],
      "stateMutability": "nonpayable",
      "type": "function"
    },
    {
      "inputs": [
        {
          "internalType": "uint256",
          "name": "claimId",
          "type": "uint256"
        }
      ],
      "name": "getClaim",
      "outputs": [
        {
          "components": [
            {
              "internalType": "string",
              "name": "title",
              "type": "string"
            },
            {
              "internalType": "address",
              "name": "expertAddress",
              "type": "address"
            },
            {
              "internalType": "uint256",
              "name": "incidentDate",
              "type": "uint256"
            },
            {
              "internalType": "uint256",
              "name": "expenses",
              "type": "uint256"
            },
            {
              "internalType": "bool",
              "name": "approved",
              "type": "bool"
            },
            {
              "internalType": "uint256",
              "name": "resolveDate",
              "type": "uint256"
            },
            {
              "internalType": "bool",
              "name": "isResolved",
              "type": "bool"
            }
          ],
          "internalType": "struct Claim",
          "name": "",
          "type": "tuple"
        }
      ],
      "stateMutability": "view",
      "type": "function"
    },
    {
      "inputs": [],
      "name": "getClaimsList",
      "outputs": [
        {
          "internalType": "uint256[]",
          "name": "",
          "type": "uint256[]"
        }
      ],
      "stateMutability": "view",
      "type": "function"
    },
    {
      "inputs": [],
      "name": "getEndDate",
      "outputs": [
        {
          "internalType": "uint256",
          "name": "",
          "type": "uint256"
        }
      ],
      "stateMutability": "view",
      "type": "function"
    },
    {
      "inputs": [],
      "name": "getIsActive",
      "outputs": [
        {
          "internalType": "bool",
          "name": "",
          "type": "bool"
        }
      ],
      "stateMutability": "view",
      "type": "function"
    },
    {
      "inputs": [],
      "name": "getOwnerAddress",
      "outputs": [
        {
          "internalType": "address",
          "name": "",
          "type": "address"
        }
      ],
      "stateMutability": "view",
      "type": "function"
    },
    {
      "inputs": [],
      "name": "getPremium",
      "outputs": [
        {
          "internalType": "uint256",
          "name": "",
          "type": "uint256"
        }
      ],
      "stateMutability": "view",
      "type": "function"
    },
    {
      "inputs": [],
      "name": "getRenewalDate",
      "outputs": [
        {
          "internalType": "uint256",
          "name": "",
          "type": "uint256"
        }
      ],
      "stateMutability": "view",
      "type": "function"
    },
    {
      "inputs": [],
      "name": "getRiskData",
      "outputs": [
        {
          "internalType": "string",
          "name": "",
          "type": "string"
        }
      ],
      "stateMutability": "view",
      "type": "function"
    },
    {
      "inputs": [],
      "name": "getStartDate",
      "outputs": [
        {
          "internalType": "uint256",
          "name": "",
          "type": "uint256"
        }
      ],
      "stateMutability": "view",
      "type": "function"
    },
    {
      "inputs": [],
      "name": "insuranceAddress",
      "outputs": [
        {
          "internalType": "address",
          "name": "",
          "type": "address"
        }
      ],
      "stateMutability": "view",
      "type": "function"
    },
    {
      "inputs": [
        {
          "internalType": "uint256",
          "name": "claimId",
          "type": "uint256"
        },
        {
          "components": [
            {
              "internalType": "string",
              "name": "title",
              "type": "string"
            },
            {
              "internalType": "address",
              "name": "expertAddress",
              "type": "address"
            },
            {
              "internalType": "uint256",
              "name": "incidentDate",
              "type": "uint256"
            },
            {
              "internalType": "uint256",
              "name": "expenses",
              "type": "uint256"
            },
            {
              "internalType": "bool",
              "name": "approved",
              "type": "bool"
            },
            {
              "internalType": "uint256",
              "name": "resolveDate",
              "type": "uint256"
            },
            {
              "internalType": "bool",
              "name": "isResolved",
              "type": "bool"
            }
          ],
          "internalType": "struct Claim",
          "name": "_claim",
          "type": "tuple"
        }
      ],
      "name": "makeClaim",
      "outputs": [],
      "stateMutability": "nonpayable",
      "type": "function"
    },
    {
      "inputs": [
        {
          "internalType": "uint256",
          "name": "newEndDate",
          "type": "uint256"
        }
      ],
      "name": "renew",
      "outputs": [
        {
          "internalType": "uint256",
          "name": "",
          "type": "uint256"
        }
      ],
      "stateMutability": "nonpayable",
      "type": "function"
    }
  ],
  "bytecode": "0x60806040523480156200001157600080fd5b5060405162002b8138038062002b8183398181016040528101906200003791906200040a565b4281116200007c576040517f08c379a00000000000000000000000000000000000000000000000000000000081526004016200007390620004fc565b60405180910390fd5b60008311620000c2576040517f08c379a0000000000000000000000000000000000000000000000000000000008152600401620000b99062000594565b60405180910390fd5b8360009081620000d39190620007f7565b508260018190555081600260006101000a81548173ffffffffffffffffffffffffffffffffffffffff021916908373ffffffffffffffffffffffffffffffffffffffff16021790555033600360006101000a81548173ffffffffffffffffffffffffffffffffffffffff021916908373ffffffffffffffffffffffffffffffffffffffff1602179055504260068190555080600481905550806005819055507f2ae68230dd9c1c06842490953a33785a09292650f8c76b1a20b2fbbb214a896c600260009054906101000a900473ffffffffffffffffffffffffffffffffffffffff16604051620001c59190620008ef565b60405180910390a1505050506200090c565b6000604051905090565b600080fd5b600080fd5b600080fd5b600080fd5b6000601f19601f8301169050919050565b7f4e487b7100000000000000000000000000000000000000000000000000000000600052604160045260246000fd5b6200024082620001f5565b810181811067ffffffffffffffff8211171562000262576200026162000206565b5b80604052505050565b600062000277620001d7565b905062000285828262000235565b919050565b600067ffffffffffffffff821115620002a857620002a762000206565b5b620002b382620001f5565b9050602081019050919050565b60005b83811015620002e0578082015181840152602081019050620002c3565b60008484015250505050565b600062000303620002fd846200028a565b6200026b565b905082815260208101848484011115620003225762000321620001f0565b5b6200032f848285620002c0565b509392505050565b600082601f8301126200034f576200034e620001eb565b5b815162000361848260208601620002ec565b91505092915050565b6000819050919050565b6200037f816200036a565b81146200038b57600080fd5b50565b6000815190506200039f8162000374565b92915050565b600073ffffffffffffffffffffffffffffffffffffffff82169050919050565b6000620003d282620003a5565b9050919050565b620003e481620003c5565b8114620003f057600080fd5b50565b6000815190506200040481620003d9565b92915050565b60008060008060808587031215620004275762000426620001e1565b5b600085015167ffffffffffffffff811115620004485762000447620001e6565b5b620004568782880162000337565b945050602062000469878288016200038e565b93505060406200047c87828801620003f3565b92505060606200048f878288016200038e565b91505092959194509250565b600082825260208201905092915050565b7f52656e6577616c20646174652068617320746f206265207570636f6d696e6700600082015250565b6000620004e4601f836200049b565b9150620004f182620004ac565b602082019050919050565b600060208201905081810360008301526200051781620004d5565b9050919050565b7f52657175697265642061207072656d69756d20746f206163746976617465207460008201527f686520706f6c6963790000000000000000000000000000000000000000000000602082015250565b60006200057c6029836200049b565b915062000589826200051e565b604082019050919050565b60006020820190508181036000830152620005af816200056d565b9050919050565b600081519050919050565b7f4e487b7100000000000000000000000000000000000000000000000000000000600052602260045260246000fd5b600060028204905060018216806200060957607f821691505b6020821081036200061f576200061e620005c1565b5b50919050565b60008190508160005260206000209050919050565b60006020601f8301049050919050565b600082821b905092915050565b600060088302620006897fffffffffffffffffffffffffffffffffffffffffffffffffffffffffffffffff826200064a565b6200069586836200064a565b95508019841693508086168417925050509392505050565b6000819050919050565b6000620006d8620006d2620006cc846200036a565b620006ad565b6200036a565b9050919050565b6000819050919050565b620006f483620006b7565b6200070c6200070382620006df565b84845462000657565b825550505050565b600090565b6200072362000714565b62000730818484620006e9565b505050565b5b8181101562000758576200074c60008262000719565b60018101905062000736565b5050565b601f821115620007a757620007718162000625565b6200077c846200063a565b810160208510156200078c578190505b620007a46200079b856200063a565b83018262000735565b50505b505050565b600082821c905092915050565b6000620007cc60001984600802620007ac565b1980831691505092915050565b6000620007e78383620007b9565b9150826002028217905092915050565b6200080282620005b6565b67ffffffffffffffff8111156200081e576200081d62000206565b5b6200082a8254620005f0565b620008378282856200075c565b600060209050601f8311600181146200086f57600084156200085a578287015190505b620008668582620007d9565b865550620008d6565b601f1984166200087f8662000625565b60005b82811015620008a95784890151825560018201915060208501945060208101905062000882565b86831015620008c95784890151620008c5601f891682620007b9565b8355505b6001600288020188555050505b505050505050565b620008e981620003c5565b82525050565b6000602082019050620009066000830184620008de565b92915050565b612265806200091c6000396000f3fe608060405234801561001057600080fd5b50600436106100f55760003560e01c806378f305c611610097578063f119c46311610066578063f119c46314610250578063f11b5e251461026c578063f3563e711461028a578063fba7cc79146102a8576100f5565b806378f305c6146101da5780637fbe658c146101f8578063b135648814610214578063c974402914610232576100f5565b80632401273c116100d35780632401273c146101525780634ef2cc00146101705780635aef24471461017a5780635baa7509146101aa576100f5565b80630b68b2da146100fa5780630c4f65bd146101185780630fa5fd6c14610136575b600080fd5b6101026102c6565b60405161010f91906115ad565b60405180910390f35b610120610440565b60405161012d9190611610565b60405180910390f35b610150600480360381019061014b91906118e8565b610552565b005b61015a610775565b6040516101679190611610565b60405180910390f35b61017861079b565b005b610194600480360381019061018f9190611944565b6108be565b6040516101a19190611a84565b60405180910390f35b6101c460048036038101906101bf9190611944565b610b0f565b6040516101d19190611ab5565b60405180910390f35b6101e2610c36565b6040516101ef9190611ab5565b60405180910390f35b610212600480360381019061020d9190611ad0565b610d28565b005b61021c610e1f565b6040516102299190611ab5565b60405180910390f35b61023a610f11565b6040516102479190611ab5565b60405180910390f35b61026a60048036038101906102659190611944565b611003565b005b6102746110d8565b6040516102819190611ab5565b60405180910390f35b6102926111ca565b60405161029f9190611bbf565b60405180910390f35b6102b061130a565b6040516102bd9190611bf0565b60405180910390f35b6060600360009054906101000a900473ffffffffffffffffffffffffffffffffffffffff1673ffffffffffffffffffffffffffffffffffffffff163373ffffffffffffffffffffffffffffffffffffffff1614806103715750600260009054906101000a900473ffffffffffffffffffffffffffffffffffffffff1673ffffffffffffffffffffffffffffffffffffffff163373ffffffffffffffffffffffffffffffffffffffff16145b6103b0576040517f08c379a00000000000000000000000000000000000000000000000000000000081526004016103a790611ca3565b60405180910390fd5b600080546103bd90611cf2565b80601f01602080910402602001604051908101604052809291908181526020018280546103e990611cf2565b80156104365780601f1061040b57610100808354040283529160200191610436565b820191906000526020600020905b81548152906001019060200180831161041957829003601f168201915b5050505050905090565b6000600360009054906101000a900473ffffffffffffffffffffffffffffffffffffffff1673ffffffffffffffffffffffffffffffffffffffff163373ffffffffffffffffffffffffffffffffffffffff1614806104eb5750600260009054906101000a900473ffffffffffffffffffffffffffffffffffffffff1673ffffffffffffffffffffffffffffffffffffffff163373ffffffffffffffffffffffffffffffffffffffff16145b61052a576040517f08c379a000000000000000000000000000000000000000000000000000000000815260040161052190611ca3565b60405180910390fd5b600260009054906101000a900473ffffffffffffffffffffffffffffffffffffffff16905090565b600260009054906101000a900473ffffffffffffffffffffffffffffffffffffffff1673ffffffffffffffffffffffffffffffffffffffff163373ffffffffffffffffffffffffffffffffffffffff16146105e2576040517f08c379a00000000000000000000000000000000000000000000000000000000081526004016105d990611d95565b60405180910390fd5b426004541180156105f4575042600554115b610633576040517f08c379a000000000000000000000000000000000000000000000000000000000815260040161062a90611e01565b60405180910390fd5b6000819050806007600085815260200190815260200160002060008201518160000190816106619190611fcd565b5060208201518160010160006101000a81548173ffffffffffffffffffffffffffffffffffffffff021916908373ffffffffffffffffffffffffffffffffffffffff160217905550604082015181600201556060820151816003015560808201518160040160006101000a81548160ff02191690831515021790555060a0820151816005015560c08201518160060160006101000a81548160ff02191690831515021790555090505060006007600085815260200190815260200160002060060160006101000a81548160ff0219169083151502179055507f638e2a6aeee887a0d14ed55e72f023c4cc608d74f3fc9d7dd46fa6355fd0ea49836040516107689190611ab5565b60405180910390a1505050565b600360009054906101000a900473ffffffffffffffffffffffffffffffffffffffff1681565b600360009054906101000a900473ffffffffffffffffffffffffffffffffffffffff1673ffffffffffffffffffffffffffffffffffffffff163373ffffffffffffffffffffffffffffffffffffffff161461082b576040517f08c379a000000000000000000000000000000000000000000000000000000000815260040161082290612111565b60405180910390fd5b4260045411801561083d575042600554115b61087c576040517f08c379a000000000000000000000000000000000000000000000000000000000815260040161087390611e01565b60405180910390fd5b426004819055507f5af4c37852e46c039a8fb4eedfcc916d59262430de08a63b8976b07efb8141ef6004546040516108b49190611ab5565b60405180910390a1565b6108c66114c6565b600360009054906101000a900473ffffffffffffffffffffffffffffffffffffffff1673ffffffffffffffffffffffffffffffffffffffff163373ffffffffffffffffffffffffffffffffffffffff16148061096f5750600260009054906101000a900473ffffffffffffffffffffffffffffffffffffffff1673ffffffffffffffffffffffffffffffffffffffff163373ffffffffffffffffffffffffffffffffffffffff16145b6109ae576040517f08c379a00000000000000000000000000000000000000000000000000000000081526004016109a590611ca3565b60405180910390fd5b600760008381526020019081526020016000206040518060e00160405290816000820180546109dc90611cf2565b80601f0160208091040260200160405190810160405280929190818152602001828054610a0890611cf2565b8015610a555780601f10610a2a57610100808354040283529160200191610a55565b820191906000526020600020905b815481529060010190602001808311610a3857829003601f168201915b505050505081526020016001820160009054906101000a900473ffffffffffffffffffffffffffffffffffffffff1673ffffffffffffffffffffffffffffffffffffffff1673ffffffffffffffffffffffffffffffffffffffff16815260200160028201548152602001600382015481526020016004820160009054906101000a900460ff16151515158152602001600582015481526020016006820160009054906101000a900460ff1615151515815250509050919050565b6000600360009054906101000a900473ffffffffffffffffffffffffffffffffffffffff1673ffffffffffffffffffffffffffffffffffffffff163373ffffffffffffffffffffffffffffffffffffffff1614610ba1576040517f08c379a0000000000000000000000000000000000000000000000000000000008152600401610b9890612111565b60405180910390fd5b6004548211610be5576040517f08c379a0000000000000000000000000000000000000000000000000000000008152600401610bdc906121a3565b60405180910390fd5b81600481905550816005819055507f5d7ac495f70da95795bf1e013229e085d2330c3d85625768e8d8147cde21584c600454604051610c249190611ab5565b60405180910390a16005549050919050565b6000600360009054906101000a900473ffffffffffffffffffffffffffffffffffffffff1673ffffffffffffffffffffffffffffffffffffffff163373ffffffffffffffffffffffffffffffffffffffff161480610ce15750600260009054906101000a900473ffffffffffffffffffffffffffffffffffffffff1673ffffffffffffffffffffffffffffffffffffffff163373ffffffffffffffffffffffffffffffffffffffff16145b610d20576040517f08c379a0000000000000000000000000000000000000000000000000000000008152600401610d1790611ca3565b60405180910390fd5b600654905090565b600360009054906101000a900473ffffffffffffffffffffffffffffffffffffffff1673ffffffffffffffffffffffffffffffffffffffff163373ffffffffffffffffffffffffffffffffffffffff1614610db8576040517f08c379a0000000000000000000000000000000000000000000000000000000008152600401610daf90612111565b60405180910390fd5b6000600760008481526020019081526020016000209050610dda8360016113fe565b8181600301819055507fd2d0ed0cccc8615643ade1eff3929a29ed8df75ebca85a3996e311c9b69e228983604051610e129190611ab5565b60405180910390a1505050565b6000600360009054906101000a900473ffffffffffffffffffffffffffffffffffffffff1673ffffffffffffffffffffffffffffffffffffffff163373ffffffffffffffffffffffffffffffffffffffff161480610eca5750600260009054906101000a900473ffffffffffffffffffffffffffffffffffffffff1673ffffffffffffffffffffffffffffffffffffffff163373ffffffffffffffffffffffffffffffffffffffff16145b610f09576040517f08c379a0000000000000000000000000000000000000000000000000000000008152600401610f0090611ca3565b60405180910390fd5b600454905090565b6000600360009054906101000a900473ffffffffffffffffffffffffffffffffffffffff1673ffffffffffffffffffffffffffffffffffffffff163373ffffffffffffffffffffffffffffffffffffffff161480610fbc5750600260009054906101000a900473ffffffffffffffffffffffffffffffffffffffff1673ffffffffffffffffffffffffffffffffffffffff163373ffffffffffffffffffffffffffffffffffffffff16145b610ffb576040517f08c379a0000000000000000000000000000000000000000000000000000000008152600401610ff290611ca3565b60405180910390fd5b600154905090565b600360009054906101000a900473ffffffffffffffffffffffffffffffffffffffff1673ffffffffffffffffffffffffffffffffffffffff163373ffffffffffffffffffffffffffffffffffffffff1614611093576040517f08c379a000000000000000000000000000000000000000000000000000000000815260040161108a90612111565b60405180910390fd5b61109e8160006113fe565b7f02d319d3445ae98d88bc3ebef5c58a74cdf7fc53e3191dadfbf75745ae49cd7d816040516110cd9190611ab5565b60405180910390a150565b6000600360009054906101000a900473ffffffffffffffffffffffffffffffffffffffff1673ffffffffffffffffffffffffffffffffffffffff163373ffffffffffffffffffffffffffffffffffffffff1614806111835750600260009054906101000a900473ffffffffffffffffffffffffffffffffffffffff1673ffffffffffffffffffffffffffffffffffffffff163373ffffffffffffffffffffffffffffffffffffffff16145b6111c2576040517f08c379a00000000000000000000000000000000000000000000000000000000081526004016111b990611ca3565b60405180910390fd5b600554905090565b6060600360009054906101000a900473ffffffffffffffffffffffffffffffffffffffff1673ffffffffffffffffffffffffffffffffffffffff163373ffffffffffffffffffffffffffffffffffffffff1614806112755750600260009054906101000a900473ffffffffffffffffffffffffffffffffffffffff1673ffffffffffffffffffffffffffffffffffffffff163373ffffffffffffffffffffffffffffffffffffffff16145b6112b4576040517f08c379a00000000000000000000000000000000000000000000000000000000081526004016112ab90611ca3565b60405180910390fd5b600880548060200260200160405190810160405280929190818152602001828054801561130057602002820191906000526020600020905b8154815260200190600101908083116112ec575b5050505050905090565b6000600360009054906101000a900473ffffffffffffffffffffffffffffffffffffffff1673ffffffffffffffffffffffffffffffffffffffff163373ffffffffffffffffffffffffffffffffffffffff1614806113b55750600260009054906101000a900473ffffffffffffffffffffffffffffffffffffffff1673ffffffffffffffffffffffffffffffffffffffff163373ffffffffffffffffffffffffffffffffffffffff16145b6113f4576040517f08c379a00000000000000000000000000000000000000000000000000000000081526004016113eb90611ca3565b60405180910390fd5b4260045411905090565b6000600760008481526020019081526020016000209050600015158160060160009054906101000a900460ff1615151461146d576040517f08c379a00000000000000000000000000000000000000000000000000000000081526004016114649061220f565b60405180910390fd5b42816005018190555060016007600085815260200190815260200160002060060160006101000a81548160ff021916908315150217905550818160040160006101000a81548160ff021916908315150217905550505050565b6040518060e0016040528060608152602001600073ffffffffffffffffffffffffffffffffffffffff1681526020016000815260200160008152602001600015158152602001600081526020016000151581525090565b600081519050919050565b600082825260208201905092915050565b60005b8381101561155757808201518184015260208101905061153c565b60008484015250505050565b6000601f19601f8301169050919050565b600061157f8261151d565b6115898185611528565b9350611599818560208601611539565b6115a281611563565b840191505092915050565b600060208201905081810360008301526115c78184611574565b905092915050565b600073ffffffffffffffffffffffffffffffffffffffff82169050919050565b60006115fa826115cf565b9050919050565b61160a816115ef565b82525050565b60006020820190506116256000830184611601565b92915050565b6000604051905090565b600080fd5b600080fd5b6000819050919050565b6116528161163f565b811461165d57600080fd5b50565b60008135905061166f81611649565b92915050565b600080fd5b7f4e487b7100000000000000000000000000000000000000000000000000000000600052604160045260246000fd5b6116b282611563565b810181811067ffffffffffffffff821117156116d1576116d061167a565b5b80604052505050565b60006116e461162b565b90506116f082826116a9565b919050565b600080fd5b600080fd5b600080fd5b600067ffffffffffffffff82111561171f5761171e61167a565b5b61172882611563565b9050602081019050919050565b82818337600083830152505050565b600061175761175284611704565b6116da565b905082815260208101848484011115611773576117726116ff565b5b61177e848285611735565b509392505050565b600082601f83011261179b5761179a6116fa565b5b81356117ab848260208601611744565b91505092915050565b6117bd816115ef565b81146117c857600080fd5b50565b6000813590506117da816117b4565b92915050565b60008115159050919050565b6117f5816117e0565b811461180057600080fd5b50565b600081359050611812816117ec565b92915050565b600060e0828403121561182e5761182d611675565b5b61183860e06116da565b9050600082013567ffffffffffffffff811115611858576118576116f5565b5b61186484828501611786565b6000830152506020611878848285016117cb565b602083015250604061188c84828501611660565b60408301525060606118a084828501611660565b60608301525060806118b484828501611803565b60808301525060a06118c884828501611660565b60a08301525060c06118dc84828501611803565b60c08301525092915050565b600080604083850312156118ff576118fe611635565b5b600061190d85828601611660565b925050602083013567ffffffffffffffff81111561192e5761192d61163a565b5b61193a85828601611818565b9150509250929050565b60006020828403121561195a57611959611635565b5b600061196884828501611660565b91505092915050565b600082825260208201905092915050565b600061198d8261151d565b6119978185611971565b93506119a7818560208601611539565b6119b081611563565b840191505092915050565b6119c4816115ef565b82525050565b6119d38161163f565b82525050565b6119e2816117e0565b82525050565b600060e0830160008301518482036000860152611a058282611982565b9150506020830151611a1a60208601826119bb565b506040830151611a2d60408601826119ca565b506060830151611a4060608601826119ca565b506080830151611a5360808601826119d9565b5060a0830151611a6660a08601826119ca565b5060c0830151611a7960c08601826119d9565b508091505092915050565b60006020820190508181036000830152611a9e81846119e8565b905092915050565b611aaf8161163f565b82525050565b6000602082019050611aca6000830184611aa6565b92915050565b60008060408385031215611ae757611ae6611635565b5b6000611af585828601611660565b9250506020611b0685828601611660565b9150509250929050565b600081519050919050565b600082825260208201905092915050565b6000819050602082019050919050565b6000611b4883836119ca565b60208301905092915050565b6000602082019050919050565b6000611b6c82611b10565b611b768185611b1b565b9350611b8183611b2c565b8060005b83811015611bb2578151611b998882611b3c565b9750611ba483611b54565b925050600181019050611b85565b5085935050505092915050565b60006020820190508181036000830152611bd98184611b61565b905092915050565b611bea816117e0565b82525050565b6000602082019050611c056000830184611be1565b92915050565b7f4a7573742074686520706f6c696379686f6c646572206f722074686520696e7360008201527f7572616e636520636f6d70616e792063616e20706572666f726d20746869732060208201527f616374696f6e0000000000000000000000000000000000000000000000000000604082015250565b6000611c8d604683611528565b9150611c9882611c0b565b606082019050919050565b60006020820190508181036000830152611cbc81611c80565b9050919050565b7f4e487b7100000000000000000000000000000000000000000000000000000000600052602260045260246000fd5b60006002820490506001821680611d0a57607f821691505b602082108103611d1d57611d1c611cc3565b5b50919050565b7f4a7573742074686520706f6c696379686f6c6465722063616e20706572666f7260008201527f6d207468697320616374696f6e00000000000000000000000000000000000000602082015250565b6000611d7f602d83611528565b9150611d8a82611d23565b604082019050919050565b60006020820190508181036000830152611dae81611d72565b9050919050565b7f506f6c696379206973206e6f7420616374697665000000000000000000000000600082015250565b6000611deb601483611528565b9150611df682611db5565b602082019050919050565b60006020820190508181036000830152611e1a81611dde565b9050919050565b60008190508160005260206000209050919050565b60006020601f8301049050919050565b600082821b905092915050565b600060088302611e837fffffffffffffffffffffffffffffffffffffffffffffffffffffffffffffffff82611e46565b611e8d8683611e46565b95508019841693508086168417925050509392505050565b6000819050919050565b6000611eca611ec5611ec08461163f565b611ea5565b61163f565b9050919050565b6000819050919050565b611ee483611eaf565b611ef8611ef082611ed1565b848454611e53565b825550505050565b600090565b611f0d611f00565b611f18818484611edb565b505050565b5b81811015611f3c57611f31600082611f05565b600181019050611f1e565b5050565b601f821115611f8157611f5281611e21565b611f5b84611e36565b81016020851015611f6a578190505b611f7e611f7685611e36565b830182611f1d565b50505b505050565b600082821c905092915050565b6000611fa460001984600802611f86565b1980831691505092915050565b6000611fbd8383611f93565b9150826002028217905092915050565b611fd68261151d565b67ffffffffffffffff811115611fef57611fee61167a565b5b611ff98254611cf2565b612004828285611f40565b600060209050601f8311600181146120375760008415612025578287015190505b61202f8582611fb1565b865550612097565b601f19841661204586611e21565b60005b8281101561206d57848901518255600182019150602085019450602081019050612048565b8683101561208a5784890151612086601f891682611f93565b8355505b6001600288020188555050505b505050505050565b7f4a7573742074686520696e737572616e636520636f6d70616e792063616e207060008201527f6572666f726d207468697320616374696f6e0000000000000000000000000000602082015250565b60006120fb603283611528565b91506121068261209f565b604082019050919050565b6000602082019050818103600083015261212a816120ee565b9050919050565b7f4e657720656e6420646174652068617320746f2062652061667465722074686560008201527f2063757272656e74206f6e650000000000000000000000000000000000000000602082015250565b600061218d602c83611528565b915061219882612131565b604082019050919050565b600060208201905081810360008301526121bc81612180565b9050919050565b7f436c61696d20697320616c7265616479207265736f6c76656400000000000000600082015250565b60006121f9601983611528565b9150612204826121c3565b602082019050919050565b60006020820190508181036000830152612228816121ec565b905091905056fea26469706673582212200ee49abbe9363f4bcdf15846cdc8b806ad7ac6662a9d073be101c1a22632f5a264736f6c63430008130033",
  "linkReferences": {},
  "deployedLinkReferences": {}
}