{
  "_format": "hh-sol-artifact-1",
  "contractName": "Policy",
  "sourceName": "contracts/Policy.sol",
  "abi": [
    {
      "inputs": [
        {
          "internalType": "uint256",
          "name": "_policyholderId",
          "type": "uint256"
        },
        {
          "internalType": "string",
          "name": "_riskObject",
          "type": "string"
        },
        {
          "internalType": "uint256",
          "name": "_premium",
          "type": "uint256"
        },
        {
          "internalType": "address",
          "name": "_owner",
          "type": "address"
        },
        {
          "internalType": "uint256",
          "name": "_endDate",
          "type": "uint256"
        }
      ],
      "stateMutability": "nonpayable",
      "type": "constructor"
    },
    {
      "anonymous": false,
      "inputs": [
        {
          "indexed": false,
          "internalType": "uint256",
          "name": "endDate",
          "type": "uint256"
        }
      ],
      "name": "Cancelation",
      "type": "event"
    },
    {
      "anonymous": false,
      "inputs": [
        {
          "indexed": false,
          "internalType": "uint256",
          "name": "claimId",
          "type": "uint256"
        }
      ],
      "name": "ClaimApproved",
      "type": "event"
    },
    {
      "anonymous": false,
      "inputs": [
        {
          "indexed": false,
          "internalType": "uint256",
          "name": "claimId",
          "type": "uint256"
        }
      ],
      "name": "ClaimDeclaration",
      "type": "event"
    },
    {
      "anonymous": false,
      "inputs": [
        {
          "indexed": false,
          "internalType": "uint256",
          "name": "claimId",
          "type": "uint256"
        }
      ],
      "name": "ClaimDeclined",
      "type": "event"
    },
    {
      "anonymous": false,
      "inputs": [
        {
          "indexed": false,
          "internalType": "address",
          "name": "policyholderAddress",
          "type": "address"
        }
      ],
      "name": "Creation",
      "type": "event"
    },
    {
      "anonymous": false,
      "inputs": [
        {
          "indexed": false,
          "internalType": "uint256",
          "name": "endDate",
          "type": "uint256"
        }
      ],
      "name": "Renewal",
      "type": "event"
    },
    {
      "inputs": [
        {
          "internalType": "uint256",
          "name": "claimId",
          "type": "uint256"
        },
        {
          "internalType": "uint256",
          "name": "claimExpenses",
          "type": "uint256"
        }
      ],
      "name": "approveClaim",
      "outputs": [],
      "stateMutability": "nonpayable",
      "type": "function"
    },
    {
      "inputs": [],
      "name": "cancelPolicy",
      "outputs": [],
      "stateMutability": "nonpayable",
      "type": "function"
    },
    {
      "inputs": [
        {
          "internalType": "uint256",
          "name": "claimId",
          "type": "uint256"
        }
      ],
      "name": "declineClaim",
      "outputs": [],
      "stateMutability": "nonpayable",
      "type": "function"
    },
    {
      "inputs": [
        {
          "internalType": "uint256",
          "name": "claimId",
          "type": "uint256"
        }
      ],
      "name": "getClaim",
      "outputs": [
        {
          "components": [
            {
              "internalType": "string",
              "name": "title",
              "type": "string"
            },
            {
              "internalType": "address",
              "name": "expertAddress",
              "type": "address"
            },
            {
              "internalType": "uint256",
              "name": "incidentDate",
              "type": "uint256"
            },
            {
              "internalType": "uint256",
              "name": "expenses",
              "type": "uint256"
            },
            {
              "internalType": "bool",
              "name": "approved",
              "type": "bool"
            },
            {
              "internalType": "uint256",
              "name": "resolveDate",
              "type": "uint256"
            },
            {
              "internalType": "bool",
              "name": "isResolved",
              "type": "bool"
            }
          ],
          "internalType": "struct Claim",
          "name": "",
          "type": "tuple"
        }
      ],
      "stateMutability": "view",
      "type": "function"
    },
    {
      "inputs": [],
      "name": "getClaimsList",
      "outputs": [
        {
          "internalType": "uint256[]",
          "name": "",
          "type": "uint256[]"
        }
      ],
      "stateMutability": "view",
      "type": "function"
    },
    {
      "inputs": [],
      "name": "getEndDate",
      "outputs": [
        {
          "internalType": "uint256",
          "name": "",
          "type": "uint256"
        }
      ],
      "stateMutability": "view",
      "type": "function"
    },
    {
      "inputs": [],
      "name": "getOwnerAddress",
      "outputs": [
        {
          "internalType": "address",
          "name": "",
          "type": "address"
        }
      ],
      "stateMutability": "view",
      "type": "function"
    },
    {
      "inputs": [
        {
          "internalType": "uint256",
          "name": "claimId",
          "type": "uint256"
        },
        {
          "components": [
            {
              "internalType": "string",
              "name": "title",
              "type": "string"
            },
            {
              "internalType": "address",
              "name": "expertAddress",
              "type": "address"
            },
            {
              "internalType": "uint256",
              "name": "incidentDate",
              "type": "uint256"
            },
            {
              "internalType": "uint256",
              "name": "expenses",
              "type": "uint256"
            },
            {
              "internalType": "bool",
              "name": "approved",
              "type": "bool"
            },
            {
              "internalType": "uint256",
              "name": "resolveDate",
              "type": "uint256"
            },
            {
              "internalType": "bool",
              "name": "isResolved",
              "type": "bool"
            }
          ],
          "internalType": "struct Claim",
          "name": "_claim",
          "type": "tuple"
        }
      ],
      "name": "makeClaim",
      "outputs": [],
      "stateMutability": "nonpayable",
      "type": "function"
    },
    {
      "inputs": [
        {
          "internalType": "uint256",
          "name": "newEndDate",
          "type": "uint256"
        }
      ],
      "name": "renew",
      "outputs": [
        {
          "internalType": "uint256",
          "name": "",
          "type": "uint256"
        }
      ],
      "stateMutability": "nonpayable",
      "type": "function"
    }
  ],
  "bytecode": "0x60806040523480156200001157600080fd5b50604051620024ca380380620024ca83398181016040528101906200003791906200040b565b4281116200007c576040517f08c379a0000000000000000000000000000000000000000000000000000000008152600401620000739062000513565b60405180910390fd5b60008311620000c2576040517f08c379a0000000000000000000000000000000000000000000000000000000008152600401620000b990620005ab565b60405180910390fd5b846000819055508360019081620000da91906200080e565b508260028190555081600360006101000a81548173ffffffffffffffffffffffffffffffffffffffff021916908373ffffffffffffffffffffffffffffffffffffffff16021790555033600460006101000a81548173ffffffffffffffffffffffffffffffffffffffff021916908373ffffffffffffffffffffffffffffffffffffffff16021790555042600681905550806005819055507f2ae68230dd9c1c06842490953a33785a09292650f8c76b1a20b2fbbb214a896c600360009054906101000a900473ffffffffffffffffffffffffffffffffffffffff16604051620001c5919062000906565b60405180910390a1505050505062000923565b6000604051905090565b600080fd5b600080fd5b6000819050919050565b6200020181620001ec565b81146200020d57600080fd5b50565b6000815190506200022181620001f6565b92915050565b600080fd5b600080fd5b6000601f19601f8301169050919050565b7f4e487b7100000000000000000000000000000000000000000000000000000000600052604160045260246000fd5b6200027c8262000231565b810181811067ffffffffffffffff821117156200029e576200029d62000242565b5b80604052505050565b6000620002b3620001d8565b9050620002c1828262000271565b919050565b600067ffffffffffffffff821115620002e457620002e362000242565b5b620002ef8262000231565b9050602081019050919050565b60005b838110156200031c578082015181840152602081019050620002ff565b60008484015250505050565b60006200033f6200033984620002c6565b620002a7565b9050828152602081018484840111156200035e576200035d6200022c565b5b6200036b848285620002fc565b509392505050565b600082601f8301126200038b576200038a62000227565b5b81516200039d84826020860162000328565b91505092915050565b600073ffffffffffffffffffffffffffffffffffffffff82169050919050565b6000620003d382620003a6565b9050919050565b620003e581620003c6565b8114620003f157600080fd5b50565b6000815190506200040581620003da565b92915050565b600080600080600060a086880312156200042a5762000429620001e2565b5b60006200043a8882890162000210565b955050602086015167ffffffffffffffff8111156200045e576200045d620001e7565b5b6200046c8882890162000373565b94505060406200047f8882890162000210565b93505060606200049288828901620003f4565b9250506080620004a58882890162000210565b9150509295509295909350565b600082825260208201905092915050565b7f52656e6577616c20646174652068617320746f206265207570636f6d696e6700600082015250565b6000620004fb601f83620004b2565b91506200050882620004c3565b602082019050919050565b600060208201905081810360008301526200052e81620004ec565b9050919050565b7f52657175697265642061207072656d69756d20746f206163746976617465207460008201527f686520706f6c6963790000000000000000000000000000000000000000000000602082015250565b600062000593602983620004b2565b9150620005a08262000535565b604082019050919050565b60006020820190508181036000830152620005c68162000584565b9050919050565b600081519050919050565b7f4e487b7100000000000000000000000000000000000000000000000000000000600052602260045260246000fd5b600060028204905060018216806200062057607f821691505b602082108103620006365762000635620005d8565b5b50919050565b60008190508160005260206000209050919050565b60006020601f8301049050919050565b600082821b905092915050565b600060088302620006a07fffffffffffffffffffffffffffffffffffffffffffffffffffffffffffffffff8262000661565b620006ac868362000661565b95508019841693508086168417925050509392505050565b6000819050919050565b6000620006ef620006e9620006e384620001ec565b620006c4565b620001ec565b9050919050565b6000819050919050565b6200070b83620006ce565b620007236200071a82620006f6565b8484546200066e565b825550505050565b600090565b6200073a6200072b565b6200074781848462000700565b505050565b5b818110156200076f576200076360008262000730565b6001810190506200074d565b5050565b601f821115620007be5762000788816200063c565b620007938462000651565b81016020851015620007a3578190505b620007bb620007b28562000651565b8301826200074c565b50505b505050565b600082821c905092915050565b6000620007e360001984600802620007c3565b1980831691505092915050565b6000620007fe8383620007d0565b9150826002028217905092915050565b6200081982620005cd565b67ffffffffffffffff81111562000835576200083462000242565b5b62000841825462000607565b6200084e82828562000773565b600060209050601f83116001811462000886576000841562000871578287015190505b6200087d8582620007f0565b865550620008ed565b601f19841662000896866200063c565b60005b82811015620008c05784890151825560018201915060208501945060208101905062000899565b86831015620008e05784890151620008dc601f891682620007d0565b8355505b6001600288020188555050505b505050505050565b6200090081620003c6565b82525050565b60006020820190506200091d6000830184620008f5565b92915050565b611b9780620009336000396000f3fe608060405234801561001057600080fd5b50600436106100935760003560e01c80635baa7509116100665780635baa75091461010c5780637fbe658c1461013c578063b135648814610158578063f119c46314610176578063f3563e711461019257610093565b80630c4f65bd146100985780630fa5fd6c146100b65780634ef2cc00146100d25780635aef2447146100dc575b600080fd5b6100a06101b0565b6040516100ad9190610f15565b60405180910390f35b6100d060048036038101906100cb91906111fe565b6102c2565b005b6100da6104d8565b005b6100f660048036038101906100f1919061125a565b610646565b60405161010391906113cf565b60405180910390f35b6101266004803603810190610121919061125a565b610897565b6040516101339190611400565b60405180910390f35b6101566004803603810190610151919061141b565b6109b7565b005b610160610aae565b60405161016d9190611400565b60405180910390f35b610190600480360381019061018b919061125a565b610ba0565b005b61019a610c75565b6040516101a7919061150a565b60405180910390f35b6000600460009054906101000a900473ffffffffffffffffffffffffffffffffffffffff1673ffffffffffffffffffffffffffffffffffffffff163373ffffffffffffffffffffffffffffffffffffffff16148061025b5750600360009054906101000a900473ffffffffffffffffffffffffffffffffffffffff1673ffffffffffffffffffffffffffffffffffffffff163373ffffffffffffffffffffffffffffffffffffffff16145b61029a576040517f08c379a0000000000000000000000000000000000000000000000000000000008152600401610291906115d5565b60405180910390fd5b600360009054906101000a900473ffffffffffffffffffffffffffffffffffffffff16905090565b600360009054906101000a900473ffffffffffffffffffffffffffffffffffffffff1673ffffffffffffffffffffffffffffffffffffffff163373ffffffffffffffffffffffffffffffffffffffff1614610352576040517f08c379a000000000000000000000000000000000000000000000000000000000815260040161034990611667565b60405180910390fd5b4260055411610396576040517f08c379a000000000000000000000000000000000000000000000000000000000815260040161038d906116d3565b60405180910390fd5b6000819050806007600085815260200190815260200160002060008201518160000190816103c491906118ff565b5060208201518160010160006101000a81548173ffffffffffffffffffffffffffffffffffffffff021916908373ffffffffffffffffffffffffffffffffffffffff160217905550604082015181600201556060820151816003015560808201518160040160006101000a81548160ff02191690831515021790555060a0820151816005015560c08201518160060160006101000a81548160ff02191690831515021790555090505060006007600085815260200190815260200160002060060160006101000a81548160ff0219169083151502179055507f638e2a6aeee887a0d14ed55e72f023c4cc608d74f3fc9d7dd46fa6355fd0ea49836040516104cb9190611400565b60405180910390a1505050565b600460009054906101000a900473ffffffffffffffffffffffffffffffffffffffff1673ffffffffffffffffffffffffffffffffffffffff163373ffffffffffffffffffffffffffffffffffffffff1614806105815750600360009054906101000a900473ffffffffffffffffffffffffffffffffffffffff1673ffffffffffffffffffffffffffffffffffffffff163373ffffffffffffffffffffffffffffffffffffffff16145b6105c0576040517f08c379a00000000000000000000000000000000000000000000000000000000081526004016105b7906115d5565b60405180910390fd5b4260055411610604576040517f08c379a00000000000000000000000000000000000000000000000000000000081526004016105fb906116d3565b60405180910390fd5b426005819055507f5af4c37852e46c039a8fb4eedfcc916d59262430de08a63b8976b07efb8141ef60055460405161063c9190611400565b60405180910390a1565b61064e610e7d565b600460009054906101000a900473ffffffffffffffffffffffffffffffffffffffff1673ffffffffffffffffffffffffffffffffffffffff163373ffffffffffffffffffffffffffffffffffffffff1614806106f75750600360009054906101000a900473ffffffffffffffffffffffffffffffffffffffff1673ffffffffffffffffffffffffffffffffffffffff163373ffffffffffffffffffffffffffffffffffffffff16145b610736576040517f08c379a000000000000000000000000000000000000000000000000000000000815260040161072d906115d5565b60405180910390fd5b600760008381526020019081526020016000206040518060e001604052908160008201805461076490611722565b80601f016020809104026020016040519081016040528092919081815260200182805461079090611722565b80156107dd5780601f106107b2576101008083540402835291602001916107dd565b820191906000526020600020905b8154815290600101906020018083116107c057829003601f168201915b505050505081526020016001820160009054906101000a900473ffffffffffffffffffffffffffffffffffffffff1673ffffffffffffffffffffffffffffffffffffffff1673ffffffffffffffffffffffffffffffffffffffff16815260200160028201548152602001600382015481526020016004820160009054906101000a900460ff16151515158152602001600582015481526020016006820160009054906101000a900460ff1615151515815250509050919050565b6000600460009054906101000a900473ffffffffffffffffffffffffffffffffffffffff1673ffffffffffffffffffffffffffffffffffffffff163373ffffffffffffffffffffffffffffffffffffffff1614610929576040517f08c379a000000000000000000000000000000000000000000000000000000000815260040161092090611a43565b60405180910390fd5b600554821161096d576040517f08c379a000000000000000000000000000000000000000000000000000000000815260040161096490611ad5565b60405180910390fd5b816005819055507f5d7ac495f70da95795bf1e013229e085d2330c3d85625768e8d8147cde21584c6005546040516109a59190611400565b60405180910390a16005549050919050565b600460009054906101000a900473ffffffffffffffffffffffffffffffffffffffff1673ffffffffffffffffffffffffffffffffffffffff163373ffffffffffffffffffffffffffffffffffffffff1614610a47576040517f08c379a0000000000000000000000000000000000000000000000000000000008152600401610a3e90611a43565b60405180910390fd5b6000600760008481526020019081526020016000209050610a69836001610db5565b8181600301819055507fd2d0ed0cccc8615643ade1eff3929a29ed8df75ebca85a3996e311c9b69e228983604051610aa19190611400565b60405180910390a1505050565b6000600460009054906101000a900473ffffffffffffffffffffffffffffffffffffffff1673ffffffffffffffffffffffffffffffffffffffff163373ffffffffffffffffffffffffffffffffffffffff161480610b595750600360009054906101000a900473ffffffffffffffffffffffffffffffffffffffff1673ffffffffffffffffffffffffffffffffffffffff163373ffffffffffffffffffffffffffffffffffffffff16145b610b98576040517f08c379a0000000000000000000000000000000000000000000000000000000008152600401610b8f906115d5565b60405180910390fd5b600554905090565b600460009054906101000a900473ffffffffffffffffffffffffffffffffffffffff1673ffffffffffffffffffffffffffffffffffffffff163373ffffffffffffffffffffffffffffffffffffffff1614610c30576040517f08c379a0000000000000000000000000000000000000000000000000000000008152600401610c2790611a43565b60405180910390fd5b610c3b816000610db5565b7f02d319d3445ae98d88bc3ebef5c58a74cdf7fc53e3191dadfbf75745ae49cd7d81604051610c6a9190611400565b60405180910390a150565b6060600460009054906101000a900473ffffffffffffffffffffffffffffffffffffffff1673ffffffffffffffffffffffffffffffffffffffff163373ffffffffffffffffffffffffffffffffffffffff161480610d205750600360009054906101000a900473ffffffffffffffffffffffffffffffffffffffff1673ffffffffffffffffffffffffffffffffffffffff163373ffffffffffffffffffffffffffffffffffffffff16145b610d5f576040517f08c379a0000000000000000000000000000000000000000000000000000000008152600401610d56906115d5565b60405180910390fd5b6008805480602002602001604051908101604052809291908181526020018280548015610dab57602002820191906000526020600020905b815481526020019060010190808311610d97575b5050505050905090565b6000600760008481526020019081526020016000209050600015158160060160009054906101000a900460ff16151514610e24576040517f08c379a0000000000000000000000000000000000000000000000000000000008152600401610e1b90611b41565b60405180910390fd5b42816005018190555060016007600085815260200190815260200160002060060160006101000a81548160ff021916908315150217905550818160040160006101000a81548160ff021916908315150217905550505050565b6040518060e0016040528060608152602001600073ffffffffffffffffffffffffffffffffffffffff1681526020016000815260200160008152602001600015158152602001600081526020016000151581525090565b600073ffffffffffffffffffffffffffffffffffffffff82169050919050565b6000610eff82610ed4565b9050919050565b610f0f81610ef4565b82525050565b6000602082019050610f2a6000830184610f06565b92915050565b6000604051905090565b600080fd5b600080fd5b6000819050919050565b610f5781610f44565b8114610f6257600080fd5b50565b600081359050610f7481610f4e565b92915050565b600080fd5b6000601f19601f8301169050919050565b7f4e487b7100000000000000000000000000000000000000000000000000000000600052604160045260246000fd5b610fc882610f7f565b810181811067ffffffffffffffff82111715610fe757610fe6610f90565b5b80604052505050565b6000610ffa610f30565b90506110068282610fbf565b919050565b600080fd5b600080fd5b600080fd5b600067ffffffffffffffff82111561103557611034610f90565b5b61103e82610f7f565b9050602081019050919050565b82818337600083830152505050565b600061106d6110688461101a565b610ff0565b90508281526020810184848401111561108957611088611015565b5b61109484828561104b565b509392505050565b600082601f8301126110b1576110b0611010565b5b81356110c184826020860161105a565b91505092915050565b6110d381610ef4565b81146110de57600080fd5b50565b6000813590506110f0816110ca565b92915050565b60008115159050919050565b61110b816110f6565b811461111657600080fd5b50565b60008135905061112881611102565b92915050565b600060e0828403121561114457611143610f7a565b5b61114e60e0610ff0565b9050600082013567ffffffffffffffff81111561116e5761116d61100b565b5b61117a8482850161109c565b600083015250602061118e848285016110e1565b60208301525060406111a284828501610f65565b60408301525060606111b684828501610f65565b60608301525060806111ca84828501611119565b60808301525060a06111de84828501610f65565b60a08301525060c06111f284828501611119565b60c08301525092915050565b6000806040838503121561121557611214610f3a565b5b600061122385828601610f65565b925050602083013567ffffffffffffffff81111561124457611243610f3f565b5b6112508582860161112e565b9150509250929050565b6000602082840312156112705761126f610f3a565b5b600061127e84828501610f65565b91505092915050565b600081519050919050565b600082825260208201905092915050565b60005b838110156112c15780820151818401526020810190506112a6565b60008484015250505050565b60006112d882611287565b6112e28185611292565b93506112f28185602086016112a3565b6112fb81610f7f565b840191505092915050565b61130f81610ef4565b82525050565b61131e81610f44565b82525050565b61132d816110f6565b82525050565b600060e083016000830151848203600086015261135082826112cd565b91505060208301516113656020860182611306565b5060408301516113786040860182611315565b50606083015161138b6060860182611315565b50608083015161139e6080860182611324565b5060a08301516113b160a0860182611315565b5060c08301516113c460c0860182611324565b508091505092915050565b600060208201905081810360008301526113e98184611333565b905092915050565b6113fa81610f44565b82525050565b600060208201905061141560008301846113f1565b92915050565b6000806040838503121561143257611431610f3a565b5b600061144085828601610f65565b925050602061145185828601610f65565b9150509250929050565b600081519050919050565b600082825260208201905092915050565b6000819050602082019050919050565b60006114938383611315565b60208301905092915050565b6000602082019050919050565b60006114b78261145b565b6114c18185611466565b93506114cc83611477565b8060005b838110156114fd5781516114e48882611487565b97506114ef8361149f565b9250506001810190506114d0565b5085935050505092915050565b6000602082019050818103600083015261152481846114ac565b905092915050565b600082825260208201905092915050565b7f4a7573742074686520706f6c696379686f6c646572206f722074686520696e7360008201527f7572616e636520636f6d70616e792063616e20706572666f726d20746869732060208201527f616374696f6e0000000000000000000000000000000000000000000000000000604082015250565b60006115bf60468361152c565b91506115ca8261153d565b606082019050919050565b600060208201905081810360008301526115ee816115b2565b9050919050565b7f4a7573742074686520706f6c696379686f6c6465722063616e20706572666f7260008201527f6d207468697320616374696f6e00000000000000000000000000000000000000602082015250565b6000611651602d8361152c565b915061165c826115f5565b604082019050919050565b6000602082019050818103600083015261168081611644565b9050919050565b7f506f6c696379206973206e6f7420616374697665000000000000000000000000600082015250565b60006116bd60148361152c565b91506116c882611687565b602082019050919050565b600060208201905081810360008301526116ec816116b0565b9050919050565b7f4e487b7100000000000000000000000000000000000000000000000000000000600052602260045260246000fd5b6000600282049050600182168061173a57607f821691505b60208210810361174d5761174c6116f3565b5b50919050565b60008190508160005260206000209050919050565b60006020601f8301049050919050565b600082821b905092915050565b6000600883026117b57fffffffffffffffffffffffffffffffffffffffffffffffffffffffffffffffff82611778565b6117bf8683611778565b95508019841693508086168417925050509392505050565b6000819050919050565b60006117fc6117f76117f284610f44565b6117d7565b610f44565b9050919050565b6000819050919050565b611816836117e1565b61182a61182282611803565b848454611785565b825550505050565b600090565b61183f611832565b61184a81848461180d565b505050565b5b8181101561186e57611863600082611837565b600181019050611850565b5050565b601f8211156118b35761188481611753565b61188d84611768565b8101602085101561189c578190505b6118b06118a885611768565b83018261184f565b50505b505050565b600082821c905092915050565b60006118d6600019846008026118b8565b1980831691505092915050565b60006118ef83836118c5565b9150826002028217905092915050565b61190882611287565b67ffffffffffffffff81111561192157611920610f90565b5b61192b8254611722565b611936828285611872565b600060209050601f8311600181146119695760008415611957578287015190505b61196185826118e3565b8655506119c9565b601f19841661197786611753565b60005b8281101561199f5784890151825560018201915060208501945060208101905061197a565b868310156119bc57848901516119b8601f8916826118c5565b8355505b6001600288020188555050505b505050505050565b7f4a7573742074686520696e737572616e636520636f6d70616e792063616e207060008201527f6572666f726d207468697320616374696f6e0000000000000000000000000000602082015250565b6000611a2d60328361152c565b9150611a38826119d1565b604082019050919050565b60006020820190508181036000830152611a5c81611a20565b9050919050565b7f4e657720656e6420646174652068617320746f2062652061667465722074686560008201527f2063757272656e74206f6e650000000000000000000000000000000000000000602082015250565b6000611abf602c8361152c565b9150611aca82611a63565b604082019050919050565b60006020820190508181036000830152611aee81611ab2565b9050919050565b7f436c61696d20697320616c7265616479207265736f6c76656400000000000000600082015250565b6000611b2b60198361152c565b9150611b3682611af5565b602082019050919050565b60006020820190508181036000830152611b5a81611b1e565b905091905056fea2646970667358221220e5e48f72bfb7fbcb73bc11cdbc7ca2751a7cd9636575c62c0d2dc6ab17a044e664736f6c63430008130033",
  "linkReferences": {},
  "deployedLinkReferences": {}
}