{
  "_format": "hh-sol-artifact-1",
  "contractName": "Policy",
  "sourceName": "contracts/Policy.sol",
  "abi": [
    {
      "inputs": [
        {
          "internalType": "string",
          "name": "_proposalData",
          "type": "string"
        },
        {
          "internalType": "uint256",
          "name": "_premium",
          "type": "uint256"
        },
        {
          "internalType": "address",
          "name": "_owner",
          "type": "address"
        },
        {
          "internalType": "uint256",
          "name": "_endDate",
          "type": "uint256"
        }
      ],
      "stateMutability": "nonpayable",
      "type": "constructor"
    },
    {
      "anonymous": false,
      "inputs": [
        {
          "indexed": false,
          "internalType": "uint256",
          "name": "endDate",
          "type": "uint256"
        }
      ],
      "name": "Cancelation",
      "type": "event"
    },
    {
      "anonymous": false,
      "inputs": [
        {
          "indexed": false,
          "internalType": "uint256",
          "name": "claimId",
          "type": "uint256"
        }
      ],
      "name": "ClaimApproved",
      "type": "event"
    },
    {
      "anonymous": false,
      "inputs": [
        {
          "indexed": false,
          "internalType": "uint256",
          "name": "claimId",
          "type": "uint256"
        }
      ],
      "name": "ClaimDeclaration",
      "type": "event"
    },
    {
      "anonymous": false,
      "inputs": [
        {
          "indexed": false,
          "internalType": "uint256",
          "name": "claimId",
          "type": "uint256"
        }
      ],
      "name": "ClaimDeclined",
      "type": "event"
    },
    {
      "anonymous": false,
      "inputs": [
        {
          "indexed": false,
          "internalType": "address",
          "name": "policyholderAddress",
          "type": "address"
        }
      ],
      "name": "Creation",
      "type": "event"
    },
    {
      "anonymous": false,
      "inputs": [
        {
          "indexed": false,
          "internalType": "uint256",
          "name": "endDate",
          "type": "uint256"
        }
      ],
      "name": "Renewal",
      "type": "event"
    },
    {
      "inputs": [
        {
          "internalType": "uint256",
          "name": "claimId",
          "type": "uint256"
        },
        {
          "internalType": "uint256",
          "name": "claimExpenses",
          "type": "uint256"
        }
      ],
      "name": "approveClaim",
      "outputs": [],
      "stateMutability": "nonpayable",
      "type": "function"
    },
    {
      "inputs": [],
      "name": "cancelPolicy",
      "outputs": [],
      "stateMutability": "nonpayable",
      "type": "function"
    },
    {
      "inputs": [
        {
          "internalType": "uint256",
          "name": "claimId",
          "type": "uint256"
        }
      ],
      "name": "declineClaim",
      "outputs": [],
      "stateMutability": "nonpayable",
      "type": "function"
    },
    {
      "inputs": [],
      "name": "factoryAddress",
      "outputs": [
        {
          "internalType": "address",
          "name": "",
          "type": "address"
        }
      ],
      "stateMutability": "view",
      "type": "function"
    },
    {
      "inputs": [
        {
          "internalType": "uint256",
          "name": "claimId",
          "type": "uint256"
        }
      ],
      "name": "getClaim",
      "outputs": [
        {
          "components": [
            {
              "internalType": "string",
              "name": "title",
              "type": "string"
            },
            {
              "internalType": "address",
              "name": "expertAddress",
              "type": "address"
            },
            {
              "internalType": "uint256",
              "name": "incidentDate",
              "type": "uint256"
            },
            {
              "internalType": "uint256",
              "name": "expenses",
              "type": "uint256"
            },
            {
              "internalType": "bool",
              "name": "approved",
              "type": "bool"
            },
            {
              "internalType": "uint256",
              "name": "resolveDate",
              "type": "uint256"
            },
            {
              "internalType": "bool",
              "name": "isResolved",
              "type": "bool"
            }
          ],
          "internalType": "struct Claim",
          "name": "",
          "type": "tuple"
        }
      ],
      "stateMutability": "view",
      "type": "function"
    },
    {
      "inputs": [],
      "name": "getClaimsList",
      "outputs": [
        {
          "internalType": "uint256[]",
          "name": "",
          "type": "uint256[]"
        }
      ],
      "stateMutability": "view",
      "type": "function"
    },
    {
      "inputs": [],
      "name": "getEndDate",
      "outputs": [
        {
          "internalType": "uint256",
          "name": "",
          "type": "uint256"
        }
      ],
      "stateMutability": "view",
      "type": "function"
    },
    {
      "inputs": [],
      "name": "getIsActive",
      "outputs": [
        {
          "internalType": "bool",
          "name": "",
          "type": "bool"
        }
      ],
      "stateMutability": "view",
      "type": "function"
    },
    {
      "inputs": [],
      "name": "getOwnerAddress",
      "outputs": [
        {
          "internalType": "address",
          "name": "",
          "type": "address"
        }
      ],
      "stateMutability": "view",
      "type": "function"
    },
    {
      "inputs": [],
      "name": "getPremium",
      "outputs": [
        {
          "internalType": "uint256",
          "name": "",
          "type": "uint256"
        }
      ],
      "stateMutability": "view",
      "type": "function"
    },
    {
      "inputs": [],
      "name": "getRenewalDate",
      "outputs": [
        {
          "internalType": "uint256",
          "name": "",
          "type": "uint256"
        }
      ],
      "stateMutability": "view",
      "type": "function"
    },
    {
      "inputs": [],
      "name": "getRiskData",
      "outputs": [
        {
          "internalType": "string",
          "name": "",
          "type": "string"
        }
      ],
      "stateMutability": "view",
      "type": "function"
    },
    {
      "inputs": [],
      "name": "getStartDate",
      "outputs": [
        {
          "internalType": "uint256",
          "name": "",
          "type": "uint256"
        }
      ],
      "stateMutability": "view",
      "type": "function"
    },
    {
      "inputs": [
        {
          "internalType": "uint256",
          "name": "claimId",
          "type": "uint256"
        },
        {
          "components": [
            {
              "internalType": "string",
              "name": "title",
              "type": "string"
            },
            {
              "internalType": "address",
              "name": "expertAddress",
              "type": "address"
            },
            {
              "internalType": "uint256",
              "name": "incidentDate",
              "type": "uint256"
            },
            {
              "internalType": "uint256",
              "name": "expenses",
              "type": "uint256"
            },
            {
              "internalType": "bool",
              "name": "approved",
              "type": "bool"
            },
            {
              "internalType": "uint256",
              "name": "resolveDate",
              "type": "uint256"
            },
            {
              "internalType": "bool",
              "name": "isResolved",
              "type": "bool"
            }
          ],
          "internalType": "struct Claim",
          "name": "_claim",
          "type": "tuple"
        }
      ],
      "name": "makeClaim",
      "outputs": [],
      "stateMutability": "nonpayable",
      "type": "function"
    },
    {
      "inputs": [
        {
          "internalType": "uint256",
          "name": "newEndDate",
          "type": "uint256"
        },
        {
          "internalType": "uint256",
          "name": "_renewalPremium",
          "type": "uint256"
        }
      ],
      "name": "renew",
      "outputs": [
        {
          "internalType": "uint256",
          "name": "",
          "type": "uint256"
        }
      ],
      "stateMutability": "nonpayable",
      "type": "function"
    }
  ],
  "bytecode": "0x60806040523480156200001157600080fd5b5060405162002b8938038062002b8983398181016040528101906200003791906200040a565b4281116200007c576040517f08c379a00000000000000000000000000000000000000000000000000000000081526004016200007390620004fc565b60405180910390fd5b60008311620000c2576040517f08c379a0000000000000000000000000000000000000000000000000000000008152600401620000b99062000594565b60405180910390fd5b8360009081620000d39190620007f7565b508260018190555081600260006101000a81548173ffffffffffffffffffffffffffffffffffffffff021916908373ffffffffffffffffffffffffffffffffffffffff16021790555033600360006101000a81548173ffffffffffffffffffffffffffffffffffffffff021916908373ffffffffffffffffffffffffffffffffffffffff1602179055504260068190555080600481905550806005819055507f2ae68230dd9c1c06842490953a33785a09292650f8c76b1a20b2fbbb214a896c600260009054906101000a900473ffffffffffffffffffffffffffffffffffffffff16604051620001c59190620008ef565b60405180910390a1505050506200090c565b6000604051905090565b600080fd5b600080fd5b600080fd5b600080fd5b6000601f19601f8301169050919050565b7f4e487b7100000000000000000000000000000000000000000000000000000000600052604160045260246000fd5b6200024082620001f5565b810181811067ffffffffffffffff8211171562000262576200026162000206565b5b80604052505050565b600062000277620001d7565b905062000285828262000235565b919050565b600067ffffffffffffffff821115620002a857620002a762000206565b5b620002b382620001f5565b9050602081019050919050565b60005b83811015620002e0578082015181840152602081019050620002c3565b60008484015250505050565b600062000303620002fd846200028a565b6200026b565b905082815260208101848484011115620003225762000321620001f0565b5b6200032f848285620002c0565b509392505050565b600082601f8301126200034f576200034e620001eb565b5b815162000361848260208601620002ec565b91505092915050565b6000819050919050565b6200037f816200036a565b81146200038b57600080fd5b50565b6000815190506200039f8162000374565b92915050565b600073ffffffffffffffffffffffffffffffffffffffff82169050919050565b6000620003d282620003a5565b9050919050565b620003e481620003c5565b8114620003f057600080fd5b50565b6000815190506200040481620003d9565b92915050565b60008060008060808587031215620004275762000426620001e1565b5b600085015167ffffffffffffffff811115620004485762000447620001e6565b5b620004568782880162000337565b945050602062000469878288016200038e565b93505060406200047c87828801620003f3565b92505060606200048f878288016200038e565b91505092959194509250565b600082825260208201905092915050565b7f52656e6577616c20646174652068617320746f206265207570636f6d696e6700600082015250565b6000620004e4601f836200049b565b9150620004f182620004ac565b602082019050919050565b600060208201905081810360008301526200051781620004d5565b9050919050565b7f52657175697265642061207072656d69756d20746f206163746976617465207460008201527f686520706f6c6963790000000000000000000000000000000000000000000000602082015250565b60006200057c6029836200049b565b915062000589826200051e565b604082019050919050565b60006020820190508181036000830152620005af816200056d565b9050919050565b600081519050919050565b7f4e487b7100000000000000000000000000000000000000000000000000000000600052602260045260246000fd5b600060028204905060018216806200060957607f821691505b6020821081036200061f576200061e620005c1565b5b50919050565b60008190508160005260206000209050919050565b60006020601f8301049050919050565b600082821b905092915050565b600060088302620006897fffffffffffffffffffffffffffffffffffffffffffffffffffffffffffffffff826200064a565b6200069586836200064a565b95508019841693508086168417925050509392505050565b6000819050919050565b6000620006d8620006d2620006cc846200036a565b620006ad565b6200036a565b9050919050565b6000819050919050565b620006f483620006b7565b6200070c6200070382620006df565b84845462000657565b825550505050565b600090565b6200072362000714565b62000730818484620006e9565b505050565b5b8181101562000758576200074c60008262000719565b60018101905062000736565b5050565b601f821115620007a757620007718162000625565b6200077c846200063a565b810160208510156200078c578190505b620007a46200079b856200063a565b83018262000735565b50505b505050565b600082821c905092915050565b6000620007cc60001984600802620007ac565b1980831691505092915050565b6000620007e78383620007b9565b9150826002028217905092915050565b6200080282620005b6565b67ffffffffffffffff8111156200081e576200081d62000206565b5b6200082a8254620005f0565b620008378282856200075c565b600060209050601f8311600181146200086f57600084156200085a578287015190505b620008668582620007d9565b865550620008d6565b601f1984166200087f8662000625565b60005b82811015620008a95784890151825560018201915060208501945060208101905062000882565b86831015620008c95784890151620008c5601f891682620007b9565b8355505b6001600288020188555050505b505050505050565b620008e981620003c5565b82525050565b6000602082019050620009066000830184620008de565b92915050565b61226d806200091c6000396000f3fe608060405234801561001057600080fd5b50600436106100f55760003560e01c8063966dae0e11610097578063f119c46311610066578063f119c46314610250578063f11b5e251461026c578063f3563e711461028a578063fba7cc79146102a8576100f5565b8063966dae0e146101c6578063b1356488146101e4578063c475abff14610202578063c974402914610232576100f5565b80634ef2cc00116100d35780634ef2cc00146101525780635aef24471461015c57806378f305c61461018c5780637fbe658c146101aa576100f5565b80630b68b2da146100fa5780630c4f65bd146101185780630fa5fd6c14610136575b600080fd5b6101026102c6565b60405161010f91906115b5565b60405180910390f35b610120610440565b60405161012d9190611618565b60405180910390f35b610150600480360381019061014b91906118f0565b610552565b005b61015a610775565b005b6101766004803603810190610171919061194c565b610898565b6040516101839190611a8c565b60405180910390f35b610194610ae9565b6040516101a19190611abd565b60405180910390f35b6101c460048036038101906101bf9190611ad8565b610bdb565b005b6101ce610cd2565b6040516101db9190611618565b60405180910390f35b6101ec610cf8565b6040516101f99190611abd565b60405180910390f35b61021c60048036038101906102179190611ad8565b610dea565b6040516102299190611abd565b60405180910390f35b61023a610f19565b6040516102479190611abd565b60405180910390f35b61026a6004803603810190610265919061194c565b61100b565b005b6102746110e0565b6040516102819190611abd565b60405180910390f35b6102926111d2565b60405161029f9190611bc7565b60405180910390f35b6102b0611312565b6040516102bd9190611bf8565b60405180910390f35b6060600360009054906101000a900473ffffffffffffffffffffffffffffffffffffffff1673ffffffffffffffffffffffffffffffffffffffff163373ffffffffffffffffffffffffffffffffffffffff1614806103715750600260009054906101000a900473ffffffffffffffffffffffffffffffffffffffff1673ffffffffffffffffffffffffffffffffffffffff163373ffffffffffffffffffffffffffffffffffffffff16145b6103b0576040517f08c379a00000000000000000000000000000000000000000000000000000000081526004016103a790611cab565b60405180910390fd5b600080546103bd90611cfa565b80601f01602080910402602001604051908101604052809291908181526020018280546103e990611cfa565b80156104365780601f1061040b57610100808354040283529160200191610436565b820191906000526020600020905b81548152906001019060200180831161041957829003601f168201915b5050505050905090565b6000600360009054906101000a900473ffffffffffffffffffffffffffffffffffffffff1673ffffffffffffffffffffffffffffffffffffffff163373ffffffffffffffffffffffffffffffffffffffff1614806104eb5750600260009054906101000a900473ffffffffffffffffffffffffffffffffffffffff1673ffffffffffffffffffffffffffffffffffffffff163373ffffffffffffffffffffffffffffffffffffffff16145b61052a576040517f08c379a000000000000000000000000000000000000000000000000000000000815260040161052190611cab565b60405180910390fd5b600260009054906101000a900473ffffffffffffffffffffffffffffffffffffffff16905090565b600260009054906101000a900473ffffffffffffffffffffffffffffffffffffffff1673ffffffffffffffffffffffffffffffffffffffff163373ffffffffffffffffffffffffffffffffffffffff16146105e2576040517f08c379a00000000000000000000000000000000000000000000000000000000081526004016105d990611d9d565b60405180910390fd5b426004541180156105f4575042600554115b610633576040517f08c379a000000000000000000000000000000000000000000000000000000000815260040161062a90611e09565b60405180910390fd5b6000819050806007600085815260200190815260200160002060008201518160000190816106619190611fd5565b5060208201518160010160006101000a81548173ffffffffffffffffffffffffffffffffffffffff021916908373ffffffffffffffffffffffffffffffffffffffff160217905550604082015181600201556060820151816003015560808201518160040160006101000a81548160ff02191690831515021790555060a0820151816005015560c08201518160060160006101000a81548160ff02191690831515021790555090505060006007600085815260200190815260200160002060060160006101000a81548160ff0219169083151502179055507f638e2a6aeee887a0d14ed55e72f023c4cc608d74f3fc9d7dd46fa6355fd0ea49836040516107689190611abd565b60405180910390a1505050565b600360009054906101000a900473ffffffffffffffffffffffffffffffffffffffff1673ffffffffffffffffffffffffffffffffffffffff163373ffffffffffffffffffffffffffffffffffffffff1614610805576040517f08c379a00000000000000000000000000000000000000000000000000000000081526004016107fc90612119565b60405180910390fd5b42600454118015610817575042600554115b610856576040517f08c379a000000000000000000000000000000000000000000000000000000000815260040161084d90611e09565b60405180910390fd5b426004819055507f5af4c37852e46c039a8fb4eedfcc916d59262430de08a63b8976b07efb8141ef60045460405161088e9190611abd565b60405180910390a1565b6108a06114ce565b600360009054906101000a900473ffffffffffffffffffffffffffffffffffffffff1673ffffffffffffffffffffffffffffffffffffffff163373ffffffffffffffffffffffffffffffffffffffff1614806109495750600260009054906101000a900473ffffffffffffffffffffffffffffffffffffffff1673ffffffffffffffffffffffffffffffffffffffff163373ffffffffffffffffffffffffffffffffffffffff16145b610988576040517f08c379a000000000000000000000000000000000000000000000000000000000815260040161097f90611cab565b60405180910390fd5b600760008381526020019081526020016000206040518060e00160405290816000820180546109b690611cfa565b80601f01602080910402602001604051908101604052809291908181526020018280546109e290611cfa565b8015610a2f5780601f10610a0457610100808354040283529160200191610a2f565b820191906000526020600020905b815481529060010190602001808311610a1257829003601f168201915b505050505081526020016001820160009054906101000a900473ffffffffffffffffffffffffffffffffffffffff1673ffffffffffffffffffffffffffffffffffffffff1673ffffffffffffffffffffffffffffffffffffffff16815260200160028201548152602001600382015481526020016004820160009054906101000a900460ff16151515158152602001600582015481526020016006820160009054906101000a900460ff1615151515815250509050919050565b6000600360009054906101000a900473ffffffffffffffffffffffffffffffffffffffff1673ffffffffffffffffffffffffffffffffffffffff163373ffffffffffffffffffffffffffffffffffffffff161480610b945750600260009054906101000a900473ffffffffffffffffffffffffffffffffffffffff1673ffffffffffffffffffffffffffffffffffffffff163373ffffffffffffffffffffffffffffffffffffffff16145b610bd3576040517f08c379a0000000000000000000000000000000000000000000000000000000008152600401610bca90611cab565b60405180910390fd5b600654905090565b600360009054906101000a900473ffffffffffffffffffffffffffffffffffffffff1673ffffffffffffffffffffffffffffffffffffffff163373ffffffffffffffffffffffffffffffffffffffff1614610c6b576040517f08c379a0000000000000000000000000000000000000000000000000000000008152600401610c6290612119565b60405180910390fd5b6000600760008481526020019081526020016000209050610c8d836001611406565b8181600301819055507fd2d0ed0cccc8615643ade1eff3929a29ed8df75ebca85a3996e311c9b69e228983604051610cc59190611abd565b60405180910390a1505050565b600360009054906101000a900473ffffffffffffffffffffffffffffffffffffffff1681565b6000600360009054906101000a900473ffffffffffffffffffffffffffffffffffffffff1673ffffffffffffffffffffffffffffffffffffffff163373ffffffffffffffffffffffffffffffffffffffff161480610da35750600260009054906101000a900473ffffffffffffffffffffffffffffffffffffffff1673ffffffffffffffffffffffffffffffffffffffff163373ffffffffffffffffffffffffffffffffffffffff16145b610de2576040517f08c379a0000000000000000000000000000000000000000000000000000000008152600401610dd990611cab565b60405180910390fd5b600454905090565b6000600360009054906101000a900473ffffffffffffffffffffffffffffffffffffffff1673ffffffffffffffffffffffffffffffffffffffff163373ffffffffffffffffffffffffffffffffffffffff1614610e7c576040517f08c379a0000000000000000000000000000000000000000000000000000000008152600401610e7390612119565b60405180910390fd5b6004548311610ec0576040517f08c379a0000000000000000000000000000000000000000000000000000000008152600401610eb7906121ab565b60405180910390fd5b8260048190555082600581905550816001819055507f5d7ac495f70da95795bf1e013229e085d2330c3d85625768e8d8147cde21584c600454604051610f069190611abd565b60405180910390a1600554905092915050565b6000600360009054906101000a900473ffffffffffffffffffffffffffffffffffffffff1673ffffffffffffffffffffffffffffffffffffffff163373ffffffffffffffffffffffffffffffffffffffff161480610fc45750600260009054906101000a900473ffffffffffffffffffffffffffffffffffffffff1673ffffffffffffffffffffffffffffffffffffffff163373ffffffffffffffffffffffffffffffffffffffff16145b611003576040517f08c379a0000000000000000000000000000000000000000000000000000000008152600401610ffa90611cab565b60405180910390fd5b600154905090565b600360009054906101000a900473ffffffffffffffffffffffffffffffffffffffff1673ffffffffffffffffffffffffffffffffffffffff163373ffffffffffffffffffffffffffffffffffffffff161461109b576040517f08c379a000000000000000000000000000000000000000000000000000000000815260040161109290612119565b60405180910390fd5b6110a6816000611406565b7f02d319d3445ae98d88bc3ebef5c58a74cdf7fc53e3191dadfbf75745ae49cd7d816040516110d59190611abd565b60405180910390a150565b6000600360009054906101000a900473ffffffffffffffffffffffffffffffffffffffff1673ffffffffffffffffffffffffffffffffffffffff163373ffffffffffffffffffffffffffffffffffffffff16148061118b5750600260009054906101000a900473ffffffffffffffffffffffffffffffffffffffff1673ffffffffffffffffffffffffffffffffffffffff163373ffffffffffffffffffffffffffffffffffffffff16145b6111ca576040517f08c379a00000000000000000000000000000000000000000000000000000000081526004016111c190611cab565b60405180910390fd5b600554905090565b6060600360009054906101000a900473ffffffffffffffffffffffffffffffffffffffff1673ffffffffffffffffffffffffffffffffffffffff163373ffffffffffffffffffffffffffffffffffffffff16148061127d5750600260009054906101000a900473ffffffffffffffffffffffffffffffffffffffff1673ffffffffffffffffffffffffffffffffffffffff163373ffffffffffffffffffffffffffffffffffffffff16145b6112bc576040517f08c379a00000000000000000000000000000000000000000000000000000000081526004016112b390611cab565b60405180910390fd5b600880548060200260200160405190810160405280929190818152602001828054801561130857602002820191906000526020600020905b8154815260200190600101908083116112f4575b5050505050905090565b6000600360009054906101000a900473ffffffffffffffffffffffffffffffffffffffff1673ffffffffffffffffffffffffffffffffffffffff163373ffffffffffffffffffffffffffffffffffffffff1614806113bd5750600260009054906101000a900473ffffffffffffffffffffffffffffffffffffffff1673ffffffffffffffffffffffffffffffffffffffff163373ffffffffffffffffffffffffffffffffffffffff16145b6113fc576040517f08c379a00000000000000000000000000000000000000000000000000000000081526004016113f390611cab565b60405180910390fd5b4260045411905090565b6000600760008481526020019081526020016000209050600015158160060160009054906101000a900460ff16151514611475576040517f08c379a000000000000000000000000000000000000000000000000000000000815260040161146c90612217565b60405180910390fd5b42816005018190555060016007600085815260200190815260200160002060060160006101000a81548160ff021916908315150217905550818160040160006101000a81548160ff021916908315150217905550505050565b6040518060e0016040528060608152602001600073ffffffffffffffffffffffffffffffffffffffff1681526020016000815260200160008152602001600015158152602001600081526020016000151581525090565b600081519050919050565b600082825260208201905092915050565b60005b8381101561155f578082015181840152602081019050611544565b60008484015250505050565b6000601f19601f8301169050919050565b600061158782611525565b6115918185611530565b93506115a1818560208601611541565b6115aa8161156b565b840191505092915050565b600060208201905081810360008301526115cf818461157c565b905092915050565b600073ffffffffffffffffffffffffffffffffffffffff82169050919050565b6000611602826115d7565b9050919050565b611612816115f7565b82525050565b600060208201905061162d6000830184611609565b92915050565b6000604051905090565b600080fd5b600080fd5b6000819050919050565b61165a81611647565b811461166557600080fd5b50565b60008135905061167781611651565b92915050565b600080fd5b7f4e487b7100000000000000000000000000000000000000000000000000000000600052604160045260246000fd5b6116ba8261156b565b810181811067ffffffffffffffff821117156116d9576116d8611682565b5b80604052505050565b60006116ec611633565b90506116f882826116b1565b919050565b600080fd5b600080fd5b600080fd5b600067ffffffffffffffff82111561172757611726611682565b5b6117308261156b565b9050602081019050919050565b82818337600083830152505050565b600061175f61175a8461170c565b6116e2565b90508281526020810184848401111561177b5761177a611707565b5b61178684828561173d565b509392505050565b600082601f8301126117a3576117a2611702565b5b81356117b384826020860161174c565b91505092915050565b6117c5816115f7565b81146117d057600080fd5b50565b6000813590506117e2816117bc565b92915050565b60008115159050919050565b6117fd816117e8565b811461180857600080fd5b50565b60008135905061181a816117f4565b92915050565b600060e082840312156118365761183561167d565b5b61184060e06116e2565b9050600082013567ffffffffffffffff8111156118605761185f6116fd565b5b61186c8482850161178e565b6000830152506020611880848285016117d3565b602083015250604061189484828501611668565b60408301525060606118a884828501611668565b60608301525060806118bc8482850161180b565b60808301525060a06118d084828501611668565b60a08301525060c06118e48482850161180b565b60c08301525092915050565b600080604083850312156119075761190661163d565b5b600061191585828601611668565b925050602083013567ffffffffffffffff81111561193657611935611642565b5b61194285828601611820565b9150509250929050565b6000602082840312156119625761196161163d565b5b600061197084828501611668565b91505092915050565b600082825260208201905092915050565b600061199582611525565b61199f8185611979565b93506119af818560208601611541565b6119b88161156b565b840191505092915050565b6119cc816115f7565b82525050565b6119db81611647565b82525050565b6119ea816117e8565b82525050565b600060e0830160008301518482036000860152611a0d828261198a565b9150506020830151611a2260208601826119c3565b506040830151611a3560408601826119d2565b506060830151611a4860608601826119d2565b506080830151611a5b60808601826119e1565b5060a0830151611a6e60a08601826119d2565b5060c0830151611a8160c08601826119e1565b508091505092915050565b60006020820190508181036000830152611aa681846119f0565b905092915050565b611ab781611647565b82525050565b6000602082019050611ad26000830184611aae565b92915050565b60008060408385031215611aef57611aee61163d565b5b6000611afd85828601611668565b9250506020611b0e85828601611668565b9150509250929050565b600081519050919050565b600082825260208201905092915050565b6000819050602082019050919050565b6000611b5083836119d2565b60208301905092915050565b6000602082019050919050565b6000611b7482611b18565b611b7e8185611b23565b9350611b8983611b34565b8060005b83811015611bba578151611ba18882611b44565b9750611bac83611b5c565b925050600181019050611b8d565b5085935050505092915050565b60006020820190508181036000830152611be18184611b69565b905092915050565b611bf2816117e8565b82525050565b6000602082019050611c0d6000830184611be9565b92915050565b7f4a7573742074686520706f6c696379686f6c646572206f722074686520696e7360008201527f7572616e636520636f6d70616e792063616e20706572666f726d20746869732060208201527f616374696f6e0000000000000000000000000000000000000000000000000000604082015250565b6000611c95604683611530565b9150611ca082611c13565b606082019050919050565b60006020820190508181036000830152611cc481611c88565b9050919050565b7f4e487b7100000000000000000000000000000000000000000000000000000000600052602260045260246000fd5b60006002820490506001821680611d1257607f821691505b602082108103611d2557611d24611ccb565b5b50919050565b7f4a7573742074686520706f6c696379686f6c6465722063616e20706572666f7260008201527f6d207468697320616374696f6e00000000000000000000000000000000000000602082015250565b6000611d87602d83611530565b9150611d9282611d2b565b604082019050919050565b60006020820190508181036000830152611db681611d7a565b9050919050565b7f506f6c696379206973206e6f7420616374697665000000000000000000000000600082015250565b6000611df3601483611530565b9150611dfe82611dbd565b602082019050919050565b60006020820190508181036000830152611e2281611de6565b9050919050565b60008190508160005260206000209050919050565b60006020601f8301049050919050565b600082821b905092915050565b600060088302611e8b7fffffffffffffffffffffffffffffffffffffffffffffffffffffffffffffffff82611e4e565b611e958683611e4e565b95508019841693508086168417925050509392505050565b6000819050919050565b6000611ed2611ecd611ec884611647565b611ead565b611647565b9050919050565b6000819050919050565b611eec83611eb7565b611f00611ef882611ed9565b848454611e5b565b825550505050565b600090565b611f15611f08565b611f20818484611ee3565b505050565b5b81811015611f4457611f39600082611f0d565b600181019050611f26565b5050565b601f821115611f8957611f5a81611e29565b611f6384611e3e565b81016020851015611f72578190505b611f86611f7e85611e3e565b830182611f25565b50505b505050565b600082821c905092915050565b6000611fac60001984600802611f8e565b1980831691505092915050565b6000611fc58383611f9b565b9150826002028217905092915050565b611fde82611525565b67ffffffffffffffff811115611ff757611ff6611682565b5b6120018254611cfa565b61200c828285611f48565b600060209050601f83116001811461203f576000841561202d578287015190505b6120378582611fb9565b86555061209f565b601f19841661204d86611e29565b60005b8281101561207557848901518255600182019150602085019450602081019050612050565b86831015612092578489015161208e601f891682611f9b565b8355505b6001600288020188555050505b505050505050565b7f4a7573742074686520696e737572616e636520636f6d70616e792063616e207060008201527f6572666f726d207468697320616374696f6e0000000000000000000000000000602082015250565b6000612103603283611530565b915061210e826120a7565b604082019050919050565b60006020820190508181036000830152612132816120f6565b9050919050565b7f4e657720656e6420646174652068617320746f2062652061667465722074686560008201527f2063757272656e74206f6e650000000000000000000000000000000000000000602082015250565b6000612195602c83611530565b91506121a082612139565b604082019050919050565b600060208201905081810360008301526121c481612188565b9050919050565b7f436c61696d20697320616c7265616479207265736f6c76656400000000000000600082015250565b6000612201601983611530565b915061220c826121cb565b602082019050919050565b60006020820190508181036000830152612230816121f4565b905091905056fea2646970667358221220fc2c95684b8da7b02a32f797c345fdaf485a473145cbfb8f1a6a11f0bf1ab59064736f6c63430008130033",
  "linkReferences": {},
  "deployedLinkReferences": {}
}