{
  "_format": "hh-sol-artifact-1",
  "contractName": "Policy",
  "sourceName": "contracts/Policy.sol",
  "abi": [
    {
      "inputs": [
        {
          "internalType": "string",
          "name": "_riskObject",
          "type": "string"
        },
        {
          "internalType": "uint256",
          "name": "_premium",
          "type": "uint256"
        },
        {
          "internalType": "address",
          "name": "_owner",
          "type": "address"
        },
        {
          "internalType": "uint256",
          "name": "_endDate",
          "type": "uint256"
        }
      ],
      "stateMutability": "nonpayable",
      "type": "constructor"
    },
    {
      "anonymous": false,
      "inputs": [
        {
          "indexed": false,
          "internalType": "uint256",
          "name": "endDate",
          "type": "uint256"
        }
      ],
      "name": "Cancelation",
      "type": "event"
    },
    {
      "anonymous": false,
      "inputs": [
        {
          "indexed": false,
          "internalType": "uint256",
          "name": "claimId",
          "type": "uint256"
        }
      ],
      "name": "ClaimApproved",
      "type": "event"
    },
    {
      "anonymous": false,
      "inputs": [
        {
          "indexed": false,
          "internalType": "uint256",
          "name": "claimId",
          "type": "uint256"
        }
      ],
      "name": "ClaimDeclaration",
      "type": "event"
    },
    {
      "anonymous": false,
      "inputs": [
        {
          "indexed": false,
          "internalType": "uint256",
          "name": "claimId",
          "type": "uint256"
        }
      ],
      "name": "ClaimDeclined",
      "type": "event"
    },
    {
      "anonymous": false,
      "inputs": [
        {
          "indexed": false,
          "internalType": "address",
          "name": "policyholderAddress",
          "type": "address"
        }
      ],
      "name": "Creation",
      "type": "event"
    },
    {
      "anonymous": false,
      "inputs": [
        {
          "indexed": false,
          "internalType": "uint256",
          "name": "endDate",
          "type": "uint256"
        }
      ],
      "name": "Renewal",
      "type": "event"
    },
    {
      "inputs": [
        {
          "internalType": "uint256",
          "name": "claimId",
          "type": "uint256"
        },
        {
          "internalType": "uint256",
          "name": "claimExpenses",
          "type": "uint256"
        }
      ],
      "name": "approveClaim",
      "outputs": [],
      "stateMutability": "nonpayable",
      "type": "function"
    },
    {
      "inputs": [],
      "name": "cancelPolicy",
      "outputs": [],
      "stateMutability": "nonpayable",
      "type": "function"
    },
    {
      "inputs": [
        {
          "internalType": "uint256",
          "name": "claimId",
          "type": "uint256"
        }
      ],
      "name": "declineClaim",
      "outputs": [],
      "stateMutability": "nonpayable",
      "type": "function"
    },
    {
      "inputs": [
        {
          "internalType": "uint256",
          "name": "claimId",
          "type": "uint256"
        }
      ],
      "name": "getClaim",
      "outputs": [
        {
          "components": [
            {
              "internalType": "string",
              "name": "title",
              "type": "string"
            },
            {
              "internalType": "address",
              "name": "expertAddress",
              "type": "address"
            },
            {
              "internalType": "uint256",
              "name": "incidentDate",
              "type": "uint256"
            },
            {
              "internalType": "uint256",
              "name": "expenses",
              "type": "uint256"
            },
            {
              "internalType": "bool",
              "name": "approved",
              "type": "bool"
            },
            {
              "internalType": "uint256",
              "name": "resolveDate",
              "type": "uint256"
            },
            {
              "internalType": "bool",
              "name": "isResolved",
              "type": "bool"
            }
          ],
          "internalType": "struct Claim",
          "name": "",
          "type": "tuple"
        }
      ],
      "stateMutability": "view",
      "type": "function"
    },
    {
      "inputs": [],
      "name": "getClaimsList",
      "outputs": [
        {
          "internalType": "uint256[]",
          "name": "",
          "type": "uint256[]"
        }
      ],
      "stateMutability": "view",
      "type": "function"
    },
    {
      "inputs": [],
      "name": "getEndDate",
      "outputs": [
        {
          "internalType": "uint256",
          "name": "",
          "type": "uint256"
        }
      ],
      "stateMutability": "view",
      "type": "function"
    },
    {
      "inputs": [],
      "name": "getOwnerAddress",
      "outputs": [
        {
          "internalType": "address",
          "name": "",
          "type": "address"
        }
      ],
      "stateMutability": "view",
      "type": "function"
    },
    {
      "inputs": [],
      "name": "getRiskFigures",
      "outputs": [
        {
          "internalType": "string",
          "name": "",
          "type": "string"
        }
      ],
      "stateMutability": "view",
      "type": "function"
    },
    {
      "inputs": [
        {
          "internalType": "uint256",
          "name": "claimId",
          "type": "uint256"
        },
        {
          "components": [
            {
              "internalType": "string",
              "name": "title",
              "type": "string"
            },
            {
              "internalType": "address",
              "name": "expertAddress",
              "type": "address"
            },
            {
              "internalType": "uint256",
              "name": "incidentDate",
              "type": "uint256"
            },
            {
              "internalType": "uint256",
              "name": "expenses",
              "type": "uint256"
            },
            {
              "internalType": "bool",
              "name": "approved",
              "type": "bool"
            },
            {
              "internalType": "uint256",
              "name": "resolveDate",
              "type": "uint256"
            },
            {
              "internalType": "bool",
              "name": "isResolved",
              "type": "bool"
            }
          ],
          "internalType": "struct Claim",
          "name": "_claim",
          "type": "tuple"
        }
      ],
      "name": "makeClaim",
      "outputs": [],
      "stateMutability": "nonpayable",
      "type": "function"
    },
    {
      "inputs": [
        {
          "internalType": "uint256",
          "name": "newEndDate",
          "type": "uint256"
        }
      ],
      "name": "renew",
      "outputs": [
        {
          "internalType": "uint256",
          "name": "",
          "type": "uint256"
        }
      ],
      "stateMutability": "nonpayable",
      "type": "function"
    }
  ],
  "bytecode": "0x60806040523480156200001157600080fd5b50604051620026aa380380620026aa833981810160405281019062000037919062000403565b4281116200007c576040517f08c379a00000000000000000000000000000000000000000000000000000000081526004016200007390620004f5565b60405180910390fd5b60008311620000c2576040517f08c379a0000000000000000000000000000000000000000000000000000000008152600401620000b9906200058d565b60405180910390fd5b8360009081620000d39190620007f0565b508260018190555081600260006101000a81548173ffffffffffffffffffffffffffffffffffffffff021916908373ffffffffffffffffffffffffffffffffffffffff16021790555033600360006101000a81548173ffffffffffffffffffffffffffffffffffffffff021916908373ffffffffffffffffffffffffffffffffffffffff16021790555042600581905550806004819055507f2ae68230dd9c1c06842490953a33785a09292650f8c76b1a20b2fbbb214a896c600260009054906101000a900473ffffffffffffffffffffffffffffffffffffffff16604051620001be9190620008e8565b60405180910390a15050505062000905565b6000604051905090565b600080fd5b600080fd5b600080fd5b600080fd5b6000601f19601f8301169050919050565b7f4e487b7100000000000000000000000000000000000000000000000000000000600052604160045260246000fd5b6200023982620001ee565b810181811067ffffffffffffffff821117156200025b576200025a620001ff565b5b80604052505050565b600062000270620001d0565b90506200027e82826200022e565b919050565b600067ffffffffffffffff821115620002a157620002a0620001ff565b5b620002ac82620001ee565b9050602081019050919050565b60005b83811015620002d9578082015181840152602081019050620002bc565b60008484015250505050565b6000620002fc620002f68462000283565b62000264565b9050828152602081018484840111156200031b576200031a620001e9565b5b62000328848285620002b9565b509392505050565b600082601f830112620003485762000347620001e4565b5b81516200035a848260208601620002e5565b91505092915050565b6000819050919050565b620003788162000363565b81146200038457600080fd5b50565b60008151905062000398816200036d565b92915050565b600073ffffffffffffffffffffffffffffffffffffffff82169050919050565b6000620003cb826200039e565b9050919050565b620003dd81620003be565b8114620003e957600080fd5b50565b600081519050620003fd81620003d2565b92915050565b6000806000806080858703121562000420576200041f620001da565b5b600085015167ffffffffffffffff811115620004415762000440620001df565b5b6200044f8782880162000330565b9450506020620004628782880162000387565b93505060406200047587828801620003ec565b9250506060620004888782880162000387565b91505092959194509250565b600082825260208201905092915050565b7f52656e6577616c20646174652068617320746f206265207570636f6d696e6700600082015250565b6000620004dd601f8362000494565b9150620004ea82620004a5565b602082019050919050565b600060208201905081810360008301526200051081620004ce565b9050919050565b7f52657175697265642061207072656d69756d20746f206163746976617465207460008201527f686520706f6c6963790000000000000000000000000000000000000000000000602082015250565b60006200057560298362000494565b9150620005828262000517565b604082019050919050565b60006020820190508181036000830152620005a88162000566565b9050919050565b600081519050919050565b7f4e487b7100000000000000000000000000000000000000000000000000000000600052602260045260246000fd5b600060028204905060018216806200060257607f821691505b602082108103620006185762000617620005ba565b5b50919050565b60008190508160005260206000209050919050565b60006020601f8301049050919050565b600082821b905092915050565b600060088302620006827fffffffffffffffffffffffffffffffffffffffffffffffffffffffffffffffff8262000643565b6200068e868362000643565b95508019841693508086168417925050509392505050565b6000819050919050565b6000620006d1620006cb620006c58462000363565b620006a6565b62000363565b9050919050565b6000819050919050565b620006ed83620006b0565b62000705620006fc82620006d8565b84845462000650565b825550505050565b600090565b6200071c6200070d565b62000729818484620006e2565b505050565b5b8181101562000751576200074560008262000712565b6001810190506200072f565b5050565b601f821115620007a0576200076a816200061e565b620007758462000633565b8101602085101562000785578190505b6200079d620007948562000633565b8301826200072e565b50505b505050565b600082821c905092915050565b6000620007c560001984600802620007a5565b1980831691505092915050565b6000620007e08383620007b2565b9150826002028217905092915050565b620007fb82620005af565b67ffffffffffffffff811115620008175762000816620001ff565b5b620008238254620005e9565b6200083082828562000755565b600060209050601f83116001811462000868576000841562000853578287015190505b6200085f8582620007d2565b865550620008cf565b601f19841662000878866200061e565b60005b82811015620008a2578489015182556001820191506020850194506020810190506200087b565b86831015620008c25784890151620008be601f891682620007b2565b8355505b6001600288020188555050505b505050505050565b620008e281620003be565b82525050565b6000602082019050620008ff6000830184620008d7565b92915050565b611d9580620009156000396000f3fe608060405234801561001057600080fd5b506004361061009e5760003560e01c806360847c241161006657806360847c24146101475780637fbe658c14610165578063b135648814610181578063f119c4631461019f578063f3563e71146101bb5761009e565b80630c4f65bd146100a35780630fa5fd6c146100c15780634ef2cc00146100dd5780635aef2447146100e75780635baa750914610117575b600080fd5b6100ab6101d9565b6040516100b891906110b8565b60405180910390f35b6100db60048036038101906100d691906113a1565b6102eb565b005b6100e5610501565b005b61010160048036038101906100fc91906113fd565b61066f565b60405161010e9190611572565b60405180910390f35b610131600480360381019061012c91906113fd565b6108c0565b60405161013e91906115a3565b60405180910390f35b61014f6109e0565b60405161015c9190611608565b60405180910390f35b61017f600480360381019061017a919061162a565b610b5a565b005b610189610c51565b60405161019691906115a3565b60405180910390f35b6101b960048036038101906101b491906113fd565b610d43565b005b6101c3610e18565b6040516101d09190611719565b60405180910390f35b6000600360009054906101000a900473ffffffffffffffffffffffffffffffffffffffff1673ffffffffffffffffffffffffffffffffffffffff163373ffffffffffffffffffffffffffffffffffffffff1614806102845750600260009054906101000a900473ffffffffffffffffffffffffffffffffffffffff1673ffffffffffffffffffffffffffffffffffffffff163373ffffffffffffffffffffffffffffffffffffffff16145b6102c3576040517f08c379a00000000000000000000000000000000000000000000000000000000081526004016102ba906117d3565b60405180910390fd5b600260009054906101000a900473ffffffffffffffffffffffffffffffffffffffff16905090565b600260009054906101000a900473ffffffffffffffffffffffffffffffffffffffff1673ffffffffffffffffffffffffffffffffffffffff163373ffffffffffffffffffffffffffffffffffffffff161461037b576040517f08c379a000000000000000000000000000000000000000000000000000000000815260040161037290611865565b60405180910390fd5b42600454116103bf576040517f08c379a00000000000000000000000000000000000000000000000000000000081526004016103b6906118d1565b60405180910390fd5b6000819050806006600085815260200190815260200160002060008201518160000190816103ed9190611afd565b5060208201518160010160006101000a81548173ffffffffffffffffffffffffffffffffffffffff021916908373ffffffffffffffffffffffffffffffffffffffff160217905550604082015181600201556060820151816003015560808201518160040160006101000a81548160ff02191690831515021790555060a0820151816005015560c08201518160060160006101000a81548160ff02191690831515021790555090505060006006600085815260200190815260200160002060060160006101000a81548160ff0219169083151502179055507f638e2a6aeee887a0d14ed55e72f023c4cc608d74f3fc9d7dd46fa6355fd0ea49836040516104f491906115a3565b60405180910390a1505050565b600360009054906101000a900473ffffffffffffffffffffffffffffffffffffffff1673ffffffffffffffffffffffffffffffffffffffff163373ffffffffffffffffffffffffffffffffffffffff1614806105aa5750600260009054906101000a900473ffffffffffffffffffffffffffffffffffffffff1673ffffffffffffffffffffffffffffffffffffffff163373ffffffffffffffffffffffffffffffffffffffff16145b6105e9576040517f08c379a00000000000000000000000000000000000000000000000000000000081526004016105e0906117d3565b60405180910390fd5b426004541161062d576040517f08c379a0000000000000000000000000000000000000000000000000000000008152600401610624906118d1565b60405180910390fd5b426004819055507f5af4c37852e46c039a8fb4eedfcc916d59262430de08a63b8976b07efb8141ef60045460405161066591906115a3565b60405180910390a1565b610677611020565b600360009054906101000a900473ffffffffffffffffffffffffffffffffffffffff1673ffffffffffffffffffffffffffffffffffffffff163373ffffffffffffffffffffffffffffffffffffffff1614806107205750600260009054906101000a900473ffffffffffffffffffffffffffffffffffffffff1673ffffffffffffffffffffffffffffffffffffffff163373ffffffffffffffffffffffffffffffffffffffff16145b61075f576040517f08c379a0000000000000000000000000000000000000000000000000000000008152600401610756906117d3565b60405180910390fd5b600660008381526020019081526020016000206040518060e001604052908160008201805461078d90611920565b80601f01602080910402602001604051908101604052809291908181526020018280546107b990611920565b80156108065780601f106107db57610100808354040283529160200191610806565b820191906000526020600020905b8154815290600101906020018083116107e957829003601f168201915b505050505081526020016001820160009054906101000a900473ffffffffffffffffffffffffffffffffffffffff1673ffffffffffffffffffffffffffffffffffffffff1673ffffffffffffffffffffffffffffffffffffffff16815260200160028201548152602001600382015481526020016004820160009054906101000a900460ff16151515158152602001600582015481526020016006820160009054906101000a900460ff1615151515815250509050919050565b6000600360009054906101000a900473ffffffffffffffffffffffffffffffffffffffff1673ffffffffffffffffffffffffffffffffffffffff163373ffffffffffffffffffffffffffffffffffffffff1614610952576040517f08c379a000000000000000000000000000000000000000000000000000000000815260040161094990611c41565b60405180910390fd5b6004548211610996576040517f08c379a000000000000000000000000000000000000000000000000000000000815260040161098d90611cd3565b60405180910390fd5b816004819055507f5d7ac495f70da95795bf1e013229e085d2330c3d85625768e8d8147cde21584c6004546040516109ce91906115a3565b60405180910390a16004549050919050565b6060600360009054906101000a900473ffffffffffffffffffffffffffffffffffffffff1673ffffffffffffffffffffffffffffffffffffffff163373ffffffffffffffffffffffffffffffffffffffff161480610a8b5750600260009054906101000a900473ffffffffffffffffffffffffffffffffffffffff1673ffffffffffffffffffffffffffffffffffffffff163373ffffffffffffffffffffffffffffffffffffffff16145b610aca576040517f08c379a0000000000000000000000000000000000000000000000000000000008152600401610ac1906117d3565b60405180910390fd5b60008054610ad790611920565b80601f0160208091040260200160405190810160405280929190818152602001828054610b0390611920565b8015610b505780601f10610b2557610100808354040283529160200191610b50565b820191906000526020600020905b815481529060010190602001808311610b3357829003601f168201915b5050505050905090565b600360009054906101000a900473ffffffffffffffffffffffffffffffffffffffff1673ffffffffffffffffffffffffffffffffffffffff163373ffffffffffffffffffffffffffffffffffffffff1614610bea576040517f08c379a0000000000000000000000000000000000000000000000000000000008152600401610be190611c41565b60405180910390fd5b6000600660008481526020019081526020016000209050610c0c836001610f58565b8181600301819055507fd2d0ed0cccc8615643ade1eff3929a29ed8df75ebca85a3996e311c9b69e228983604051610c4491906115a3565b60405180910390a1505050565b6000600360009054906101000a900473ffffffffffffffffffffffffffffffffffffffff1673ffffffffffffffffffffffffffffffffffffffff163373ffffffffffffffffffffffffffffffffffffffff161480610cfc5750600260009054906101000a900473ffffffffffffffffffffffffffffffffffffffff1673ffffffffffffffffffffffffffffffffffffffff163373ffffffffffffffffffffffffffffffffffffffff16145b610d3b576040517f08c379a0000000000000000000000000000000000000000000000000000000008152600401610d32906117d3565b60405180910390fd5b600454905090565b600360009054906101000a900473ffffffffffffffffffffffffffffffffffffffff1673ffffffffffffffffffffffffffffffffffffffff163373ffffffffffffffffffffffffffffffffffffffff1614610dd3576040517f08c379a0000000000000000000000000000000000000000000000000000000008152600401610dca90611c41565b60405180910390fd5b610dde816000610f58565b7f02d319d3445ae98d88bc3ebef5c58a74cdf7fc53e3191dadfbf75745ae49cd7d81604051610e0d91906115a3565b60405180910390a150565b6060600360009054906101000a900473ffffffffffffffffffffffffffffffffffffffff1673ffffffffffffffffffffffffffffffffffffffff163373ffffffffffffffffffffffffffffffffffffffff161480610ec35750600260009054906101000a900473ffffffffffffffffffffffffffffffffffffffff1673ffffffffffffffffffffffffffffffffffffffff163373ffffffffffffffffffffffffffffffffffffffff16145b610f02576040517f08c379a0000000000000000000000000000000000000000000000000000000008152600401610ef9906117d3565b60405180910390fd5b6007805480602002602001604051908101604052809291908181526020018280548015610f4e57602002820191906000526020600020905b815481526020019060010190808311610f3a575b5050505050905090565b6000600660008481526020019081526020016000209050600015158160060160009054906101000a900460ff16151514610fc7576040517f08c379a0000000000000000000000000000000000000000000000000000000008152600401610fbe90611d3f565b60405180910390fd5b42816005018190555060016006600085815260200190815260200160002060060160006101000a81548160ff021916908315150217905550818160040160006101000a81548160ff021916908315150217905550505050565b6040518060e0016040528060608152602001600073ffffffffffffffffffffffffffffffffffffffff1681526020016000815260200160008152602001600015158152602001600081526020016000151581525090565b600073ffffffffffffffffffffffffffffffffffffffff82169050919050565b60006110a282611077565b9050919050565b6110b281611097565b82525050565b60006020820190506110cd60008301846110a9565b92915050565b6000604051905090565b600080fd5b600080fd5b6000819050919050565b6110fa816110e7565b811461110557600080fd5b50565b600081359050611117816110f1565b92915050565b600080fd5b6000601f19601f8301169050919050565b7f4e487b7100000000000000000000000000000000000000000000000000000000600052604160045260246000fd5b61116b82611122565b810181811067ffffffffffffffff8211171561118a57611189611133565b5b80604052505050565b600061119d6110d3565b90506111a98282611162565b919050565b600080fd5b600080fd5b600080fd5b600067ffffffffffffffff8211156111d8576111d7611133565b5b6111e182611122565b9050602081019050919050565b82818337600083830152505050565b600061121061120b846111bd565b611193565b90508281526020810184848401111561122c5761122b6111b8565b5b6112378482856111ee565b509392505050565b600082601f830112611254576112536111b3565b5b81356112648482602086016111fd565b91505092915050565b61127681611097565b811461128157600080fd5b50565b6000813590506112938161126d565b92915050565b60008115159050919050565b6112ae81611299565b81146112b957600080fd5b50565b6000813590506112cb816112a5565b92915050565b600060e082840312156112e7576112e661111d565b5b6112f160e0611193565b9050600082013567ffffffffffffffff811115611311576113106111ae565b5b61131d8482850161123f565b600083015250602061133184828501611284565b602083015250604061134584828501611108565b604083015250606061135984828501611108565b606083015250608061136d848285016112bc565b60808301525060a061138184828501611108565b60a08301525060c0611395848285016112bc565b60c08301525092915050565b600080604083850312156113b8576113b76110dd565b5b60006113c685828601611108565b925050602083013567ffffffffffffffff8111156113e7576113e66110e2565b5b6113f3858286016112d1565b9150509250929050565b600060208284031215611413576114126110dd565b5b600061142184828501611108565b91505092915050565b600081519050919050565b600082825260208201905092915050565b60005b83811015611464578082015181840152602081019050611449565b60008484015250505050565b600061147b8261142a565b6114858185611435565b9350611495818560208601611446565b61149e81611122565b840191505092915050565b6114b281611097565b82525050565b6114c1816110e7565b82525050565b6114d081611299565b82525050565b600060e08301600083015184820360008601526114f38282611470565b915050602083015161150860208601826114a9565b50604083015161151b60408601826114b8565b50606083015161152e60608601826114b8565b50608083015161154160808601826114c7565b5060a083015161155460a08601826114b8565b5060c083015161156760c08601826114c7565b508091505092915050565b6000602082019050818103600083015261158c81846114d6565b905092915050565b61159d816110e7565b82525050565b60006020820190506115b86000830184611594565b92915050565b600082825260208201905092915050565b60006115da8261142a565b6115e481856115be565b93506115f4818560208601611446565b6115fd81611122565b840191505092915050565b6000602082019050818103600083015261162281846115cf565b905092915050565b60008060408385031215611641576116406110dd565b5b600061164f85828601611108565b925050602061166085828601611108565b9150509250929050565b600081519050919050565b600082825260208201905092915050565b6000819050602082019050919050565b60006116a283836114b8565b60208301905092915050565b6000602082019050919050565b60006116c68261166a565b6116d08185611675565b93506116db83611686565b8060005b8381101561170c5781516116f38882611696565b97506116fe836116ae565b9250506001810190506116df565b5085935050505092915050565b6000602082019050818103600083015261173381846116bb565b905092915050565b7f4a7573742074686520706f6c696379686f6c646572206f722074686520696e7360008201527f7572616e636520636f6d70616e792063616e20706572666f726d20746869732060208201527f616374696f6e0000000000000000000000000000000000000000000000000000604082015250565b60006117bd6046836115be565b91506117c88261173b565b606082019050919050565b600060208201905081810360008301526117ec816117b0565b9050919050565b7f4a7573742074686520706f6c696379686f6c6465722063616e20706572666f7260008201527f6d207468697320616374696f6e00000000000000000000000000000000000000602082015250565b600061184f602d836115be565b915061185a826117f3565b604082019050919050565b6000602082019050818103600083015261187e81611842565b9050919050565b7f506f6c696379206973206e6f7420616374697665000000000000000000000000600082015250565b60006118bb6014836115be565b91506118c682611885565b602082019050919050565b600060208201905081810360008301526118ea816118ae565b9050919050565b7f4e487b7100000000000000000000000000000000000000000000000000000000600052602260045260246000fd5b6000600282049050600182168061193857607f821691505b60208210810361194b5761194a6118f1565b5b50919050565b60008190508160005260206000209050919050565b60006020601f8301049050919050565b600082821b905092915050565b6000600883026119b37fffffffffffffffffffffffffffffffffffffffffffffffffffffffffffffffff82611976565b6119bd8683611976565b95508019841693508086168417925050509392505050565b6000819050919050565b60006119fa6119f56119f0846110e7565b6119d5565b6110e7565b9050919050565b6000819050919050565b611a14836119df565b611a28611a2082611a01565b848454611983565b825550505050565b600090565b611a3d611a30565b611a48818484611a0b565b505050565b5b81811015611a6c57611a61600082611a35565b600181019050611a4e565b5050565b601f821115611ab157611a8281611951565b611a8b84611966565b81016020851015611a9a578190505b611aae611aa685611966565b830182611a4d565b50505b505050565b600082821c905092915050565b6000611ad460001984600802611ab6565b1980831691505092915050565b6000611aed8383611ac3565b9150826002028217905092915050565b611b068261142a565b67ffffffffffffffff811115611b1f57611b1e611133565b5b611b298254611920565b611b34828285611a70565b600060209050601f831160018114611b675760008415611b55578287015190505b611b5f8582611ae1565b865550611bc7565b601f198416611b7586611951565b60005b82811015611b9d57848901518255600182019150602085019450602081019050611b78565b86831015611bba5784890151611bb6601f891682611ac3565b8355505b6001600288020188555050505b505050505050565b7f4a7573742074686520696e737572616e636520636f6d70616e792063616e207060008201527f6572666f726d207468697320616374696f6e0000000000000000000000000000602082015250565b6000611c2b6032836115be565b9150611c3682611bcf565b604082019050919050565b60006020820190508181036000830152611c5a81611c1e565b9050919050565b7f4e657720656e6420646174652068617320746f2062652061667465722074686560008201527f2063757272656e74206f6e650000000000000000000000000000000000000000602082015250565b6000611cbd602c836115be565b9150611cc882611c61565b604082019050919050565b60006020820190508181036000830152611cec81611cb0565b9050919050565b7f436c61696d20697320616c7265616479207265736f6c76656400000000000000600082015250565b6000611d296019836115be565b9150611d3482611cf3565b602082019050919050565b60006020820190508181036000830152611d5881611d1c565b905091905056fea2646970667358221220c475c08c77c41f699b808a8a14e73bd821050b13c00f5922580cc1e22706023a64736f6c63430008130033",
  "linkReferences": {},
  "deployedLinkReferences": {}
}